{
  "contractName": "DLottery",
  "abi": [
    {
      "inputs": [
        {
          "name": "_winningNumbersGeneratorAddress",
          "type": "address"
        }
      ],
      "payable": false,
      "stateMutability": "nonpayable",
      "type": "constructor",
      "signature": "constructor"
    },
    {
      "anonymous": false,
      "inputs": [
        {
          "indexed": false,
          "name": "sender",
          "type": "address"
        },
        {
          "indexed": false,
          "name": "commitHash",
          "type": "bytes32"
        }
      ],
      "name": "NewCommit",
      "type": "event",
      "signature": "0x0290e16ca163280238cff6bd42c77cb055d3ff42239fe48bc5b8ec6edf5065c9"
    },
    {
      "anonymous": false,
      "inputs": [
        {
          "indexed": false,
          "name": "sender",
          "type": "address"
        },
        {
          "indexed": false,
          "name": "first_number",
          "type": "uint8"
        },
        {
          "indexed": false,
          "name": "second_number",
          "type": "uint8"
        }
      ],
      "name": "NewReveal",
      "type": "event",
      "signature": "0x5537213d56fcd58df8e4fa27754f5d1835653bde9364c0ffa2cb0519bc128e83"
    },
    {
      "anonymous": false,
      "inputs": [
        {
          "indexed": false,
          "name": "sender",
          "type": "address"
        }
      ],
      "name": "Reset",
      "type": "event",
      "signature": "0x162f46783fcc741c289a7af5bd16474ace09d7e8a9d5fe1ac0d37b12afc0ccac"
    },
    {
      "anonymous": false,
      "inputs": [
        {
          "indexed": false,
          "name": "old_phase",
          "type": "uint8"
        },
        {
          "indexed": false,
          "name": "new_phase",
          "type": "uint8"
        }
      ],
      "name": "PhaseChange",
      "type": "event",
      "signature": "0x5e45bf0703fe855c9fa7c44122b9f47ad1075a0cc5dc8ae88903470067cba7e5"
    },
    {
      "anonymous": false,
      "inputs": [
        {
          "indexed": false,
          "name": "winners",
          "type": "address[]"
        }
      ],
      "name": "LotteryEnded",
      "type": "event",
      "signature": "0x1364a66c10650b51f40fbdd70a9c9553915721688179be49b98ae5979b861839"
    },
    {
      "anonymous": false,
      "inputs": [
        {
          "indexed": false,
          "name": "number",
          "type": "uint256"
        }
      ],
      "name": "Log",
      "type": "event",
      "signature": "0x909c57d5c6ac08245cf2a6de3900e2b868513fa59099b92b27d8db823d92df9c"
    },
    {
      "anonymous": false,
      "inputs": [
        {
          "indexed": false,
          "name": "b",
          "type": "bytes"
        }
      ],
      "name": "Log2",
      "type": "event",
      "signature": "0x915f48adfca02dd572ace21b9436e8a30fe2ad97a0f67bee6ca400db6c7564e5"
    },
    {
      "constant": true,
      "inputs": [],
      "name": "getCommitted",
      "outputs": [
        {
          "name": "",
          "type": "address[]"
        }
      ],
      "payable": false,
      "stateMutability": "view",
      "type": "function",
      "signature": "0xb0a398ab"
    },
    {
      "constant": true,
      "inputs": [],
      "name": "getCurrentTimestamp",
      "outputs": [
        {
          "name": "open",
          "type": "uint256"
        },
        {
          "name": "start",
          "type": "uint256"
        },
        {
          "name": "reveal",
          "type": "uint256"
        },
        {
          "name": "payout",
          "type": "uint256"
        }
      ],
      "payable": false,
      "stateMutability": "view",
      "type": "function",
      "signature": "0x6c9230db"
    },
    {
      "constant": true,
      "inputs": [],
      "name": "getCurrentPhase",
      "outputs": [
        {
          "name": "",
          "type": "uint8"
        }
      ],
      "payable": false,
      "stateMutability": "view",
      "type": "function",
      "signature": "0xa3a40ea5"
    },
    {
      "constant": true,
      "inputs": [],
      "name": "getRevealed",
      "outputs": [
        {
          "name": "",
          "type": "address[]"
        }
      ],
      "payable": false,
      "stateMutability": "view",
      "type": "function",
      "signature": "0x94cc4140"
    },
    {
      "constant": true,
      "inputs": [],
      "name": "getFee",
      "outputs": [
        {
          "name": "",
          "type": "uint256"
        }
      ],
      "payable": false,
      "stateMutability": "pure",
      "type": "function",
      "signature": "0xced72f87"
    },
    {
      "constant": true,
      "inputs": [],
      "name": "getBalance",
      "outputs": [
        {
          "name": "",
          "type": "uint256"
        }
      ],
      "payable": false,
      "stateMutability": "view",
      "type": "function",
      "signature": "0x12065fe0"
    },
    {
      "constant": true,
      "inputs": [],
      "name": "getLotteryIndex",
      "outputs": [
        {
          "name": "",
          "type": "uint256"
        }
      ],
      "payable": false,
      "stateMutability": "view",
      "type": "function",
      "signature": "0x9bd80174"
    },
    {
      "constant": true,
      "inputs": [],
      "name": "getTimers",
      "outputs": [
        {
          "name": "TIME_LEFT_START",
          "type": "uint256"
        },
        {
          "name": "TO_ABORT",
          "type": "uint256"
        },
        {
          "name": "WAIT_TO_GO_TO_REVEAL",
          "type": "uint256"
        },
        {
          "name": "TO_REVEAL",
          "type": "uint256"
        }
      ],
      "payable": false,
      "stateMutability": "pure",
      "type": "function",
      "signature": "0x66945574"
    },
    {
      "constant": true,
      "inputs": [],
      "name": "user_committed",
      "outputs": [
        {
          "name": "",
          "type": "bool"
        }
      ],
      "payable": false,
      "stateMutability": "view",
      "type": "function",
      "signature": "0x6a917cef"
    },
    {
      "constant": false,
      "inputs": [
        {
          "name": "hash",
          "type": "bytes32"
        }
      ],
      "name": "commit",
      "outputs": [],
      "payable": true,
      "stateMutability": "payable",
      "type": "function",
      "signature": "0xf14fcbc8"
    },
    {
      "constant": false,
      "inputs": [],
      "name": "reset",
      "outputs": [],
      "payable": false,
      "stateMutability": "nonpayable",
      "type": "function",
      "signature": "0xd826f88f"
    },
    {
      "constant": false,
      "inputs": [],
      "name": "goToRevealPhase",
      "outputs": [],
      "payable": true,
      "stateMutability": "payable",
      "type": "function",
      "signature": "0xaf38ac1e"
    },
    {
      "constant": false,
      "inputs": [
        {
          "name": "firstNumber",
          "type": "uint8"
        },
        {
          "name": "secondNumber",
          "type": "uint8"
        }
      ],
      "name": "reveal",
      "outputs": [],
      "payable": true,
      "stateMutability": "payable",
      "type": "function",
      "signature": "0xdfd61558"
    },
    {
      "constant": false,
      "inputs": [],
      "name": "payout",
      "outputs": [
        {
          "name": "",
          "type": "uint256"
        }
      ],
      "payable": false,
      "stateMutability": "nonpayable",
      "type": "function",
      "signature": "0x63bd1d4a"
    }
  ],
  "bytecode": "0x608060405260006001553480156200001657600080fd5b50604051602080620026d5833981018060405260208110156200003857600080fd5b8101908080519060200190929190505050600073ffffffffffffffffffffffffffffffffffffffff168173ffffffffffffffffffffffffffffffffffffffff1614156200008457600080fd5b80600260006101000a81548173ffffffffffffffffffffffffffffffffffffffff021916908373ffffffffffffffffffffffffffffffffffffffff16021790555033600360006101000a81548173ffffffffffffffffffffffffffffffffffffffff021916908373ffffffffffffffffffffffffffffffffffffffff160217905550620001106200023f565b6000816000019060038111156200012357fe5b908160038111156200013157fe5b8152505060023073ffffffffffffffffffffffffffffffffffffffff1631816200015757fe5b048160200181815250506000819080600181540180825580915050906001820390600052602060002090600b02016000909192909190915060008201518160000160006101000a81548160ff02191690836003811115620001b457fe5b0217905550602082015181600101556040820151816002019080519060200190620001e192919062000283565b5060608201518160030190805190602001906200020092919062000283565b50608082015181600701600082015181600001556020820151816001015560408201518160020155606082015181600301555050505050505062000380565b604051806101000160405280600060038111156200025957fe5b81526020016000815260200160608152602001606081526020016200027d62000312565b81525090565b828054828255906000526020600020908101928215620002ff579160200282015b82811115620002fe5782518260006101000a81548173ffffffffffffffffffffffffffffffffffffffff021916908373ffffffffffffffffffffffffffffffffffffffff16021790555091602001919060010190620002a4565b5b5090506200030e91906200033a565b5090565b6040518060800160405280600081526020016000815260200160008152602001600081525090565b6200037d91905b808211156200037957600081816101000a81549073ffffffffffffffffffffffffffffffffffffffff02191690555060010162000341565b5090565b90565b61234580620003906000396000f3fe6080604052600436106100fa576000357c010000000000000000000000000000000000000000000000000000000090048063a3a40ea51161009c578063ced72f8711610076578063ced72f871461034a578063d826f88f14610375578063dfd615581461038c578063f14fcbc8146103ca576100fa565b8063a3a40ea51461029b578063af38ac1e146102d4578063b0a398ab146102de576100fa565b80636a917cef116100d85780636a917cef146101955780636c9230db146101c457806394cc4140146102045780639bd8017414610270576100fa565b806312065fe0146100ff57806363bd1d4a1461012a5780636694557414610155575b600080fd5b34801561010b57600080fd5b506101146103f8565b6040518082815260200191505060405180910390f35b34801561013657600080fd5b5061013f610417565b6040518082815260200191505060405180910390f35b34801561016157600080fd5b5061016a6109a1565b6040518085815260200184815260200183815260200182815260200194505050505060405180910390f35b3480156101a157600080fd5b506101aa6109bf565b604051808215151515815260200191505060405180910390f35b3480156101d057600080fd5b506101d9610a27565b6040518085815260200184815260200183815260200182815260200194505050505060405180910390f35b34801561021057600080fd5b50610219610acb565b6040518080602001828103825283818151815260200191508051906020019060200280838360005b8381101561025c578082015181840152602081019050610241565b505050509050019250505060405180910390f35b34801561027c57600080fd5b50610285610b77565b6040518082815260200191505060405180910390f35b3480156102a757600080fd5b506102b0610b81565b604051808260038111156102c057fe5b60ff16815260200191505060405180910390f35b6102dc610bb5565b005b3480156102ea57600080fd5b506102f3610e98565b6040518080602001828103825283818151815260200191508051906020019060200280838360005b8381101561033657808201518184015260208101905061031b565b505050509050019250505060405180910390f35b34801561035657600080fd5b5061035f610f44565b6040518082815260200191505060405180910390f35b34801561038157600080fd5b5061038a610f54565b005b6103c8600480360360408110156103a257600080fd5b81019080803560ff169060200190929190803560ff1690602001909291905050506111a2565b005b6103f6600480360360208110156103e057600080fd5b810190808035906020019092919050505061196a565b005b60003073ffffffffffffffffffffffffffffffffffffffff1631905090565b6000606060066005600460405160200180806020018060200180602001848103845287818154815260200191508054801561047157602002820191906000526020600020905b81548152602001906001019080831161045d575b505084810383528681815481526020019150805480156104b057602002820191906000526020600020905b81548152602001906001019080831161049c575b505084810382528581815481526020019150805480156104ef57602002820191906000526020600020905b8154815260200190600101908083116104db575b5050965050505050505060405160208183030381529060405280519060200120604051602001808281526020019150506040516020818303038152906040529050610538611f79565b600260009054906101000a900473ffffffffffffffffffffffffffffffffffffffff1673ffffffffffffffffffffffffffffffffffffffff166315c4a99f836040518263ffffffff167c01000000000000000000000000000000000000000000000000000000000281526004018080602001828103825283818151815260200191508051906020019080838360005b838110156105e25780820151818401526020810190506105c7565b50505050905090810190601f16801561060f5780820380516001836020036101000a031916815260200191505b5092505050604080518083038186803b15801561062b57600080fd5b505afa15801561063f573d6000803e3d6000fd5b505050506040513d601f19601f82011682018060405250604081101561066457600080fd5b8101908091905050905060008160006002811061067d57fe5b6020020151905060008260016002811061069357fe5b602002015190507f909c57d5c6ac08245cf2a6de3900e2b868513fa59099b92b27d8db823d92df9c82604051808260ff16815260200191505060405180910390a17f909c57d5c6ac08245cf2a6de3900e2b868513fa59099b92b27d8db823d92df9c81604051808260ff16815260200191505060405180910390a1606060006001548154811061071f57fe5b90600052602060002090600b020160050160008460ff16815260200190815260200160002060008360ff1681526020019081526020016000208054806020026020016040519081016040528092919081815260200182805480156107d857602002820191906000526020600020905b8160009054906101000a900473ffffffffffffffffffffffffffffffffffffffff1673ffffffffffffffffffffffffffffffffffffffff168152602001906001019080831161078e575b5050505050905060008151146109195760003073ffffffffffffffffffffffffffffffffffffffff163190506000811161087a576040517f08c379a000000000000000000000000000000000000000000000000000000000815260040180806020018281038252601f8152602001807f436f6e7472616374206e6565647320746f20686176652062616c616e63652e0081525060200191505060405180910390fd5b60006002828161088657fe5b04905060008351828161089557fe5b04905060008090505b84518110156109145760008582815181106108b557fe5b602002602001015190508073ffffffffffffffffffffffffffffffffffffffff166108fc849081150290604051600060405180830381858888f19350505050158015610905573d6000803e3d6000fd5b5050808060010191505061089e565b505050505b7f1364a66c10650b51f40fbdd70a9c9553915721688179be49b98ae5979b861839816040518080602001828103825283818151815260200191508051906020019060200280838360005b8381101561097e578082015181840152602081019050610963565b505050509050019250505060405180910390a1610999610f54565b505050505090565b600080600080603c610258600a610258935093509350935090919293565b6000806000600154815481106109d157fe5b90600052602060002090600b020160040160003373ffffffffffffffffffffffffffffffffffffffff1673ffffffffffffffffffffffffffffffffffffffff168152602001908152602001600020541415905090565b600080600080600060015481548110610a3c57fe5b90600052602060002090600b020160070160000154600060015481548110610a6057fe5b90600052602060002090600b020160070160010154600060015481548110610a8457fe5b90600052602060002090600b020160070160020154600060015481548110610aa857fe5b90600052602060002090600b020160070160030154935093509350935090919293565b6060600060015481548110610adc57fe5b90600052602060002090600b0201600301805480602002602001604051908101604052809291908181526020018280548015610b6d57602002820191906000526020600020905b8160009054906101000a900473ffffffffffffffffffffffffffffffffffffffff1673ffffffffffffffffffffffffffffffffffffffff1681526020019060010190808311610b23575b5050505050905090565b6000600154905090565b60008060015481548110610b9157fe5b90600052602060002090600b020160000160009054906101000a900460ff16905090565b60016003811115610bc257fe5b600060015481548110610bd157fe5b90600052602060002090600b020160000160009054906101000a900460ff166003811115610bfb57fe5b14610c51576040517f08c379a000000000000000000000000000000000000000000000000000000000815260040180806020018281038252602181526020018061221b6021913960400191505060405180910390fd5b60008060015481548110610c6157fe5b90600052602060002090600b020160040160003373ffffffffffffffffffffffffffffffffffffffff1673ffffffffffffffffffffffffffffffffffffffff168152602001908152602001600020541415610d07576040517f08c379a000000000000000000000000000000000000000000000000000000000815260040180806020018281038252603281526020018061223c6032913960400191505060405180910390fd5b600a600060015481548110610d1857fe5b90600052602060002090600b02016007016001015442031015610da3576040517f08c379a000000000000000000000000000000000000000000000000000000000815260040180806020018281038252601e8152602001807f57616974696e672074696d65206e6565647320746f206265206f7665722e000081525060200191505060405180910390fd5b7f5e45bf0703fe855c9fa7c44122b9f47ad1075a0cc5dc8ae88903470067cba7e5600060015481548110610dd357fe5b90600052602060002090600b020160000160009054906101000a900460ff16600260405180836003811115610e0457fe5b60ff168152602001826003811115610e1857fe5b60ff1681526020019250505060405180910390a16002600060015481548110610e3d57fe5b90600052602060002090600b020160000160006101000a81548160ff02191690836003811115610e6957fe5b021790555042600060015481548110610e7e57fe5b90600052602060002090600b020160070160020181905550565b6060600060015481548110610ea957fe5b90600052602060002090600b0201600201805480602002602001604051908101604052809291908181526020018280548015610f3a57602002820191906000526020600020905b8160009054906101000a900473ffffffffffffffffffffffffffffffffffffffff1673ffffffffffffffffffffffffffffffffffffffff1681526020019060010190808311610ef0575b5050505050905090565b60006706f05b59d3b20000905090565b7f5e45bf0703fe855c9fa7c44122b9f47ad1075a0cc5dc8ae88903470067cba7e5600060015481548110610f8457fe5b90600052602060002090600b020160000160009054906101000a900460ff16600060405180836003811115610fb557fe5b60ff168152602001826003811115610fc957fe5b60ff1681526020019250505060405180910390a1610fe5611f9b565b60023073ffffffffffffffffffffffffffffffffffffffff16318161100657fe5b0481602001818152505060405180608001604052806000815260200160008152602001600081526020016000815250816080018190525060008160000190600381111561104f57fe5b9081600381111561105c57fe5b815250506000819080600181540180825580915050906001820390600052602060002090600b02016000909192909190915060008201518160000160006101000a81548160ff021916908360038111156110b257fe5b02179055506020820151816001015560408201518160020190805190602001906110dd929190611fdc565b5060608201518160030190805190602001906110fa929190611fdc565b5060808201518160070160008201518160000155602082015181600101556040820151816002015560608201518160030155505050505060018054016001819055507f162f46783fcc741c289a7af5bd16474ace09d7e8a9d5fe1ac0d37b12afc0ccac33604051808273ffffffffffffffffffffffffffffffffffffffff1673ffffffffffffffffffffffffffffffffffffffff16815260200191505060405180910390a150565b600080600154815481106111b257fe5b90600052602060002090600b020160040160003373ffffffffffffffffffffffffffffffffffffffff1673ffffffffffffffffffffffffffffffffffffffff168152602001908152602001600020541415611258576040517f08c379a00000000000000000000000000000000000000000000000000000000081526004018080602001828103825260218152602001806122ce6021913960400191505060405180910390fd5b6000806001548154811061126857fe5b90600052602060002090600b020160060160003373ffffffffffffffffffffffffffffffffffffffff1673ffffffffffffffffffffffffffffffffffffffff1681526020019081526020016000205060021415611310576040517f08c379a000000000000000000000000000000000000000000000000000000000815260040180806020018281038252602b8152602001806122ef602b913960400191505060405180910390fd5b6002600381111561131d57fe5b60006001548154811061132c57fe5b90600052602060002090600b020160000160009054906101000a900460ff16600381111561135657fe5b146113ac576040517f08c379a000000000000000000000000000000000000000000000000000000000815260040180806020018281038252602181526020018061226e6021913960400191505060405180910390fd5b6102586000600154815481106113be57fe5b90600052602060002090600b020160070160020154420310611448576040517f08c379a000000000000000000000000000000000000000000000000000000000815260040180806020018281038252601e8152602001807f4d7573742062652077697468696e2074696d6520746f2072657665616c2e000081525060200191505060405180910390fd5b6060823383604051602001808460ff1660ff1681526020018373ffffffffffffffffffffffffffffffffffffffff1673ffffffffffffffffffffffffffffffffffffffff1681526020018260ff1660ff16815260200193505050506040516020818303038152906040529050600081805190602001209050806000600154815481106114d057fe5b90600052602060002090600b020160040160003373ffffffffffffffffffffffffffffffffffffffff1673ffffffffffffffffffffffffffffffffffffffff1681526020019081526020016000205414611575576040517f08c379a00000000000000000000000000000000000000000000000000000000081526004018080602001828103825260308152602001806121c16030913960400191505060405180910390fd5b60006001548154811061158457fe5b90600052602060002090600b020160050160008560ff16815260200190815260200160002060008460ff1681526020019081526020016000203390806001815401808255809150509060018203906000526020600020016000909192909190916101000a81548173ffffffffffffffffffffffffffffffffffffffff021916908373ffffffffffffffffffffffffffffffffffffffff16021790555050611629611f79565b60405180604001604052808660ff1660ff1681526020018560ff1660ff1681525090508060006001548154811061165c57fe5b90600052602060002090600b020160060160003373ffffffffffffffffffffffffffffffffffffffff1673ffffffffffffffffffffffffffffffffffffffff1681526020019081526020016000209060026116b8929190612066565b506000600154815481106116c857fe5b90600052602060002090600b02016003013390806001815401808255809150509060018203906000526020600020016000909192909190916101000a81548173ffffffffffffffffffffffffffffffffffffffff021916908373ffffffffffffffffffffffffffffffffffffffff160217905550507f5537213d56fcd58df8e4fa27754f5d1835653bde9364c0ffa2cb0519bc128e83338686604051808473ffffffffffffffffffffffffffffffffffffffff1673ffffffffffffffffffffffffffffffffffffffff1681526020018360ff1660ff1681526020018260ff1660ff168152602001935050505060405180910390a160044290806001815401808255809150509060018203906000526020600020016000909192909190915055506005439080600181540180825580915050906001820390600052602060002001600090919290919091505550600644908060018154018082558091505090600182039060005260206000200160009091929091909150555060006001548154811061184f57fe5b90600052602060002090600b02016003018054905060006001548154811061187357fe5b90600052602060002090600b0201600201805490501415611963577f5e45bf0703fe855c9fa7c44122b9f47ad1075a0cc5dc8ae88903470067cba7e56000600154815481106118be57fe5b90600052602060002090600b020160000160009054906101000a900460ff166003604051808360038111156118ef57fe5b60ff16815260200182600381111561190357fe5b60ff1681526020019250505060405180910390a1600360006001548154811061192857fe5b90600052602060002090600b020160000160006101000a81548160ff0219169083600381111561195457fe5b0217905550611961610417565b505b5050505050565b6000806001548154811061197a57fe5b90600052602060002090600b020160040160003373ffffffffffffffffffffffffffffffffffffffff1673ffffffffffffffffffffffffffffffffffffffff1681526020019081526020016000205414611a1f576040517f08c379a000000000000000000000000000000000000000000000000000000000815260040180806020018281038252602581526020018061219c6025913960400191505060405180910390fd5b6706f05b59d3b20000341015611a80576040517f08c379a000000000000000000000000000000000000000000000000000000000815260040180806020018281038252603f81526020018061228f603f913960400191505060405180910390fd5b60006003811115611a8d57fe5b600060015481548110611a9c57fe5b90600052602060002090600b020160000160009054906101000a900460ff166003811115611ac657fe5b1480611b15575060016003811115611ada57fe5b600060015481548110611ae957fe5b90600052602060002090600b020160000160009054906101000a900460ff166003811115611b1357fe5b145b611b6a576040517f08c379a000000000000000000000000000000000000000000000000000000000815260040180806020018281038252602a8152602001806121f1602a913960400191505060405180910390fd5b60016003811115611b7757fe5b600060015481548110611b8657fe5b90600052602060002090600b020160000160009054906101000a900460ff166003811115611bb057fe5b1415611c5257603c600060015481548110611bc757fe5b90600052602060002090600b020160070160010154420310611c51576040517f08c379a00000000000000000000000000000000000000000000000000000000081526004018080602001828103825260178152602001807f54696d6520746f20636f6d6d6974206973206f7665722e00000000000000000081525060200191505060405180910390fd5b5b80600060015481548110611c6257fe5b90600052602060002090600b020160040160003373ffffffffffffffffffffffffffffffffffffffff1673ffffffffffffffffffffffffffffffffffffffff1681526020019081526020016000208190555060008060015481548110611cc457fe5b90600052602060002090600b02016002013390806001815401808255809150509060018203906000526020600020016000909192909190916101000a81548173ffffffffffffffffffffffffffffffffffffffff021916908373ffffffffffffffffffffffffffffffffffffffff160217905550905060006003811115611d4757fe5b600060015481548110611d5657fe5b90600052602060002090600b020160000160009054906101000a900460ff166003811115611d8057fe5b148015611d8d5750600181145b15611e86577f5e45bf0703fe855c9fa7c44122b9f47ad1075a0cc5dc8ae88903470067cba7e5600060015481548110611dc257fe5b90600052602060002090600b020160000160009054906101000a900460ff16600160405180836003811115611df357fe5b60ff168152602001826003811115611e0757fe5b60ff1681526020019250505060405180910390a16001600060015481548110611e2c57fe5b90600052602060002090600b020160000160006101000a81548160ff02191690836003811115611e5857fe5b021790555042600060015481548110611e6d57fe5b90600052602060002090600b0201600701600101819055505b7f0290e16ca163280238cff6bd42c77cb055d3ff42239fe48bc5b8ec6edf5065c93383604051808373ffffffffffffffffffffffffffffffffffffffff1673ffffffffffffffffffffffffffffffffffffffff1681526020018281526020019250505060405180910390a16004429080600181540180825580915050906001820390600052602060002001600090919290919091505550600543908060018154018082558091505090600182039060005260206000200160009091929091909150555060064490806001815401808255809150509060018203906000526020600020016000909192909190915055505050565b6040518060400160405280600290602082028038833980820191505090505090565b60405180610100016040528060006003811115611fb457fe5b8152602001600081526020016060815260200160608152602001611fd6612100565b81525090565b828054828255906000526020600020908101928215612055579160200282015b828111156120545782518260006101000a81548173ffffffffffffffffffffffffffffffffffffffff021916908373ffffffffffffffffffffffffffffffffffffffff16021790555091602001919060010190611ffc565b5b5090506120629190612128565b5090565b826002601f016020900481019282156120ef5791602002820160005b838211156120c057835183826101000a81548160ff021916908360ff1602179055509260200192600101602081600001049283019260010302612082565b80156120ed5782816101000a81549060ff02191690556001016020816000010492830192600103026120c0565b505b5090506120fc919061216b565b5090565b6040518060800160405280600081526020016000815260200160008152602001600081525090565b61216891905b8082111561216457600081816101000a81549073ffffffffffffffffffffffffffffffffffffffff02191690555060010161212e565b5090565b90565b61219891905b8082111561219457600081816101000a81549060ff021916905550600101612171565b5090565b9056fe55736572206d757374206e6f74206861766520616c726561647920636f6d6d69747465642e48617368206d757374206265207468652073616d6520617320746865206f6e6520746861742069732073746f7265642e43757272656e74207068617365206e6565647320746f206265204f70656e206f7220537461727465642e43757272656e74207068617365206e6565647320746f206265205374617274656453656e646572206f6620746865206d657373616765206d757374206861766520636f6d6d6974746564206e756d626572732e43757272656e74207068617365206e6565647320746f2062652052657665616c2e4d6573736167652068617320746f20686176652065786163746c79207468652076616c756520666f7220656e746572696e6720746865206c6f74746572792e55736572206d757374206861766520636f6d6d6974746564206e756d626572732e55736572206d757374206e6f742068617665206172656164792072657665616c6564206e756d626572732ea165627a7a723058201de73155b1749105b4b9dfb1f589a2428ddd70006ee5f2fc72737925a41d7a4d0029",
  "source": "pragma solidity ^0.5.7;\n\n// Interface of the random number generator\ncontract WinningNumbersGeneratorInterface {\n    function generateWinningNumbers(bytes memory input) public view returns (uint8[2] memory){}\n}\n\ncontract DLottery {\n    enum Phase { Open, Started, Reveal, Payout }\n\n    struct Lottery {\n        Phase current_phase;\n        uint256 jackpot;\n        address[] committed;\n        address[] revealed;\n        mapping(address => bytes32) addresses_to_committed_numbers;\n        mapping(uint256 => mapping(uint256 => address[])) revealed_numbers_to_addresses;\n        mapping(address => uint8[2]) addresses_to_revealed_numbers;\n        TimeStamps current_timestamps;\n    }\n\n    Lottery[] lotteries;\n    uint256 currentLotteryIndex = 0;\n\n    WinningNumbersGeneratorInterface private winningNumbersGenerator;\n    //uint256 constant ENTRY_FEE = 581273793610390;\n    uint256 constant ENTRY_FEE = (1 ether)/2;\n    address owner;\n    //uint256 constant TIME_LEFT_COMMIT_AND_REVEAL = 60; // 30 seconds\n    uint256 constant TIME_LEFT_START_PHASE = 60; // 30 seconds\n    uint256 constant TIME_TO_ABORT =  10 * 60; // 10 minutes\n    uint256 constant TIME_WAIT_TO_GO_TO_REVEAL_PHASE = 10; // 30 seconds\n    uint256 constant TIME_TO_REVEAL = 10 * 60; // 10 minutes\n    uint256 constant NUMBER_OF_REQUIRED_PARTICIPANTS = 1;\n    uint256[] private time_stamps;\n    uint256[] private block_numbers;\n    uint256[] private block_difficulties;\n\n    // time stamps of when the phases were entered\n    struct TimeStamps {\n        uint256 open;\n        uint256 start;\n        uint256 reveal;\n        uint256 payout;\n    }\n\n    event NewCommit(\n        address sender,\n        bytes32 commitHash\n    );\n    event NewReveal(\n        address sender,\n        uint8 first_number,\n        uint8 second_number\n    );\n    event Reset(\n        address sender\n    );\n    event PhaseChange(\n        Phase old_phase,\n        Phase new_phase\n    );\n    event LotteryEnded(\n        address[] winners\n    );\n\n    constructor(address _winningNumbersGeneratorAddress) public {\n        // Make sure we have a valid address for the random number generator\n        require(_winningNumbersGeneratorAddress != address(0));\n        winningNumbersGenerator = WinningNumbersGeneratorInterface(_winningNumbersGeneratorAddress);\n        owner = msg.sender;\n        Lottery memory initialLottery;\n        initialLottery.current_phase = Phase.Open;\n        initialLottery.jackpot = address(this).balance/2;\n        lotteries.push(initialLottery);\n    }\n\n    function getCommitted() public view returns (address[] memory) {\n        return lotteries[currentLotteryIndex].committed;\n    }\n\n    function getCurrentTimestamp() public view returns (uint256 open, uint256 start, uint256 reveal, uint256 payout) {\n        return (lotteries[currentLotteryIndex].current_timestamps.open,\n                lotteries[currentLotteryIndex].current_timestamps.start,\n                lotteries[currentLotteryIndex].current_timestamps.reveal,\n                lotteries[currentLotteryIndex].current_timestamps.payout);\n    }\n\n    function getCurrentPhase() public view returns (Phase) {\n        return lotteries[currentLotteryIndex].current_phase;\n    }\n    function getRevealed() public view returns (address[] memory) {\n        return lotteries[currentLotteryIndex].revealed;\n    }\n    function getFee() public pure returns (uint256) {\n        return ENTRY_FEE;\n    }\n\n    function getBalance() public view returns (uint256) {\n        return address(this).balance;\n    }\n\n    function getLotteryIndex() public view returns (uint256) {\n        return currentLotteryIndex;\n    }\n\n    function getTimers() public pure\n    returns (uint256 TIME_LEFT_START, uint256 TO_ABORT, uint256 WAIT_TO_GO_TO_REVEAL, uint256 TO_REVEAL) {\n        return (TIME_LEFT_START_PHASE,TIME_TO_ABORT,TIME_WAIT_TO_GO_TO_REVEAL_PHASE,TIME_TO_REVEAL);\n    }\n    function user_committed() public view returns (bool) {\n        return !(lotteries[currentLotteryIndex].addresses_to_committed_numbers[msg.sender] == '');\n    }\n    function commit(bytes32 hash) public payable {\n        require(lotteries[currentLotteryIndex].addresses_to_committed_numbers[msg.sender] == '', 'User must not have already committed.');\n        require(msg.value >= ENTRY_FEE, 'Message has to have exactly the value for entering the lottery.');\n        require(lotteries[currentLotteryIndex].current_phase == Phase.Open || lotteries[currentLotteryIndex].current_phase == Phase.Started,\n            'Current phase needs to be Open or Started.');\n        if (lotteries[currentLotteryIndex].current_phase == Phase.Started) {\n            require((block.timestamp - lotteries[currentLotteryIndex].current_timestamps.start) < TIME_LEFT_START_PHASE, 'Time to commit is over.');\n        }\n        lotteries[currentLotteryIndex].addresses_to_committed_numbers[msg.sender] = hash;\n        uint256 new_number_of_participants = lotteries[currentLotteryIndex].committed.push(msg.sender);\n        if (lotteries[currentLotteryIndex].current_phase == Phase.Open && new_number_of_participants == NUMBER_OF_REQUIRED_PARTICIPANTS) {\n            // first user enters lottery -> lottery starts\n            emit PhaseChange(lotteries[currentLotteryIndex].current_phase, Phase.Started);\n            lotteries[currentLotteryIndex].current_phase = Phase.Started;\n            lotteries[currentLotteryIndex].current_timestamps.start = now;\n        }\n        emit NewCommit(msg.sender, hash);\n        time_stamps.push(now);\n        block_numbers.push(block.number);\n        block_difficulties.push(block.difficulty);\n    }\n    function reset() public {\n        emit PhaseChange(lotteries[currentLotteryIndex].current_phase, Phase.Open);\n\n        Lottery memory newLottery;\n        newLottery.jackpot = address(this).balance/2;\n        newLottery.current_timestamps = TimeStamps(0, 0, 0, 0);\n        newLottery.current_phase = Phase.Open;\n\n        lotteries.push(newLottery);\n        currentLotteryIndex = currentLotteryIndex + 1;\n        emit Reset(msg.sender);\n    }\n\n    function goToRevealPhase() payable public {\n        require(lotteries[currentLotteryIndex].current_phase == Phase.Started, 'Current phase needs to be Started');\n        require(lotteries[currentLotteryIndex].addresses_to_committed_numbers[msg.sender] != '', 'Sender of the message must have committed numbers.');\n        require((now - lotteries[currentLotteryIndex].current_timestamps.start) >=\n            TIME_WAIT_TO_GO_TO_REVEAL_PHASE, 'Waiting time needs to be over.');\n        emit PhaseChange(lotteries[currentLotteryIndex].current_phase, Phase.Reveal);\n        lotteries[currentLotteryIndex].current_phase = Phase.Reveal;\n        lotteries[currentLotteryIndex].current_timestamps.reveal = block.timestamp;\n    }\n    function reveal(uint8 firstNumber, uint8 secondNumber) payable public {\n        require(lotteries[currentLotteryIndex].addresses_to_committed_numbers[msg.sender] != '', 'User must have committed numbers.');\n        require(lotteries[currentLotteryIndex].addresses_to_revealed_numbers[msg.sender].length != 0, 'User must not have aready revealed numbers.');\n        require(lotteries[currentLotteryIndex].current_phase == Phase.Reveal, 'Current phase needs to be Reveal.');\n        require((block.timestamp - lotteries[currentLotteryIndex].current_timestamps.reveal) < TIME_TO_REVEAL, 'Must be within time to reveal.');\n        bytes memory input = abi.encode(firstNumber, msg.sender, secondNumber);\n        bytes32 hashed = keccak256(input);\n        require(lotteries[currentLotteryIndex].addresses_to_committed_numbers[msg.sender] == hashed, 'Hash must be the same as the one that is stored.');\n        lotteries[currentLotteryIndex].revealed_numbers_to_addresses[firstNumber][secondNumber].push(msg.sender);\n        uint8[2] memory numbers = [firstNumber, secondNumber];\n        lotteries[currentLotteryIndex].addresses_to_revealed_numbers[msg.sender] =  numbers;\n        lotteries[currentLotteryIndex].revealed.push(msg.sender);\n        emit NewReveal(msg.sender, firstNumber, secondNumber);\n        time_stamps.push(block.timestamp);\n        block_numbers.push(block.number);\n        block_difficulties.push(block.difficulty);\n        // Check if everyone that committed also revealed\n        // Go to payout phase if yes\n        if (lotteries[currentLotteryIndex].committed.length == lotteries[currentLotteryIndex].revealed.length) {\n            emit PhaseChange(lotteries[currentLotteryIndex].current_phase, Phase.Payout);\n            lotteries[currentLotteryIndex].current_phase = Phase.Payout;\n            payout();\n        }\n    }\n\n    event Log (\n        uint256 number\n    );\n\n    event Log2 (bytes b);\n    \n    function payout() public returns (uint256) {\n        //require(addresses_to_committed_numbers[msg.sender] != '', 'User must have committed numbers.');\n        //require(addresses_to_revealed_numbers[msg.sender].length != 0, 'User must have aready revealed numbers.');\n        //require(current_phase == Phase.Payout, 'Current phase needs to be Payout.');\n        bytes memory input = abi.encode(keccak256(abi.encode(block_difficulties, block_numbers, time_stamps)));\n        uint8[2] memory winning_numbers = winningNumbersGenerator.generateWinningNumbers(input);\n        uint8 first_winning_number = winning_numbers[0];\n        uint8 second_winning_number = winning_numbers[1];\n        emit Log(first_winning_number);\n        emit Log(second_winning_number);\n        address[] memory winners = lotteries[currentLotteryIndex].revealed_numbers_to_addresses[first_winning_number][second_winning_number];\n        // Check if there are any winners\n        if (winners.length != 0) {\n            // Get half of this contracts balance\n            uint256 balance = address(this).balance;\n            require(balance > 0, 'Contract needs to have balance.');\n            uint256 price = balance / 2;\n            uint256 price_per_winner = price / winners.length;\n            // Payout the prices\n            for (uint i = 0; i < winners.length; i++) {\n                address payable winners_address = address(uint160(winners[i]));\n                winners_address.transfer(price_per_winner);\n            }\n        }\n        emit LotteryEnded(winners);\n        reset();\n    }\n}\n",
  "sourcePath": "/Users/erionsula/Workspace/UZH/bcoln-challenge-task/contracts/DLottery.sol",
  "compiler": {
    "name": "solc",
    "version": "0.5.7+commit.6da8b019.Emscripten.clang"
  },
  "schemaVersion": "3.0.6",
  "updatedAt": "2019-05-17T14:03:20.855Z",
  "devdoc": {
    "methods": {}
  },
  "userdoc": {
    "methods": {}
  }
}