{
  "contractName": "DLottery",
  "abi": [
    {
      "inputs": [
        {
          "name": "_winningNumbersGeneratorAddress",
          "type": "address"
        }
      ],
      "payable": false,
      "stateMutability": "nonpayable",
      "type": "constructor",
      "signature": "constructor"
    },
    {
      "anonymous": false,
      "inputs": [
        {
          "indexed": false,
          "name": "sender",
          "type": "address"
        },
        {
          "indexed": false,
          "name": "commitHash",
          "type": "bytes32"
        }
      ],
      "name": "NewCommit",
      "type": "event",
      "signature": "0x0290e16ca163280238cff6bd42c77cb055d3ff42239fe48bc5b8ec6edf5065c9"
    },
    {
      "anonymous": false,
      "inputs": [
        {
          "indexed": false,
          "name": "sender",
          "type": "address"
        },
        {
          "indexed": false,
          "name": "first_number",
          "type": "uint8"
        },
        {
          "indexed": false,
          "name": "second_number",
          "type": "uint8"
        }
      ],
      "name": "NewReveal",
      "type": "event",
      "signature": "0x5537213d56fcd58df8e4fa27754f5d1835653bde9364c0ffa2cb0519bc128e83"
    },
    {
      "anonymous": false,
      "inputs": [
        {
          "indexed": false,
          "name": "sender",
          "type": "address"
        }
      ],
      "name": "Reset",
      "type": "event",
      "signature": "0x162f46783fcc741c289a7af5bd16474ace09d7e8a9d5fe1ac0d37b12afc0ccac"
    },
    {
      "anonymous": false,
      "inputs": [
        {
          "indexed": false,
          "name": "old_phase",
          "type": "uint8"
        },
        {
          "indexed": false,
          "name": "new_phase",
          "type": "uint8"
        }
      ],
      "name": "PhaseChange",
      "type": "event",
      "signature": "0x5e45bf0703fe855c9fa7c44122b9f47ad1075a0cc5dc8ae88903470067cba7e5"
    },
    {
      "anonymous": false,
      "inputs": [
        {
          "indexed": false,
          "name": "winners",
          "type": "address[]"
        }
      ],
      "name": "LotteryEnded",
      "type": "event",
      "signature": "0x1364a66c10650b51f40fbdd70a9c9553915721688179be49b98ae5979b861839"
    },
    {
      "anonymous": false,
      "inputs": [
        {
          "indexed": false,
          "name": "number",
          "type": "uint256"
        }
      ],
      "name": "Log",
      "type": "event",
      "signature": "0x909c57d5c6ac08245cf2a6de3900e2b868513fa59099b92b27d8db823d92df9c"
    },
    {
      "anonymous": false,
      "inputs": [
        {
          "indexed": false,
          "name": "b",
          "type": "bytes"
        }
      ],
      "name": "Log2",
      "type": "event",
      "signature": "0x915f48adfca02dd572ace21b9436e8a30fe2ad97a0f67bee6ca400db6c7564e5"
    },
    {
      "constant": true,
      "inputs": [],
      "name": "getCommitted",
      "outputs": [
        {
          "name": "",
          "type": "address[]"
        }
      ],
      "payable": false,
      "stateMutability": "view",
      "type": "function",
      "signature": "0xb0a398ab"
    },
    {
      "constant": true,
      "inputs": [],
      "name": "getCurrentTimestamp",
      "outputs": [
        {
          "name": "commit",
          "type": "uint256"
        },
        {
          "name": "commit_and_ready_for_reveal",
          "type": "uint256"
        },
        {
          "name": "reveal",
          "type": "uint256"
        },
        {
          "name": "payout",
          "type": "uint256"
        }
      ],
      "payable": false,
      "stateMutability": "view",
      "type": "function",
      "signature": "0x6c9230db"
    },
    {
      "constant": true,
      "inputs": [],
      "name": "getCurrentPhase",
      "outputs": [
        {
          "name": "",
          "type": "uint8"
        }
      ],
      "payable": false,
      "stateMutability": "view",
      "type": "function",
      "signature": "0xa3a40ea5"
    },
    {
      "constant": true,
      "inputs": [],
      "name": "getRevealed",
      "outputs": [
        {
          "name": "",
          "type": "address[]"
        }
      ],
      "payable": false,
      "stateMutability": "view",
      "type": "function",
      "signature": "0x94cc4140"
    },
    {
      "constant": true,
      "inputs": [],
      "name": "getFee",
      "outputs": [
        {
          "name": "",
          "type": "uint256"
        }
      ],
      "payable": false,
      "stateMutability": "pure",
      "type": "function",
      "signature": "0xced72f87"
    },
    {
      "constant": true,
      "inputs": [],
      "name": "getBalance",
      "outputs": [
        {
          "name": "",
          "type": "uint256"
        }
      ],
      "payable": false,
      "stateMutability": "view",
      "type": "function",
      "signature": "0x12065fe0"
    },
    {
      "constant": true,
      "inputs": [],
      "name": "getTimers",
      "outputs": [
        {
          "name": "LEFT_COMMIT_AND_REVEAL",
          "type": "uint256"
        },
        {
          "name": "TO_ABORT",
          "type": "uint256"
        },
        {
          "name": "WAIT_TO_GO_TO_REVEAL_PHASE",
          "type": "uint256"
        },
        {
          "name": "TO_REVEAL",
          "type": "uint256"
        }
      ],
      "payable": false,
      "stateMutability": "pure",
      "type": "function",
      "signature": "0x66945574"
    },
    {
      "constant": true,
      "inputs": [],
      "name": "user_committed",
      "outputs": [
        {
          "name": "",
          "type": "bool"
        }
      ],
      "payable": false,
      "stateMutability": "view",
      "type": "function",
      "signature": "0x6a917cef"
    },
    {
      "constant": false,
      "inputs": [
        {
          "name": "hash",
          "type": "bytes32"
        }
      ],
      "name": "commit",
      "outputs": [],
      "payable": true,
      "stateMutability": "payable",
      "type": "function",
      "signature": "0xf14fcbc8"
    },
    {
      "constant": false,
      "inputs": [],
      "name": "reset",
      "outputs": [],
      "payable": false,
      "stateMutability": "nonpayable",
      "type": "function",
      "signature": "0xd826f88f"
    },
    {
      "constant": false,
      "inputs": [],
      "name": "goToRevealPhase",
      "outputs": [],
      "payable": true,
      "stateMutability": "payable",
      "type": "function",
      "signature": "0xaf38ac1e"
    },
    {
      "constant": false,
      "inputs": [
        {
          "name": "firstNumber",
          "type": "uint8"
        },
        {
          "name": "secondNumber",
          "type": "uint8"
        }
      ],
      "name": "reveal",
      "outputs": [],
      "payable": true,
      "stateMutability": "payable",
      "type": "function",
      "signature": "0xdfd61558"
    },
    {
      "constant": false,
      "inputs": [],
      "name": "payout",
      "outputs": [
        {
          "name": "",
          "type": "uint256"
        }
      ],
      "payable": false,
      "stateMutability": "nonpayable",
      "type": "function",
      "signature": "0x63bd1d4a"
    }
  ],
  "bytecode": "0x608060405260006001553480156200001657600080fd5b50604051602080620026d2833981018060405260208110156200003857600080fd5b8101908080519060200190929190505050600073ffffffffffffffffffffffffffffffffffffffff168173ffffffffffffffffffffffffffffffffffffffff1614156200008457600080fd5b80600260006101000a81548173ffffffffffffffffffffffffffffffffffffffff021916908373ffffffffffffffffffffffffffffffffffffffff16021790555033600360006101000a81548173ffffffffffffffffffffffffffffffffffffffff021916908373ffffffffffffffffffffffffffffffffffffffff160217905550620001106200026b565b6000816000019060038111156200012357fe5b908160038111156200013157fe5b8152505060023073ffffffffffffffffffffffffffffffffffffffff1631816200015757fe5b0481602001818152505060405180608001604052804281526020016000815260200160008152602001600081525081608001819052506000819080600181540180825580915050906001820390600052602060002090600b02016000909192909190915060008201518160000160006101000a81548160ff02191690836003811115620001e057fe5b02179055506020820151816001015560408201518160020190805190602001906200020d929190620002af565b5060608201518160030190805190602001906200022c929190620002af565b506080820151816007016000820151816000015560208201518160010155604082015181600201556060820151816003015550505050505050620003ac565b604051806101000160405280600060038111156200028557fe5b8152602001600081526020016060815260200160608152602001620002a96200033e565b81525090565b8280548282559060005260206000209081019282156200032b579160200282015b828111156200032a5782518260006101000a81548173ffffffffffffffffffffffffffffffffffffffff021916908373ffffffffffffffffffffffffffffffffffffffff16021790555091602001919060010190620002d0565b5b5090506200033a919062000366565b5090565b6040518060800160405280600081526020016000815260200160008152602001600081525090565b620003a991905b80821115620003a557600081816101000a81549073ffffffffffffffffffffffffffffffffffffffff0219169055506001016200036d565b5090565b90565b61231680620003bc6000396000f3fe6080604052600436106100df576000357c010000000000000000000000000000000000000000000000000000000090048063a3a40ea51161009c578063ced72f8711610076578063ced72f8714610304578063d826f88f1461032f578063dfd6155814610346578063f14fcbc814610384576100df565b8063a3a40ea514610255578063af38ac1e1461028e578063b0a398ab14610298576100df565b806312065fe0146100e457806363bd1d4a1461010f578063669455741461013a5780636a917cef1461017a5780636c9230db146101a957806394cc4140146101e9575b600080fd5b3480156100f057600080fd5b506100f96103b2565b6040518082815260200191505060405180910390f35b34801561011b57600080fd5b506101246103d1565b6040518082815260200191505060405180910390f35b34801561014657600080fd5b5061014f61095b565b6040518085815260200184815260200183815260200182815260200194505050505060405180910390f35b34801561018657600080fd5b5061018f610979565b604051808215151515815260200191505060405180910390f35b3480156101b557600080fd5b506101be6109e1565b6040518085815260200184815260200183815260200182815260200194505050505060405180910390f35b3480156101f557600080fd5b506101fe610a85565b6040518080602001828103825283818151815260200191508051906020019060200280838360005b83811015610241578082015181840152602081019050610226565b505050509050019250505060405180910390f35b34801561026157600080fd5b5061026a610b31565b6040518082600381111561027a57fe5b60ff16815260200191505060405180910390f35b610296610b65565b005b3480156102a457600080fd5b506102ad610e48565b6040518080602001828103825283818151815260200191508051906020019060200280838360005b838110156102f05780820151818401526020810190506102d5565b505050509050019250505060405180910390f35b34801561031057600080fd5b50610319610ef4565b6040518082815260200191505060405180910390f35b34801561033b57600080fd5b50610344610f04565b005b6103826004803603604081101561035c57600080fd5b81019080803560ff169060200190929190803560ff169060200190929190505050611151565b005b6103b06004803603602081101561039a57600080fd5b8101908080359060200190929190505050611919565b005b60003073ffffffffffffffffffffffffffffffffffffffff1631905090565b6000606060066005600460405160200180806020018060200180602001848103845287818154815260200191508054801561042b57602002820191906000526020600020905b815481526020019060010190808311610417575b5050848103835286818154815260200191508054801561046a57602002820191906000526020600020905b815481526020019060010190808311610456575b505084810382528581815481526020019150805480156104a957602002820191906000526020600020905b815481526020019060010190808311610495575b50509650505050505050604051602081830303815290604052805190602001206040516020018082815260200191505060405160208183030381529060405290506104f2611f28565b600260009054906101000a900473ffffffffffffffffffffffffffffffffffffffff1673ffffffffffffffffffffffffffffffffffffffff166315c4a99f836040518263ffffffff167c01000000000000000000000000000000000000000000000000000000000281526004018080602001828103825283818151815260200191508051906020019080838360005b8381101561059c578082015181840152602081019050610581565b50505050905090810190601f1680156105c95780820380516001836020036101000a031916815260200191505b5092505050604080518083038186803b1580156105e557600080fd5b505afa1580156105f9573d6000803e3d6000fd5b505050506040513d601f19601f82011682018060405250604081101561061e57600080fd5b8101908091905050905060008160006002811061063757fe5b6020020151905060008260016002811061064d57fe5b602002015190507f909c57d5c6ac08245cf2a6de3900e2b868513fa59099b92b27d8db823d92df9c82604051808260ff16815260200191505060405180910390a17f909c57d5c6ac08245cf2a6de3900e2b868513fa59099b92b27d8db823d92df9c81604051808260ff16815260200191505060405180910390a160606000600154815481106106d957fe5b90600052602060002090600b020160050160008460ff16815260200190815260200160002060008360ff16815260200190815260200160002080548060200260200160405190810160405280929190818152602001828054801561079257602002820191906000526020600020905b8160009054906101000a900473ffffffffffffffffffffffffffffffffffffffff1673ffffffffffffffffffffffffffffffffffffffff1681526020019060010190808311610748575b5050505050905060008151146108d35760003073ffffffffffffffffffffffffffffffffffffffff1631905060008111610834576040517f08c379a000000000000000000000000000000000000000000000000000000000815260040180806020018281038252601f8152602001807f436f6e7472616374206e6565647320746f20686176652062616c616e63652e0081525060200191505060405180910390fd5b60006002828161084057fe5b04905060008351828161084f57fe5b04905060008090505b84518110156108ce57600085828151811061086f57fe5b602002602001015190508073ffffffffffffffffffffffffffffffffffffffff166108fc849081150290604051600060405180830381858888f193505050501580156108bf573d6000803e3d6000fd5b50508080600101915050610858565b505050505b7f1364a66c10650b51f40fbdd70a9c9553915721688179be49b98ae5979b861839816040518080602001828103825283818151815260200191508051906020019060200280838360005b8381101561093857808201518184015260208101905061091d565b505050509050019250505060405180910390a1610953610f04565b505050505090565b600080600080603c610258600a610258935093509350935090919293565b60008060006001548154811061098b57fe5b90600052602060002090600b020160040160003373ffffffffffffffffffffffffffffffffffffffff1673ffffffffffffffffffffffffffffffffffffffff168152602001908152602001600020541415905090565b6000806000806000600154815481106109f657fe5b90600052602060002090600b020160070160000154600060015481548110610a1a57fe5b90600052602060002090600b020160070160010154600060015481548110610a3e57fe5b90600052602060002090600b020160070160020154600060015481548110610a6257fe5b90600052602060002090600b020160070160030154935093509350935090919293565b6060600060015481548110610a9657fe5b90600052602060002090600b0201600301805480602002602001604051908101604052809291908181526020018280548015610b2757602002820191906000526020600020905b8160009054906101000a900473ffffffffffffffffffffffffffffffffffffffff1673ffffffffffffffffffffffffffffffffffffffff1681526020019060010190808311610add575b5050505050905090565b60008060015481548110610b4157fe5b90600052602060002090600b020160000160009054906101000a900460ff16905090565b60016003811115610b7257fe5b600060015481548110610b8157fe5b90600052602060002090600b020160000160009054906101000a900460ff166003811115610bab57fe5b14610c01576040517f08c379a00000000000000000000000000000000000000000000000000000000081526004018080602001828103825260318152602001806121dc6031913960400191505060405180910390fd5b60008060015481548110610c1157fe5b90600052602060002090600b020160040160003373ffffffffffffffffffffffffffffffffffffffff1673ffffffffffffffffffffffffffffffffffffffff168152602001908152602001600020541415610cb7576040517f08c379a000000000000000000000000000000000000000000000000000000000815260040180806020018281038252603281526020018061220d6032913960400191505060405180910390fd5b600a600060015481548110610cc857fe5b90600052602060002090600b02016007016001015442031015610d53576040517f08c379a000000000000000000000000000000000000000000000000000000000815260040180806020018281038252601e8152602001807f57616974696e672074696d65206e6565647320746f206265206f7665722e000081525060200191505060405180910390fd5b7f5e45bf0703fe855c9fa7c44122b9f47ad1075a0cc5dc8ae88903470067cba7e5600060015481548110610d8357fe5b90600052602060002090600b020160000160009054906101000a900460ff16600260405180836003811115610db457fe5b60ff168152602001826003811115610dc857fe5b60ff1681526020019250505060405180910390a16002600060015481548110610ded57fe5b90600052602060002090600b020160000160006101000a81548160ff02191690836003811115610e1957fe5b021790555042600060015481548110610e2e57fe5b90600052602060002090600b020160070160020181905550565b6060600060015481548110610e5957fe5b90600052602060002090600b0201600201805480602002602001604051908101604052809291908181526020018280548015610eea57602002820191906000526020600020905b8160009054906101000a900473ffffffffffffffffffffffffffffffffffffffff1673ffffffffffffffffffffffffffffffffffffffff1681526020019060010190808311610ea0575b5050505050905090565b60006706f05b59d3b20000905090565b7f5e45bf0703fe855c9fa7c44122b9f47ad1075a0cc5dc8ae88903470067cba7e5600060015481548110610f3457fe5b90600052602060002090600b020160000160009054906101000a900460ff16600060405180836003811115610f6557fe5b60ff168152602001826003811115610f7957fe5b60ff1681526020019250505060405180910390a1610f95611f4a565b60023073ffffffffffffffffffffffffffffffffffffffff163181610fb657fe5b048160200181815250506040518060800160405280428152602001600081526020016000815260200160008152508160800181905250600081600001906003811115610ffe57fe5b9081600381111561100b57fe5b815250506000819080600181540180825580915050906001820390600052602060002090600b02016000909192909190915060008201518160000160006101000a81548160ff0219169083600381111561106157fe5b021790555060208201518160010155604082015181600201908051906020019061108c929190611f8b565b5060608201518160030190805190602001906110a9929190611f8b565b5060808201518160070160008201518160000155602082015181600101556040820151816002015560608201518160030155505050505060018054016001819055507f162f46783fcc741c289a7af5bd16474ace09d7e8a9d5fe1ac0d37b12afc0ccac33604051808273ffffffffffffffffffffffffffffffffffffffff1673ffffffffffffffffffffffffffffffffffffffff16815260200191505060405180910390a150565b6000806001548154811061116157fe5b90600052602060002090600b020160040160003373ffffffffffffffffffffffffffffffffffffffff1673ffffffffffffffffffffffffffffffffffffffff168152602001908152602001600020541415611207576040517f08c379a000000000000000000000000000000000000000000000000000000000815260040180806020018281038252602181526020018061229f6021913960400191505060405180910390fd5b6000806001548154811061121757fe5b90600052602060002090600b020160060160003373ffffffffffffffffffffffffffffffffffffffff1673ffffffffffffffffffffffffffffffffffffffff16815260200190815260200160002050600214156112bf576040517f08c379a000000000000000000000000000000000000000000000000000000000815260040180806020018281038252602b8152602001806122c0602b913960400191505060405180910390fd5b600260038111156112cc57fe5b6000600154815481106112db57fe5b90600052602060002090600b020160000160009054906101000a900460ff16600381111561130557fe5b1461135b576040517f08c379a000000000000000000000000000000000000000000000000000000000815260040180806020018281038252602181526020018061223f6021913960400191505060405180910390fd5b61025860006001548154811061136d57fe5b90600052602060002090600b0201600701600201544203106113f7576040517f08c379a000000000000000000000000000000000000000000000000000000000815260040180806020018281038252601e8152602001807f4d7573742062652077697468696e2074696d6520746f2072657665616c2e000081525060200191505060405180910390fd5b6060823383604051602001808460ff1660ff1681526020018373ffffffffffffffffffffffffffffffffffffffff1673ffffffffffffffffffffffffffffffffffffffff1681526020018260ff1660ff168152602001935050505060405160208183030381529060405290506000818051906020012090508060006001548154811061147f57fe5b90600052602060002090600b020160040160003373ffffffffffffffffffffffffffffffffffffffff1673ffffffffffffffffffffffffffffffffffffffff1681526020019081526020016000205414611524576040517f08c379a00000000000000000000000000000000000000000000000000000000081526004018080602001828103825260308152602001806121706030913960400191505060405180910390fd5b60006001548154811061153357fe5b90600052602060002090600b020160050160008560ff16815260200190815260200160002060008460ff1681526020019081526020016000203390806001815401808255809150509060018203906000526020600020016000909192909190916101000a81548173ffffffffffffffffffffffffffffffffffffffff021916908373ffffffffffffffffffffffffffffffffffffffff160217905550506115d8611f28565b60405180604001604052808660ff1660ff1681526020018560ff1660ff1681525090508060006001548154811061160b57fe5b90600052602060002090600b020160060160003373ffffffffffffffffffffffffffffffffffffffff1673ffffffffffffffffffffffffffffffffffffffff168152602001908152602001600020906002611667929190612015565b5060006001548154811061167757fe5b90600052602060002090600b02016003013390806001815401808255809150509060018203906000526020600020016000909192909190916101000a81548173ffffffffffffffffffffffffffffffffffffffff021916908373ffffffffffffffffffffffffffffffffffffffff160217905550507f5537213d56fcd58df8e4fa27754f5d1835653bde9364c0ffa2cb0519bc128e83338686604051808473ffffffffffffffffffffffffffffffffffffffff1673ffffffffffffffffffffffffffffffffffffffff1681526020018360ff1660ff1681526020018260ff1660ff168152602001935050505060405180910390a16004429080600181540180825580915050906001820390600052602060002001600090919290919091505550600543908060018154018082558091505090600182039060005260206000200160009091929091909150555060064490806001815401808255809150509060018203906000526020600020016000909192909190915055506000600154815481106117fe57fe5b90600052602060002090600b02016003018054905060006001548154811061182257fe5b90600052602060002090600b0201600201805490501415611912577f5e45bf0703fe855c9fa7c44122b9f47ad1075a0cc5dc8ae88903470067cba7e560006001548154811061186d57fe5b90600052602060002090600b020160000160009054906101000a900460ff1660036040518083600381111561189e57fe5b60ff1681526020018260038111156118b257fe5b60ff1681526020019250505060405180910390a160036000600154815481106118d757fe5b90600052602060002090600b020160000160006101000a81548160ff0219169083600381111561190357fe5b02179055506119106103d1565b505b5050505050565b6000806001548154811061192957fe5b90600052602060002090600b020160040160003373ffffffffffffffffffffffffffffffffffffffff1673ffffffffffffffffffffffffffffffffffffffff16815260200190815260200160002054146119ce576040517f08c379a000000000000000000000000000000000000000000000000000000000815260040180806020018281038252602581526020018061214b6025913960400191505060405180910390fd5b6706f05b59d3b20000341015611a2f576040517f08c379a000000000000000000000000000000000000000000000000000000000815260040180806020018281038252603f815260200180612260603f913960400191505060405180910390fd5b60006003811115611a3c57fe5b600060015481548110611a4b57fe5b90600052602060002090600b020160000160009054906101000a900460ff166003811115611a7557fe5b1480611ac4575060016003811115611a8957fe5b600060015481548110611a9857fe5b90600052602060002090600b020160000160009054906101000a900460ff166003811115611ac257fe5b145b611b19576040517f08c379a000000000000000000000000000000000000000000000000000000000815260040180806020018281038252603c8152602001806121a0603c913960400191505060405180910390fd5b60016003811115611b2657fe5b600060015481548110611b3557fe5b90600052602060002090600b020160000160009054906101000a900460ff166003811115611b5f57fe5b1415611c0157603c600060015481548110611b7657fe5b90600052602060002090600b020160070160010154420310611c00576040517f08c379a00000000000000000000000000000000000000000000000000000000081526004018080602001828103825260178152602001807f54696d6520746f20636f6d6d6974206973206f7665722e00000000000000000081525060200191505060405180910390fd5b5b80600060015481548110611c1157fe5b90600052602060002090600b020160040160003373ffffffffffffffffffffffffffffffffffffffff1673ffffffffffffffffffffffffffffffffffffffff1681526020019081526020016000208190555060008060015481548110611c7357fe5b90600052602060002090600b02016002013390806001815401808255809150509060018203906000526020600020016000909192909190916101000a81548173ffffffffffffffffffffffffffffffffffffffff021916908373ffffffffffffffffffffffffffffffffffffffff160217905550905060006003811115611cf657fe5b600060015481548110611d0557fe5b90600052602060002090600b020160000160009054906101000a900460ff166003811115611d2f57fe5b148015611d3c5750600181145b15611e35577f5e45bf0703fe855c9fa7c44122b9f47ad1075a0cc5dc8ae88903470067cba7e5600060015481548110611d7157fe5b90600052602060002090600b020160000160009054906101000a900460ff16600160405180836003811115611da257fe5b60ff168152602001826003811115611db657fe5b60ff1681526020019250505060405180910390a16001600060015481548110611ddb57fe5b90600052602060002090600b020160000160006101000a81548160ff02191690836003811115611e0757fe5b021790555042600060015481548110611e1c57fe5b90600052602060002090600b0201600701600101819055505b7f0290e16ca163280238cff6bd42c77cb055d3ff42239fe48bc5b8ec6edf5065c93383604051808373ffffffffffffffffffffffffffffffffffffffff1673ffffffffffffffffffffffffffffffffffffffff1681526020018281526020019250505060405180910390a16004429080600181540180825580915050906001820390600052602060002001600090919290919091505550600543908060018154018082558091505090600182039060005260206000200160009091929091909150555060064490806001815401808255809150509060018203906000526020600020016000909192909190915055505050565b6040518060400160405280600290602082028038833980820191505090505090565b60405180610100016040528060006003811115611f6357fe5b8152602001600081526020016060815260200160608152602001611f856120af565b81525090565b828054828255906000526020600020908101928215612004579160200282015b828111156120035782518260006101000a81548173ffffffffffffffffffffffffffffffffffffffff021916908373ffffffffffffffffffffffffffffffffffffffff16021790555091602001919060010190611fab565b5b50905061201191906120d7565b5090565b826002601f0160209004810192821561209e5791602002820160005b8382111561206f57835183826101000a81548160ff021916908360ff1602179055509260200192600101602081600001049283019260010302612031565b801561209c5782816101000a81549060ff021916905560010160208160000104928301926001030261206f565b505b5090506120ab919061211a565b5090565b6040518060800160405280600081526020016000815260200160008152602001600081525090565b61211791905b8082111561211357600081816101000a81549073ffffffffffffffffffffffffffffffffffffffff0219169055506001016120dd565b5090565b90565b61214791905b8082111561214357600081816101000a81549060ff021916905550600101612120565b5090565b9056fe55736572206d757374206e6f74206861766520616c726561647920636f6d6d69747465642e48617368206d757374206265207468652073616d6520617320746865206f6e6520746861742069732073746f7265642e43757272656e74207068617365206e6565647320746f20626520436f6d6d6974206f7220436f6d6d6974416e645265616479466f7252657665616c2e43757272656e74207068617365206e6565647320746f20626520436f6d6d6974416e645265616479466f7252657665616c53656e646572206f6620746865206d657373616765206d757374206861766520636f6d6d6974746564206e756d626572732e43757272656e74207068617365206e6565647320746f2062652052657665616c2e4d6573736167652068617320746f20686176652065786163746c79207468652076616c756520666f7220656e747279696e6720746865206c6f74746572792e55736572206d757374206861766520636f6d6d6974746564206e756d626572732e55736572206d757374206e6f742068617665206172656164792072657665616c6564206e756d626572732ea165627a7a72305820a4a7de8d030fba59a06752f82f53640775643bb582a4f2dfd116060d6589bf900029",
  "source": "pragma solidity ^0.5.7;\n\n// Interface of the random number generator\ncontract WinningNumbersGeneratorInterface {\n    function generateWinningNumbers(bytes memory input) public view returns (uint8[2] memory){}\n}\n\ncontract DLottery {\n    enum Phase { Commit, CommitAndReadyForReveal, Reveal, Payout }\n\n    struct Lottery {\n        Phase current_phase;\n        uint256 jackpot;\n        address[] committed;\n        address[] revealed;\n        mapping(address => bytes32) addresses_to_committed_numbers;\n        mapping(uint256 => mapping(uint256 => address[])) revealed_numbers_to_addresses;\n        mapping(address => uint8[2]) addresses_to_revealed_numbers;\n        TimeStamps current_timestamps;\n    }\n\n    Lottery[] lotteries;\n    uint256 currentLotteryIndex = 0;\n\n    WinningNumbersGeneratorInterface private winningNumbersGenerator;\n    //uint256 constant ENTRY_FEE = 581273793610390;\n    uint256 constant ENTRY_FEE = (1 ether)/2;\n    address owner;\n    uint256 constant TIME_LEFT_COMMIT_AND_REVEAL = 60; // 30 seconds\n    uint256 constant TIME_TO_ABORT =  10 * 60; // 10 minutes\n    uint256 constant TIME_WAIT_TO_GO_TO_REVEAL_PHASE = 10; // 30 seconds\n    uint256 constant TIME_TO_REVEAL = 10 * 60; // 10 minutes\n    uint256 constant NUMBER_OF_REQUIRED_PARTICIPANTS = 1;\n    uint256[] private time_stamps;\n    uint256[] private block_numbers;\n    uint256[] private block_difficulties;\n\n    // time stamps of when the phases were entered\n    struct TimeStamps {\n        uint256 commit;\n        uint256 commit_and_ready_for_reveal;\n        uint256 reveal;\n        uint256 payout;\n    }\n\n    event NewCommit(\n        address sender,\n        bytes32 commitHash\n    );\n    event NewReveal(\n        address sender,\n        uint8 first_number,\n        uint8 second_number\n    );\n    event Reset(\n        address sender\n    );\n    event PhaseChange(\n        Phase old_phase,\n        Phase new_phase\n    );\n    event LotteryEnded(\n        address[] winners\n    );\n\n    constructor(address _winningNumbersGeneratorAddress) public {\n        // Make sure we have a valid address for the random number generator\n        require(_winningNumbersGeneratorAddress != address(0));\n        winningNumbersGenerator = WinningNumbersGeneratorInterface(_winningNumbersGeneratorAddress);\n        owner = msg.sender;\n        Lottery memory initialLottery;\n        initialLottery.current_phase = Phase.Commit;\n        initialLottery.jackpot = address(this).balance/2;\n        initialLottery.current_timestamps = TimeStamps(block.timestamp, 0, 0, 0);\n        lotteries.push(initialLottery);\n    }\n\n    function getCommitted() public view returns (address[] memory) {\n        return lotteries[currentLotteryIndex].committed;\n    }\n\n    function getCurrentTimestamp() public view returns (uint256 commit, uint256 commit_and_ready_for_reveal, uint256 reveal, uint256 payout) {\n        return (lotteries[currentLotteryIndex].current_timestamps.commit,\n                lotteries[currentLotteryIndex].current_timestamps.commit_and_ready_for_reveal,\n                lotteries[currentLotteryIndex].current_timestamps.reveal,\n                lotteries[currentLotteryIndex].current_timestamps.payout);\n    }\n\n    function getCurrentPhase() public view returns (Phase) {\n        return lotteries[currentLotteryIndex].current_phase;\n    }\n    function getRevealed() public view returns (address[] memory) {\n        return lotteries[currentLotteryIndex].revealed;\n    }\n    function getFee() public pure returns (uint256) {\n        return ENTRY_FEE;\n    }\n\n    function getBalance() public view returns (uint256) {\n        return address(this).balance;\n    }\n\n    function getTimers() public pure\n    returns (uint256 LEFT_COMMIT_AND_REVEAL, uint256 TO_ABORT, uint256 WAIT_TO_GO_TO_REVEAL_PHASE, uint256 TO_REVEAL) {\n        return (TIME_LEFT_COMMIT_AND_REVEAL,TIME_TO_ABORT,TIME_WAIT_TO_GO_TO_REVEAL_PHASE,TIME_TO_REVEAL);\n    }\n    function user_committed() public view returns (bool) {\n        return !(lotteries[currentLotteryIndex].addresses_to_committed_numbers[msg.sender] == '');\n    }\n    function commit(bytes32 hash) public payable {\n        require(lotteries[currentLotteryIndex].addresses_to_committed_numbers[msg.sender] == '', 'User must not have already committed.');\n        require(msg.value >= ENTRY_FEE, 'Message has to have exactly the value for entrying the lottery.');\n        require(lotteries[currentLotteryIndex].current_phase == Phase.Commit || lotteries[currentLotteryIndex].current_phase == Phase.CommitAndReadyForReveal,\n            'Current phase needs to be Commit or CommitAndReadyForReveal.');\n        if (lotteries[currentLotteryIndex].current_phase == Phase.CommitAndReadyForReveal) {\n            require((block.timestamp - lotteries[currentLotteryIndex].current_timestamps.commit_and_ready_for_reveal) < TIME_LEFT_COMMIT_AND_REVEAL, 'Time to commit is over.');\n        }\n        lotteries[currentLotteryIndex].addresses_to_committed_numbers[msg.sender] = hash;\n        uint256 new_number_of_participants = lotteries[currentLotteryIndex].committed.push(msg.sender);\n        if (lotteries[currentLotteryIndex].current_phase == Phase.Commit && new_number_of_participants == NUMBER_OF_REQUIRED_PARTICIPANTS) {\n            // Automatically go to commit and ready to reveal phase\n            emit PhaseChange(lotteries[currentLotteryIndex].current_phase, Phase.CommitAndReadyForReveal);\n            lotteries[currentLotteryIndex].current_phase = Phase.CommitAndReadyForReveal;\n            lotteries[currentLotteryIndex].current_timestamps.commit_and_ready_for_reveal = now;\n        }\n        emit NewCommit(msg.sender, hash);\n        time_stamps.push(now);\n        block_numbers.push(block.number);\n        block_difficulties.push(block.difficulty);\n    }\n    function reset() public {\n        emit PhaseChange(lotteries[currentLotteryIndex].current_phase, Phase.Commit);\n\n        Lottery memory newLottery;\n        newLottery.jackpot = address(this).balance/2;\n        newLottery.current_timestamps = TimeStamps(block.timestamp, 0, 0, 0);\n        newLottery.current_phase = Phase.Commit;\n\n        lotteries.push(newLottery);\n        currentLotteryIndex = currentLotteryIndex + 1;\n        emit Reset(msg.sender);\n    }\n\n    function goToRevealPhase() payable public {\n        require(lotteries[currentLotteryIndex].current_phase == Phase.CommitAndReadyForReveal, 'Current phase needs to be CommitAndReadyForReveal');\n        require(lotteries[currentLotteryIndex].addresses_to_committed_numbers[msg.sender] != '', 'Sender of the message must have committed numbers.');\n        require((now - lotteries[currentLotteryIndex].current_timestamps.commit_and_ready_for_reveal) >=\n            TIME_WAIT_TO_GO_TO_REVEAL_PHASE, 'Waiting time needs to be over.');\n        emit PhaseChange(lotteries[currentLotteryIndex].current_phase, Phase.Reveal);\n        lotteries[currentLotteryIndex].current_phase = Phase.Reveal;\n        lotteries[currentLotteryIndex].current_timestamps.reveal = block.timestamp;\n    }\n    function reveal(uint8 firstNumber, uint8 secondNumber) payable public {\n        require(lotteries[currentLotteryIndex].addresses_to_committed_numbers[msg.sender] != '', 'User must have committed numbers.');\n        require(lotteries[currentLotteryIndex].addresses_to_revealed_numbers[msg.sender].length != 0, 'User must not have aready revealed numbers.');\n        require(lotteries[currentLotteryIndex].current_phase == Phase.Reveal, 'Current phase needs to be Reveal.');\n        require((block.timestamp - lotteries[currentLotteryIndex].current_timestamps.reveal) < TIME_TO_REVEAL, 'Must be within time to reveal.');\n        bytes memory input = abi.encode(firstNumber, msg.sender, secondNumber);\n        bytes32 hashed = keccak256(input);\n        require(lotteries[currentLotteryIndex].addresses_to_committed_numbers[msg.sender] == hashed, 'Hash must be the same as the one that is stored.');\n        lotteries[currentLotteryIndex].revealed_numbers_to_addresses[firstNumber][secondNumber].push(msg.sender);\n        uint8[2] memory numbers = [firstNumber, secondNumber];\n        lotteries[currentLotteryIndex].addresses_to_revealed_numbers[msg.sender] =  numbers;\n        lotteries[currentLotteryIndex].revealed.push(msg.sender);\n        emit NewReveal(msg.sender, firstNumber, secondNumber);\n        time_stamps.push(block.timestamp);\n        block_numbers.push(block.number);\n        block_difficulties.push(block.difficulty);\n        // Check if everyone that committed also revealed\n        // Go to payout phase if yes\n        if (lotteries[currentLotteryIndex].committed.length == lotteries[currentLotteryIndex].revealed.length) {\n            emit PhaseChange(lotteries[currentLotteryIndex].current_phase, Phase.Payout);\n            lotteries[currentLotteryIndex].current_phase = Phase.Payout;\n            payout();\n        }\n    }\n\n    event Log (\n        uint256 number\n    );\n\n    event Log2 (bytes b);\n    \n    function payout() public returns (uint256) {\n        //require(addresses_to_committed_numbers[msg.sender] != '', 'User must have committed numbers.');\n        //require(addresses_to_revealed_numbers[msg.sender].length != 0, 'User must have aready revealed numbers.');\n        //require(current_phase == Phase.Payout, 'Current phase needs to be Payout.');\n        bytes memory input = abi.encode(keccak256(abi.encode(block_difficulties, block_numbers, time_stamps)));\n        uint8[2] memory winning_numbers = winningNumbersGenerator.generateWinningNumbers(input);\n        uint8 first_winning_number = winning_numbers[0];\n        uint8 second_winning_number = winning_numbers[1];\n        emit Log(first_winning_number);\n        emit Log(second_winning_number);\n        address[] memory winners = lotteries[currentLotteryIndex].revealed_numbers_to_addresses[first_winning_number][second_winning_number];\n        // Check if there are any winners\n        if (winners.length != 0) {\n            // Get half of this contracts balance\n            uint256 balance = address(this).balance;\n            require(balance > 0, 'Contract needs to have balance.');\n            uint256 price = balance / 2;\n            uint256 price_per_winner = price / winners.length;\n            // Payout the prices\n            for (uint i = 0; i < winners.length; i++) {\n                address payable winners_address = address(uint160(winners[i]));\n                winners_address.transfer(price_per_winner);\n            }\n        }\n        emit LotteryEnded(winners);\n        reset();\n    }\n}\n",
  "sourcePath": "/Users/erionsula/Workspace/UZH/bcoln-challenge-task/contracts/DLottery.sol",
  "compiler": {
    "name": "solc",
    "version": "0.5.7+commit.6da8b019.Emscripten.clang"
  },
  "schemaVersion": "3.0.6",
  "updatedAt": "2019-05-14T12:21:42.339Z",
  "devdoc": {
    "methods": {}
  },
  "userdoc": {
    "methods": {}
  }
}