{
  "contractName": "WinningNumbersGeneratorInterface",
  "abi": [
    {
      "constant": true,
      "inputs": [
        {
          "name": "input",
          "type": "bytes"
        }
      ],
      "name": "generateWinningNumbers",
      "outputs": [
        {
          "name": "",
          "type": "uint8[2]"
        }
      ],
      "payable": false,
      "stateMutability": "view",
      "type": "function"
    }
  ],
  "bytecode": "0x608060405234801561001057600080fd5b5061019f806100206000396000f3fe608060405234801561001057600080fd5b5060043610610048576000357c01000000000000000000000000000000000000000000000000000000009004806315c4a99f1461004d575b600080fd5b6101066004803603602081101561006357600080fd5b810190808035906020019064010000000081111561008057600080fd5b82018360208201111561009257600080fd5b803590602001918460018302840111640100000000831117156100b457600080fd5b91908080601f016020809104026020016040519081016040528093929190818152602001838380828437600081840152601f19601f820116905080830192505050505050509192919290505050610144565b6040518082600260200280838360005b83811015610131578082015181840152602081019050610116565b5050505090500191505060405180910390f35b61014c610151565b919050565b604051806040016040528060029060208202803883398082019150509050509056fea165627a7a72305820061d2a28319b69cfb622244a0dbd9f1634782aa1d7994491ac73acc0fc6c254d0029",
  "source": "pragma solidity ^0.5.7;\n\n// Interface of the random number generator\ncontract WinningNumbersGeneratorInterface {\n    function generateWinningNumbers(bytes memory input) public view returns (uint8[2] memory){}\n}\n\ncontract DLottery {\n    enum Phase { Commit, CommitAndReadyForReveal, Reveal, Payout }\n\n    struct Lottery {\n        Phase current_phase;\n        uint256 jackpot;\n        address[] committed;\n        address[] revealed;\n        mapping(address => bytes32) addresses_to_committed_numbers;\n        mapping(uint256 => mapping(uint256 => address[])) revealed_numbers_to_addresses;\n        mapping(address => uint8[2]) addresses_to_revealed_numbers;\n        TimeStamps current_timestamps;\n    }\n\n    Lottery[] lotteries;\n    uint256 currentLotteryIndex = 0;\n\n    WinningNumbersGeneratorInterface private winningNumbersGenerator;\n    //uint256 constant ENTRY_FEE = 581273793610390;\n    uint256 constant ENTRY_FEE = (1 ether)/2;\n    address owner;\n    uint256 constant TIME_LEFT_COMMIT_AND_REVEAL = 60; // 30 seconds\n    uint256 constant TIME_TO_ABORT =  10 * 60; // 10 minutes\n    uint256 constant TIME_WAIT_TO_GO_TO_REVEAL_PHASE = 10; // 30 seconds\n    uint256 constant TIME_TO_REVEAL = 10 * 60; // 10 minutes\n    uint256 constant NUMBER_OF_REQUIRED_PARTICIPANTS = 1;\n    uint256[] private time_stamps;\n    uint256[] private block_numbers;\n    uint256[] private block_difficulties;\n\n    // time stamps of when the phases were entered\n    struct TimeStamps {\n        uint256 commit;\n        uint256 commit_and_ready_for_reveal;\n        uint256 reveal;\n        uint256 payout;\n    }\n\n    event NewCommit(\n        address sender,\n        bytes32 commitHash\n    );\n    event NewReveal(\n        address sender,\n        uint8 first_number,\n        uint8 second_number\n    );\n    event Reset(\n        address sender\n    );\n    event PhaseChange(\n        Phase old_phase,\n        Phase new_phase\n    );\n    event LotteryEnded(\n        address[] winners\n    );\n\n    constructor(address _winningNumbersGeneratorAddress) public {\n        // Make sure we have a valid address for the random number generator\n        require(_winningNumbersGeneratorAddress != address(0));\n        winningNumbersGenerator = WinningNumbersGeneratorInterface(_winningNumbersGeneratorAddress);\n        owner = msg.sender;\n        Lottery memory initialLottery;\n        initialLottery.current_phase = Phase.Commit;\n        initialLottery.jackpot = address(this).balance/2;\n        initialLottery.current_timestamps = TimeStamps(block.timestamp, 0, 0, 0);\n        lotteries.push(initialLottery);\n    }\n\n    function getCommitted() public view returns (address[] memory) {\n        return lotteries[currentLotteryIndex].committed;\n    }\n\n    function getCurrentTimestamp() public view returns (uint256 commit, uint256 commit_and_ready_for_reveal, uint256 reveal, uint256 payout) {\n        return (lotteries[currentLotteryIndex].current_timestamps.commit,\n                lotteries[currentLotteryIndex].current_timestamps.commit_and_ready_for_reveal,\n                lotteries[currentLotteryIndex].current_timestamps.reveal,\n                lotteries[currentLotteryIndex].current_timestamps.payout);\n    }\n\n    function getCurrentPhase() public view returns (Phase) {\n        return lotteries[currentLotteryIndex].current_phase;\n    }\n    function getRevealed() public view returns (address[] memory) {\n        return lotteries[currentLotteryIndex].revealed;\n    }\n    function getFee() public pure returns (uint256) {\n        return ENTRY_FEE;\n    }\n\n    function getBalance() public view returns (uint256) {\n        return address(this).balance;\n    }\n\n    function getJackpot() public view returns (uint256) {\n        return lotteries[currentLotteryIndex].jackpot;\n    }\n\n    function getTimers() public pure\n    returns (uint256 LEFT_COMMIT_AND_REVEAL, uint256 TO_ABORT, uint256 WAIT_TO_GO_TO_REVEAL_PHASE, uint256 TO_REVEAL) {\n        return (TIME_LEFT_COMMIT_AND_REVEAL,TIME_TO_ABORT,TIME_WAIT_TO_GO_TO_REVEAL_PHASE,TIME_TO_REVEAL);\n    }\n    function user_committed() public view returns (bool) {\n        return !(lotteries[currentLotteryIndex].addresses_to_committed_numbers[msg.sender] == '');\n    }\n    function commit(bytes32 hash) public payable {\n        require(lotteries[currentLotteryIndex].addresses_to_committed_numbers[msg.sender] == '', 'User must not have already committed.');\n        require(msg.value >= ENTRY_FEE, 'Message has to have exactly the value for entrying the lottery.');\n        require(lotteries[currentLotteryIndex].current_phase == Phase.Commit || lotteries[currentLotteryIndex].current_phase == Phase.CommitAndReadyForReveal,\n            'Current phase needs to be Commit or CommitAndReadyForReveal.');\n        if (lotteries[currentLotteryIndex].current_phase == Phase.CommitAndReadyForReveal) {\n            require((block.timestamp - lotteries[currentLotteryIndex].current_timestamps.commit_and_ready_for_reveal) < TIME_LEFT_COMMIT_AND_REVEAL, 'Time to commit is over.');\n        }\n        lotteries[currentLotteryIndex].addresses_to_committed_numbers[msg.sender] = hash;\n        uint256 new_number_of_participants = lotteries[currentLotteryIndex].committed.push(msg.sender);\n        if (lotteries[currentLotteryIndex].current_phase == Phase.Commit && new_number_of_participants == NUMBER_OF_REQUIRED_PARTICIPANTS) {\n            // Automatically go to commit and ready to reveal phase\n            emit PhaseChange(lotteries[currentLotteryIndex].current_phase, Phase.CommitAndReadyForReveal);\n            lotteries[currentLotteryIndex].current_phase = Phase.CommitAndReadyForReveal;\n            lotteries[currentLotteryIndex].current_timestamps.commit_and_ready_for_reveal = now;\n        }\n        emit NewCommit(msg.sender, hash);\n        time_stamps.push(now);\n        block_numbers.push(block.number);\n        block_difficulties.push(block.difficulty);\n    }\n    function reset() public {\n        emit PhaseChange(lotteries[currentLotteryIndex].current_phase, Phase.Commit);\n\n        Lottery memory newLottery;\n        newLottery.jackpot = address(this).balance/2;\n        newLottery.current_timestamps = TimeStamps(block.timestamp, 0, 0, 0);\n        newLottery.current_phase = Phase.Commit;\n\n        lotteries.push(newLottery);\n        currentLotteryIndex = currentLotteryIndex + 1;\n        emit Reset(msg.sender);\n    }\n\n    function goToRevealPhase() payable public {\n        require(lotteries[currentLotteryIndex].current_phase == Phase.CommitAndReadyForReveal, 'Current phase needs to be CommitAndReadyForReveal');\n        require(lotteries[currentLotteryIndex].addresses_to_committed_numbers[msg.sender] != '', 'Sender of the message must have committed numbers.');\n        require((now - lotteries[currentLotteryIndex].current_timestamps.commit_and_ready_for_reveal) >=\n            TIME_WAIT_TO_GO_TO_REVEAL_PHASE, 'Waiting time needs to be over.');\n        emit PhaseChange(lotteries[currentLotteryIndex].current_phase, Phase.Reveal);\n        lotteries[currentLotteryIndex].current_phase = Phase.Reveal;\n        lotteries[currentLotteryIndex].current_timestamps.reveal = block.timestamp;\n    }\n    function reveal(uint8 firstNumber, uint8 secondNumber) payable public {\n        require(lotteries[currentLotteryIndex].addresses_to_committed_numbers[msg.sender] != '', 'User must have committed numbers.');\n        require(lotteries[currentLotteryIndex].addresses_to_revealed_numbers[msg.sender].length != 0, 'User must not have aready revealed numbers.');\n        require(lotteries[currentLotteryIndex].current_phase == Phase.Reveal, 'Current phase needs to be Reveal.');\n        require((block.timestamp - lotteries[currentLotteryIndex].current_timestamps.reveal) < TIME_TO_REVEAL, 'Must be within time to reveal.');\n        bytes memory input = abi.encode(firstNumber, msg.sender, secondNumber);\n        bytes32 hashed = keccak256(input);\n        require(lotteries[currentLotteryIndex].addresses_to_committed_numbers[msg.sender] == hashed, 'Hash must be the same as the one that is stored.');\n        lotteries[currentLotteryIndex].revealed_numbers_to_addresses[firstNumber][secondNumber].push(msg.sender);\n        uint8[2] memory numbers = [firstNumber, secondNumber];\n        lotteries[currentLotteryIndex].addresses_to_revealed_numbers[msg.sender] =  numbers;\n        lotteries[currentLotteryIndex].revealed.push(msg.sender);\n        emit NewReveal(msg.sender, firstNumber, secondNumber);\n        time_stamps.push(block.timestamp);\n        block_numbers.push(block.number);\n        block_difficulties.push(block.difficulty);\n        // Check if everyone that committed also revealed\n        // Go to payout phase if yes\n        if (lotteries[currentLotteryIndex].committed.length == lotteries[currentLotteryIndex].revealed.length) {\n            emit PhaseChange(lotteries[currentLotteryIndex].current_phase, Phase.Payout);\n            lotteries[currentLotteryIndex].current_phase = Phase.Payout;\n            payout();\n        }\n    }\n\n    event Log (\n        uint256 number\n    );\n\n    event Log2 (bytes b);\n    \n    function payout() public returns (uint256) {\n        //require(addresses_to_committed_numbers[msg.sender] != '', 'User must have committed numbers.');\n        //require(addresses_to_revealed_numbers[msg.sender].length != 0, 'User must have aready revealed numbers.');\n        //require(current_phase == Phase.Payout, 'Current phase needs to be Payout.');\n        bytes memory input = abi.encode(keccak256(abi.encode(block_difficulties, block_numbers, time_stamps)));\n        uint8[2] memory winning_numbers = winningNumbersGenerator.generateWinningNumbers(input);\n        uint8 first_winning_number = winning_numbers[0];\n        uint8 second_winning_number = winning_numbers[1];\n        emit Log(first_winning_number);\n        emit Log(second_winning_number);\n        address[] memory winners = lotteries[currentLotteryIndex].revealed_numbers_to_addresses[first_winning_number][second_winning_number];\n        // Check if there are any winners\n        if (winners.length != 0) {\n            // Get half of this contracts balance\n            uint256 balance = address(this).balance;\n            require(balance > 0, 'Contract needs to have balance.');\n            uint256 price = balance / 2;\n            uint256 price_per_winner = price / winners.length;\n            // Payout the prices\n            for (uint i = 0; i < winners.length; i++) {\n                address payable winners_address = address(uint160(winners[i]));\n                winners_address.transfer(price_per_winner);\n            }\n        }\n        emit LotteryEnded(winners);\n        reset();\n    }\n}\n",
  "sourcePath": "/Users/erionsula/Workspace/UZH/bcoln-challenge-task/contracts/DLottery.sol",
  "compiler": {
    "name": "solc",
    "version": "0.5.7+commit.6da8b019.Emscripten.clang"
  },
  "schemaVersion": "3.0.6",
  "updatedAt": "2019-05-14T21:30:02.018Z",
  "devdoc": {
    "methods": {}
  },
  "userdoc": {
    "methods": {}
  }
}