{
  "contractName": "WinningNumbersGenerator",
  "abi": [
    {
      "constant": true,
      "inputs": [
        {
          "name": "input",
          "type": "bytes"
        }
      ],
      "name": "generateWinningNumbers",
      "outputs": [
        {
          "name": "winning_numbers",
          "type": "uint8[2]"
        }
      ],
      "payable": false,
      "stateMutability": "view",
      "type": "function",
      "signature": "0x15c4a99f"
    }
  ],
  "bytecode": "0x608060405234801561001057600080fd5b50610407806100206000396000f3fe608060405234801561001057600080fd5b5060043610610048576000357c01000000000000000000000000000000000000000000000000000000009004806315c4a99f1461004d575b600080fd5b6101066004803603602081101561006357600080fd5b810190808035906020019064010000000081111561008057600080fd5b82018360208201111561009257600080fd5b803590602001918460018302840111640100000000831117156100b457600080fd5b91908080601f016020809104026020016040519081016040528093929190818152602001838380828437600081840152601f19601f820116905080830192505050505050509192919290505050610144565b6040518082600260200280838360005b83811015610131578082015181840152602081019050610116565b5050505090500191505060405180910390f35b61014c6103b9565b606061018d610168600060018661027b9092919063ffffffff16565b6040518060400160405280601f8152602001600081525061030790919063ffffffff16565b905060606101d06101ab600160028761027b9092919063ffffffff16565b6040518060400160405280601f8152602001600081525061030790919063ffffffff16565b905060006101e860008461039190919063ffffffff16565b9050600061020060008461039190919063ffffffff16565b9050600160108360ff168161021157fe5b06019150600160108260ff168161022457fe5b060190508060ff168260ff1614156102535760108160ff16141561024b5760019050610252565b6001810190505b5b6040518060400160405280600160ff168152602001600260ff16815250945050505050919050565b60608183018451101561028d57600080fd5b60608215600081146102aa576040519150602082016040526102fb565b6040519150601f8416801560200281840101858101878315602002848b0101015b818310156102e857805183526020830192506020810190506102cb565b50868552601f19601f8301166040525050505b50809150509392505050565b6060806040519050835180825260208201818101602087015b8183101561033d5780518352602083019250602081019050610320565b50855192508351830184528091508282019050602086015b818310156103725780518352602083019250602081019050610355565b50601f19601f8851850115830101166040525050508091505092915050565b600060208201835110156103a457600080fd5b60008260208501015190508091505092915050565b604051806040016040528060029060208202803883398082019150509050509056fea165627a7a7230582030de8946420c99c622ddf08e42d652d0eb6b0c65c78358c4506b3fbe5027fa3c0029",
  "source": "pragma solidity ^0.5.7;\n\nimport \"solidity-bytes-utils/contracts/BytesLib.sol\";\n\ncontract WinningNumbersGenerator {\n    using BytesLib for bytes;\n    bytes constant padding = hex\"00000000000000000000000000000000000000000000000000000000000000\";\n    function generateWinningNumbers(bytes memory input) public view returns (uint8[2] memory winning_numbers) {\n        bytes memory b1 = padding.concat(input.slice(0, 1));\n        bytes memory b2 = padding.concat(input.slice(1, 2));\n        uint8 first_winning_number = uint8(b1.toUint(0));\n        uint8 second_winning_number = uint8(b2.toUint(0));\n        first_winning_number = first_winning_number%16+1;\n        second_winning_number = second_winning_number%16+1;\n        if (first_winning_number == second_winning_number) {\n            if (second_winning_number == 16) {\n                second_winning_number = 1;\n            } else{\n                second_winning_number = second_winning_number+1;\n            }\n        }\n        return [1, 2];\n    }\n}",
  "sourcePath": "/Users/erionsula/Workspace/UZH/bcoln-challenge-task/contracts/WinningNumbersGenerator.sol",
  "compiler": {
    "name": "solc",
    "version": "0.5.7+commit.6da8b019.Emscripten.clang"
  },
  "schemaVersion": "3.0.6",
  "updatedAt": "2019-05-17T12:22:07.264Z",
  "devdoc": {
    "methods": {}
  },
  "userdoc": {
    "methods": {}
  }
}