{
  "contractName": "DLottery",
  "abi": [
    {
      "constant": true,
      "inputs": [
        {
          "name": "",
          "type": "uint256"
        }
      ],
      "name": "revealed",
      "outputs": [
        {
          "name": "",
          "type": "address"
        }
      ],
      "payable": false,
      "stateMutability": "view",
      "type": "function",
      "signature": "0x61a2bc01"
    },
    {
      "constant": true,
      "inputs": [
        {
          "name": "",
          "type": "uint256"
        }
      ],
      "name": "committed",
      "outputs": [
        {
          "name": "",
          "type": "address"
        }
      ],
      "payable": false,
      "stateMutability": "view",
      "type": "function",
      "signature": "0x99bd9267"
    },
    {
      "constant": true,
      "inputs": [
        {
          "name": "",
          "type": "uint8"
        },
        {
          "name": "",
          "type": "uint8"
        },
        {
          "name": "",
          "type": "uint256"
        }
      ],
      "name": "revealed_numbers_to_addresses",
      "outputs": [
        {
          "name": "",
          "type": "address"
        }
      ],
      "payable": false,
      "stateMutability": "view",
      "type": "function",
      "signature": "0xb834e700"
    },
    {
      "constant": true,
      "inputs": [],
      "name": "current_phase",
      "outputs": [
        {
          "name": "",
          "type": "uint8"
        }
      ],
      "payable": false,
      "stateMutability": "view",
      "type": "function",
      "signature": "0xbb9c9d77"
    },
    {
      "constant": true,
      "inputs": [],
      "name": "current_timestamps",
      "outputs": [
        {
          "name": "commit",
          "type": "uint256"
        },
        {
          "name": "commit_and_ready_for_reveal",
          "type": "uint256"
        },
        {
          "name": "reveal",
          "type": "uint256"
        },
        {
          "name": "payout",
          "type": "uint256"
        }
      ],
      "payable": false,
      "stateMutability": "view",
      "type": "function",
      "signature": "0xd2ecf7bf"
    },
    {
      "inputs": [],
      "payable": false,
      "stateMutability": "nonpayable",
      "type": "constructor",
      "signature": "constructor"
    },
    {
      "anonymous": false,
      "inputs": [
        {
          "indexed": false,
          "name": "commitHash",
          "type": "bytes32"
        }
      ],
      "name": "NewCommit",
      "type": "event",
      "signature": "0x4c814836544403f119442f14c9c6a5e280086f71b0fbd8e77c39a5e97cfc64b8"
    },
    {
      "constant": true,
      "inputs": [],
      "name": "getCommitted",
      "outputs": [
        {
          "name": "",
          "type": "address[]"
        }
      ],
      "payable": false,
      "stateMutability": "view",
      "type": "function",
      "signature": "0xb0a398ab"
    },
    {
      "constant": true,
      "inputs": [],
      "name": "getRevealed",
      "outputs": [
        {
          "name": "",
          "type": "address[]"
        }
      ],
      "payable": false,
      "stateMutability": "view",
      "type": "function",
      "signature": "0x94cc4140"
    },
    {
      "constant": true,
      "inputs": [],
      "name": "getFee",
      "outputs": [
        {
          "name": "",
          "type": "uint256"
        }
      ],
      "payable": false,
      "stateMutability": "pure",
      "type": "function",
      "signature": "0xced72f87"
    },
    {
      "constant": false,
      "inputs": [
        {
          "name": "hash",
          "type": "bytes32"
        }
      ],
      "name": "commit",
      "outputs": [
        {
          "name": "",
          "type": "bytes32"
        }
      ],
      "payable": true,
      "stateMutability": "payable",
      "type": "function",
      "signature": "0xf14fcbc8"
    },
    {
      "constant": false,
      "inputs": [],
      "name": "abort",
      "outputs": [],
      "payable": false,
      "stateMutability": "nonpayable",
      "type": "function",
      "signature": "0x35a063b4"
    },
    {
      "constant": false,
      "inputs": [],
      "name": "goToRevealPhase",
      "outputs": [],
      "payable": false,
      "stateMutability": "nonpayable",
      "type": "function",
      "signature": "0xaf38ac1e"
    },
    {
      "constant": false,
      "inputs": [
        {
          "name": "firstNumber",
          "type": "uint8"
        },
        {
          "name": "secondNumber",
          "type": "uint8"
        }
      ],
      "name": "reveal",
      "outputs": [],
      "payable": false,
      "stateMutability": "nonpayable",
      "type": "function",
      "signature": "0xdfd61558"
    }
  ],
  "bytecode": "0x608060405234801561001057600080fd5b50336000806101000a81548173ffffffffffffffffffffffffffffffffffffffff021916908373ffffffffffffffffffffffffffffffffffffffff1602179055506000600560006101000a81548160ff0219169083600381111561007057fe5b021790555060405180608001604052804281526020016000815260200160008152602001600081525060066000820151816000015560208201518160010155604082015181600201556060820151816003015590505042600660000181905550611204806100df6000396000f3fe6080604052600436106100c4576000357c010000000000000000000000000000000000000000000000000000000090048063b834e70011610081578063b834e700146102c5578063bb9c9d771461035a578063ced72f8714610393578063d2ecf7bf146103be578063dfd61558146103fe578063f14fcbc814610449576100c4565b806335a063b4146100c957806361a2bc01146100e057806394cc41401461015b57806399bd9267146101c7578063af38ac1e14610242578063b0a398ab14610259575b600080fd5b3480156100d557600080fd5b506100de61048b565b005b3480156100ec57600080fd5b506101196004803603602081101561010357600080fd5b810190808035906020019092919050505061063b565b604051808273ffffffffffffffffffffffffffffffffffffffff1673ffffffffffffffffffffffffffffffffffffffff16815260200191505060405180910390f35b34801561016757600080fd5b50610170610677565b6040518080602001828103825283818151815260200191508051906020019060200280838360005b838110156101b3578082015181840152602081019050610198565b505050509050019250505060405180910390f35b3480156101d357600080fd5b50610200600480360360208110156101ea57600080fd5b8101908080359060200190929190505050610705565b604051808273ffffffffffffffffffffffffffffffffffffffff1673ffffffffffffffffffffffffffffffffffffffff16815260200191505060405180910390f35b34801561024e57600080fd5b50610257610741565b005b34801561026557600080fd5b5061026e610805565b6040518080602001828103825283818151815260200191508051906020019060200280838360005b838110156102b1578082015181840152602081019050610296565b505050509050019250505060405180910390f35b3480156102d157600080fd5b50610318600480360360608110156102e857600080fd5b81019080803560ff169060200190929190803560ff16906020019092919080359060200190929190505050610893565b604051808273ffffffffffffffffffffffffffffffffffffffff1673ffffffffffffffffffffffffffffffffffffffff16815260200191505060405180910390f35b34801561036657600080fd5b5061036f6108eb565b6040518082600381111561037f57fe5b60ff16815260200191505060405180910390f35b34801561039f57600080fd5b506103a86108fe565b6040518082815260200191505060405180910390f35b3480156103ca57600080fd5b506103d361090d565b6040518085815260200184815260200183815260200182815260200194505050505060405180910390f35b34801561040a57600080fd5b506104476004803603604081101561042157600080fd5b81019080803560ff169060200190929190803560ff16906020019092919050505061092b565b005b6104756004803603602081101561045f57600080fd5b8101908080359060200190929190505050610ad7565b6040518082815260200191505060405180910390f35b6000600560006101000a81548160ff021916908360038111156104aa57fe5b021790555060008090505b60018054905081101561054e57600060010260036000600184815481106104d857fe5b9060005260206000200160009054906101000a900473ffffffffffffffffffffffffffffffffffffffff1673ffffffffffffffffffffffffffffffffffffffff1673ffffffffffffffffffffffffffffffffffffffff1681526020019081526020016000208190555080806001019150506104b5565b506001600061055d9190611192565b6002600061056b9190611192565b60008090505b60108160ff1610156105e65760008090505b60108260ff1610156105d857600460008360ff1660ff16815260200190815260200160002060008260ff1660ff16815260200190815260200160002060006105cb9190611192565b8180600101925050610583565b508080600101915050610571565b5060405180608001604052806000815260200160008152602001600081526020016000815250600660008201518160000155602082015181600101556040820151816002015560608201518160030155905050565b6002818154811061064857fe5b906000526020600020016000915054906101000a900473ffffffffffffffffffffffffffffffffffffffff1681565b606060028054806020026020016040519081016040528092919081815260200182805480156106fb57602002820191906000526020600020905b8160009054906101000a900473ffffffffffffffffffffffffffffffffffffffff1673ffffffffffffffffffffffffffffffffffffffff16815260200190600101908083116106b1575b5050505050905090565b6001818154811061071257fe5b906000526020600020016000915054906101000a900473ffffffffffffffffffffffffffffffffffffffff1681565b6001600381111561074e57fe5b600560009054906101000a900460ff16600381111561076957fe5b1461077357600080fd5b6000600360003373ffffffffffffffffffffffffffffffffffffffff1673ffffffffffffffffffffffffffffffffffffffff1681526020019081526020016000205414156107c057600080fd5b600a600660010154420310156107d557600080fd5b6002600560006101000a81548160ff021916908360038111156107f457fe5b021790555042600660020181905550565b6060600180548060200260200160405190810160405280929190818152602001828054801561088957602002820191906000526020600020905b8160009054906101000a900473ffffffffffffffffffffffffffffffffffffffff1673ffffffffffffffffffffffffffffffffffffffff168152602001906001019080831161083f575b5050505050905090565b600460205282600052604060002060205281600052604060002081815481106108b857fe5b90600052602060002001600092509250509054906101000a900473ffffffffffffffffffffffffffffffffffffffff1681565b600560009054906101000a900460ff1681565b6000660210aa59fc4296905090565b60068060000154908060010154908060020154908060030154905084565b6000600360003373ffffffffffffffffffffffffffffffffffffffff1673ffffffffffffffffffffffffffffffffffffffff16815260200190815260200160002054141561097857600080fd5b6002600381111561098557fe5b600560009054906101000a900460ff1660038111156109a057fe5b146109aa57600080fd5b6102586006600201544203106109bf57600080fd5b60606109e46109cd84610d9b565b6109d633610e3b565b6109df85610d9b565b610f1f565b905060008180519060200120905080600360003373ffffffffffffffffffffffffffffffffffffffff1673ffffffffffffffffffffffffffffffffffffffff1681526020019081526020016000205414610a3d57600080fd5b600460008560ff1660ff16815260200190815260200160002060008460ff1660ff1681526020019081526020016000203390806001815401808255809150509060018203906000526020600020016000909192909190916101000a81548173ffffffffffffffffffffffffffffffffffffffff021916908373ffffffffffffffffffffffffffffffffffffffff1602179055505050505050565b600080600360003373ffffffffffffffffffffffffffffffffffffffff1673ffffffffffffffffffffffffffffffffffffffff1681526020019081526020016000205414610b8d576040517f08c379a00000000000000000000000000000000000000000000000000000000081526004018080602001828103825260118152602001807f416c726561647920636f6d6d697474656400000000000000000000000000000081525060200191505060405180910390fd5b660210aa59fc42963414610ba057600080fd5b60006003811115610bad57fe5b600560009054906101000a900460ff166003811115610bc857fe5b1480610bf9575060016003811115610bdc57fe5b600560009054906101000a900460ff166003811115610bf757fe5b145b610c0257600080fd5b60016003811115610c0f57fe5b600560009054906101000a900460ff166003811115610c2a57fe5b1415610c4557601e600660010154420310610c4457600080fd5b5b81600360003373ffffffffffffffffffffffffffffffffffffffff1673ffffffffffffffffffffffffffffffffffffffff16815260200190815260200160002081905550600060013390806001815401808255809150509060018203906000526020600020016000909192909190916101000a81548173ffffffffffffffffffffffffffffffffffffffff021916908373ffffffffffffffffffffffffffffffffffffffff160217905550905060006003811115610cff57fe5b600560009054906101000a900460ff166003811115610d1a57fe5b148015610d275750600181145b15610d5b576001600560006101000a81548160ff02191690836003811115610d4b57fe5b0217905550426006600101819055505b7f4c814836544403f119442f14c9c6a5e280086f71b0fbd8e77c39a5e97cfc64b8836040518082815260200191505060405180910390a182915050919050565b606060016040519080825280601f01601f191660200182016040528015610dd15781602001600182028038833980820191505090505b509050817f01000000000000000000000000000000000000000000000000000000000000000281600081518110610e0457fe5b60200101907effffffffffffffffffffffffffffffffffffffffffffffffffffffffffffff1916908160001a905350809050919050565b606060146040519080825280601f01601f191660200182016040528015610e715781602001600182028038833980820191505090505b50905060008090505b6014811015610f16578060130360080260020a8373ffffffffffffffffffffffffffffffffffffffff1681610eab57fe5b047f010000000000000000000000000000000000000000000000000000000000000002828281518110610eda57fe5b60200101907effffffffffffffffffffffffffffffffffffffffffffffffffffffffffffff1916908160001a9053508080600101915050610e7a565b50809050919050565b60608082518451865101016040519080825280601f01601f191660200182016040528015610f5c5781602001600182028038833980820191505090505b509050600080905060008090505b865181101561101957868181518110610f7f57fe5b60200101517f010000000000000000000000000000000000000000000000000000000000000090047f010000000000000000000000000000000000000000000000000000000000000002838381518110610fd557fe5b60200101907effffffffffffffffffffffffffffffffffffffffffffffffffffffffffffff1916908160001a90535081806001019250508080600101915050610f6a565b5060008090505b85518110156110cf5785818151811061103557fe5b60200101517f010000000000000000000000000000000000000000000000000000000000000090047f01000000000000000000000000000000000000000000000000000000000000000283838151811061108b57fe5b60200101907effffffffffffffffffffffffffffffffffffffffffffffffffffffffffffff1916908160001a90535081806001019250508080600101915050611020565b5060008090505b8451811015611185578481815181106110eb57fe5b60200101517f010000000000000000000000000000000000000000000000000000000000000090047f01000000000000000000000000000000000000000000000000000000000000000283838151811061114157fe5b60200101907effffffffffffffffffffffffffffffffffffffffffffffffffffffffffffff1916908160001a905350818060010192505080806001019150506110d6565b5081925050509392505050565b50805460008255906000526020600020908101906111b091906111b3565b50565b6111d591905b808211156111d15760008160009055506001016111b9565b5090565b9056fea165627a7a72305820301f23be10d10bf63850e2eef2cc0f4240e229d88196118b434ba1843187e8e30029",
  "source": "pragma solidity ^0.5.7;\n\ncontract DLottery {\n    \n    uint256 constant ENTRY_FEE = 581273793610390;\n    \n    address owner;\n    \n    address[] public committed;\n    address[] public revealed;\n    mapping(address => bytes32) private adresses_to_committed_numbers;\n    mapping(uint8 => mapping(uint8 => address[])) public revealed_numbers_to_addresses;\n    \n    uint256 constant TIME_LEFT_COMMIT_AND_REVEAL = 30; // 30 seconds\n    uint256 constant TIME_TO_ABORT =  10 * 60; // 10 minutes\n    uint256 constant TIME_WAIT_TO_GO_TO_REVEAL_PHASE = 10; // 30 seconds\n    uint256 constant TIME_TO_REVEAL = 10 * 60; // 10 minutes\n    \n    uint256 constant NUMBER_OF_REQUIRED_PARTICIPANTS = 1;\n    \n    enum Phase { Commit, CommitAndReadyForReveal, Reveal, Payout }\n    Phase public current_phase;\n    \n    // time stamps of when the phases were entered\n    struct TimeStamps {\n        uint256 commit;\n        uint256 commit_and_ready_for_reveal;\n        uint256 reveal;\n        uint256 payout;\n    }\n    \n    TimeStamps public current_timestamps;\n    \n    constructor() public {\n        owner = msg.sender;\n        current_phase = Phase.Commit;\n        current_timestamps = TimeStamps(now, 0, 0, 0);\n        current_timestamps.commit = now;\n    }\n    \n    function getCommitted() public view returns (address[] memory) {\n        return committed;\n    }\n    \n    function getRevealed() public view returns (address[] memory) {\n        return revealed;\n    }\n    \n    function getFee() pure public returns (uint256) {\n        return ENTRY_FEE;\n    }\n    \n    event NewCommit(\n       bytes32 commitHash\n    );\n    \n    function commit(bytes32 hash) payable public returns (bytes32) {\n        require(adresses_to_committed_numbers[msg.sender] == '', 'Already committed');\n        require(msg.value == ENTRY_FEE);\n        require(current_phase == Phase.Commit || current_phase == Phase.CommitAndReadyForReveal);\n        if (current_phase == Phase.CommitAndReadyForReveal) {\n            require((now - current_timestamps.commit_and_ready_for_reveal) < TIME_LEFT_COMMIT_AND_REVEAL);\n        }\n        adresses_to_committed_numbers[msg.sender] = hash;\n        uint256 new_number_of_participants = committed.push(msg.sender);\n        if (current_phase == Phase.Commit && new_number_of_participants == NUMBER_OF_REQUIRED_PARTICIPANTS) {\n            // Automatically go to commit and ready to reveal phase\n            current_phase = Phase.CommitAndReadyForReveal;\n            current_timestamps.commit_and_ready_for_reveal = now;\n        }\n        emit NewCommit(hash);\n        return hash;\n    }\n    \n    function abort() public {\n        current_phase = Phase.Commit;\n        for(uint i = 0; i < committed.length; i++) {\n            adresses_to_committed_numbers[committed[i]] = 0;\n        }\n        delete committed;\n        delete revealed;\n        for(uint8 i = 0; i < 16; i++) {\n            for(uint8 j = 0; i < 16; i++) {\n                delete revealed_numbers_to_addresses[i][j];\n            }\n        }\n        current_timestamps = TimeStamps(0, 0, 0, 0);\n    }\n    \n    function goToRevealPhase() public {\n        require(current_phase == Phase.CommitAndReadyForReveal);\n        require(adresses_to_committed_numbers[msg.sender] != '');\n        require((now - current_timestamps.commit_and_ready_for_reveal) >= TIME_WAIT_TO_GO_TO_REVEAL_PHASE);\n        current_phase = Phase.Reveal;\n        current_timestamps.reveal = now;\n    }\n    \n    function reveal(uint8 firstNumber, uint8 secondNumber) public {\n        require(adresses_to_committed_numbers[msg.sender] != '');\n        require(current_phase == Phase.Reveal);\n        require((now - current_timestamps.reveal) < TIME_TO_REVEAL);\n        bytes memory input = mergeBytes(toBytes(firstNumber), toBytes(msg.sender), toBytes(secondNumber));\n        bytes32 hash = keccak256(input);\n        require(adresses_to_committed_numbers[msg.sender] == hash);\n        revealed_numbers_to_addresses[firstNumber][secondNumber].push(msg.sender);\n    }\n    \n    function mergeBytes(bytes memory param1, bytes memory param2, bytes memory param3) private pure returns (bytes memory) {\n        bytes memory merged = new bytes(param1.length + param2.length + param3.length);\n    \n        uint k = 0;\n        for (uint i = 0; i < param1.length; i++) {\n            merged[k] = param1[i];\n            k++;\n        }\n    \n        for (uint i = 0; i < param2.length; i++) {\n            merged[k] = param2[i];\n            k++;\n        }\n        \n        for (uint i = 0; i < param3.length; i++) {\n            merged[k] = param3[i];\n            k++;\n        }\n        \n        return merged;\n    }\n    \n    function toBytes(uint8 x) private pure returns (bytes memory b) {\n        b = new bytes(1);\n        b[0] = byte(x);\n        return b;\n    }\n    \n    function toBytes(address x) private pure returns (bytes memory b) {\n        b = new bytes(20);\n        for (uint i = 0; i < 20; i++)\n            b[i] = byte(uint8(uint(x) / (2**(8*(19 - i)))));\n        return b;\n    }\n}\n    ",
  "sourcePath": "/Users/erionsula/Workspace/UZH/bcoln-challenge-task/src/contracts/DLottery_2.0.0.sol",
  "compiler": {
    "name": "solc",
    "version": "0.5.7+commit.6da8b019.Emscripten.clang"
  },
  "schemaVersion": "3.0.6",
  "updatedAt": "2019-04-23T18:50:27.582Z",
  "devdoc": {
    "methods": {}
  },
  "userdoc": {
    "methods": {}
  }
}