{
  "contractName": "DLottery",
  "abi": [
    {
      "constant": true,
      "inputs": [
        {
          "name": "",
          "type": "uint256"
        }
      ],
      "name": "revealed",
      "outputs": [
        {
          "name": "",
          "type": "address"
        }
      ],
      "payable": false,
      "stateMutability": "view",
      "type": "function",
      "signature": "0x61a2bc01"
    },
    {
      "constant": true,
      "inputs": [
        {
          "name": "",
          "type": "uint256"
        }
      ],
      "name": "committed",
      "outputs": [
        {
          "name": "",
          "type": "address"
        }
      ],
      "payable": false,
      "stateMutability": "view",
      "type": "function",
      "signature": "0x99bd9267"
    },
    {
      "constant": true,
      "inputs": [
        {
          "name": "",
          "type": "uint8"
        },
        {
          "name": "",
          "type": "uint8"
        },
        {
          "name": "",
          "type": "uint256"
        }
      ],
      "name": "revealed_numbers_to_addresses",
      "outputs": [
        {
          "name": "",
          "type": "address"
        }
      ],
      "payable": false,
      "stateMutability": "view",
      "type": "function",
      "signature": "0xb834e700"
    },
    {
      "constant": true,
      "inputs": [],
      "name": "current_phase",
      "outputs": [
        {
          "name": "",
          "type": "uint8"
        }
      ],
      "payable": false,
      "stateMutability": "view",
      "type": "function",
      "signature": "0xbb9c9d77"
    },
    {
      "constant": true,
      "inputs": [],
      "name": "current_timestamps",
      "outputs": [
        {
          "name": "commit",
          "type": "uint256"
        },
        {
          "name": "commit_and_ready_for_reveal",
          "type": "uint256"
        },
        {
          "name": "reveal",
          "type": "uint256"
        },
        {
          "name": "payout",
          "type": "uint256"
        }
      ],
      "payable": false,
      "stateMutability": "view",
      "type": "function",
      "signature": "0xd2ecf7bf"
    },
    {
      "inputs": [],
      "payable": false,
      "stateMutability": "nonpayable",
      "type": "constructor",
      "signature": "constructor"
    },
    {
      "anonymous": false,
      "inputs": [
        {
          "indexed": false,
          "name": "commitHash",
          "type": "bytes32"
        }
      ],
      "name": "NewCommit",
      "type": "event",
      "signature": "0x4c814836544403f119442f14c9c6a5e280086f71b0fbd8e77c39a5e97cfc64b8"
    },
    {
      "constant": true,
      "inputs": [],
      "name": "getCommitted",
      "outputs": [
        {
          "name": "",
          "type": "address[]"
        }
      ],
      "payable": false,
      "stateMutability": "view",
      "type": "function",
      "signature": "0xb0a398ab"
    },
    {
      "constant": true,
      "inputs": [],
      "name": "getRevealed",
      "outputs": [
        {
          "name": "",
          "type": "address[]"
        }
      ],
      "payable": false,
      "stateMutability": "view",
      "type": "function",
      "signature": "0x94cc4140"
    },
    {
      "constant": true,
      "inputs": [],
      "name": "getFee",
      "outputs": [
        {
          "name": "",
          "type": "uint256"
        }
      ],
      "payable": false,
      "stateMutability": "pure",
      "type": "function",
      "signature": "0xced72f87"
    },
    {
      "constant": true,
      "inputs": [],
      "name": "getTimers",
      "outputs": [
        {
          "name": "LEFT_COMMIT_AND_REVEAL",
          "type": "uint256"
        },
        {
          "name": "TO_ABORT",
          "type": "uint256"
        },
        {
          "name": "WAIT_TO_GO_TO_REVEAL_PHASE",
          "type": "uint256"
        },
        {
          "name": "TO_REVEAL",
          "type": "uint256"
        }
      ],
      "payable": false,
      "stateMutability": "view",
      "type": "function",
      "signature": "0x66945574"
    },
    {
      "constant": false,
      "inputs": [
        {
          "name": "hash",
          "type": "bytes32"
        }
      ],
      "name": "commit",
      "outputs": [
        {
          "name": "",
          "type": "bytes32"
        }
      ],
      "payable": true,
      "stateMutability": "payable",
      "type": "function",
      "signature": "0xf14fcbc8"
    },
    {
      "constant": false,
      "inputs": [],
      "name": "abort",
      "outputs": [],
      "payable": false,
      "stateMutability": "nonpayable",
      "type": "function",
      "signature": "0x35a063b4"
    },
    {
      "constant": false,
      "inputs": [],
      "name": "goToRevealPhase",
      "outputs": [],
      "payable": true,
      "stateMutability": "payable",
      "type": "function",
      "signature": "0xaf38ac1e"
    },
    {
      "constant": false,
      "inputs": [
        {
          "name": "firstNumber",
          "type": "uint8"
        },
        {
          "name": "secondNumber",
          "type": "uint8"
        }
      ],
      "name": "reveal",
      "outputs": [],
      "payable": true,
      "stateMutability": "payable",
      "type": "function",
      "signature": "0xdfd61558"
    }
  ],
  "bytecode": "0x608060405234801561001057600080fd5b50336000806101000a81548173ffffffffffffffffffffffffffffffffffffffff021916908373ffffffffffffffffffffffffffffffffffffffff1602179055506000600560006101000a81548160ff0219169083600381111561007057fe5b02179055506040518060800160405280428152602001600081526020016000815260200160008152506006600082015181600001556020820151816001015560408201518160020155606082015181600301559050504260066000018190555061133a806100df6000396000f3fe6080604052600436106100df576000357c010000000000000000000000000000000000000000000000000000000090048063b0a398ab1161009c578063ced72f8711610076578063ced72f87146103e1578063d2ecf7bf1461040c578063dfd615581461044c578063f14fcbc81461048a576100df565b8063b0a398ab146102a7578063b834e70014610313578063bb9c9d77146103a8576100df565b806335a063b4146100e457806361a2bc01146100fb578063669455741461017657806394cc4140146101b657806399bd926714610222578063af38ac1e1461029d575b600080fd5b3480156100f057600080fd5b506100f96104cc565b005b34801561010757600080fd5b506101346004803603602081101561011e57600080fd5b81019080803590602001909291905050506106e7565b604051808273ffffffffffffffffffffffffffffffffffffffff1673ffffffffffffffffffffffffffffffffffffffff16815260200191505060405180910390f35b34801561018257600080fd5b5061018b610723565b6040518085815260200184815260200183815260200182815260200194505050505060405180910390f35b3480156101c257600080fd5b506101cb610741565b6040518080602001828103825283818151815260200191508051906020019060200280838360005b8381101561020e5780820151818401526020810190506101f3565b505050509050019250505060405180910390f35b34801561022e57600080fd5b5061025b6004803603602081101561024557600080fd5b81019080803590602001909291905050506107cf565b604051808273ffffffffffffffffffffffffffffffffffffffff1673ffffffffffffffffffffffffffffffffffffffff16815260200191505060405180910390f35b6102a561080b565b005b3480156102b357600080fd5b506102bc61093b565b6040518080602001828103825283818151815260200191508051906020019060200280838360005b838110156102ff5780820151818401526020810190506102e4565b505050509050019250505060405180910390f35b34801561031f57600080fd5b506103666004803603606081101561033657600080fd5b81019080803560ff169060200190929190803560ff169060200190929190803590602001909291905050506109c9565b604051808273ffffffffffffffffffffffffffffffffffffffff1673ffffffffffffffffffffffffffffffffffffffff16815260200191505060405180910390f35b3480156103b457600080fd5b506103bd610a21565b604051808260038111156103cd57fe5b60ff16815260200191505060405180910390f35b3480156103ed57600080fd5b506103f6610a34565b6040518082815260200191505060405180910390f35b34801561041857600080fd5b50610421610a43565b6040518085815260200184815260200183815260200182815260200194505050505060405180910390f35b6104886004803603604081101561046257600080fd5b81019080803560ff169060200190929190803560ff169060200190929190505050610a61565b005b6104b6600480360360208110156104a057600080fd5b8101908080359060200190929190505050610c0d565b6040518082815260200191505060405180910390f35b6000600560006101000a81548160ff021916908360038111156104eb57fe5b021790555060008090505b60018054905081101561058f576000600102600360006001848154811061051957fe5b9060005260206000200160009054906101000a900473ffffffffffffffffffffffffffffffffffffffff1673ffffffffffffffffffffffffffffffffffffffff1673ffffffffffffffffffffffffffffffffffffffff1681526020019081526020016000208190555080806001019150506104f6565b506001600061059e91906112c8565b600260006105ac91906112c8565b60008090505b60108160ff1610156106275760008090505b60108260ff16101561061957600460008360ff1660ff16815260200190815260200160002060008260ff1660ff168152602001908152602001600020600061060c91906112c8565b81806001019250506105c4565b5080806001019150506105b2565b506040518060800160405280428152602001600081526020016000815260200160008152506006600082015181600001556020820151816001015560408201518160020155606082015181600301559050507f4c814836544403f119442f14c9c6a5e280086f71b0fbd8e77c39a5e97cfc64b860405180807f7265736574000000000000000000000000000000000000000000000000000000815250600501905060405180910390206040518082815260200191505060405180910390a1565b600281815481106106f457fe5b906000526020600020016000915054906101000a900473ffffffffffffffffffffffffffffffffffffffff1681565b600080600080603c610258603c610258935093509350935090919293565b606060028054806020026020016040519081016040528092919081815260200182805480156107c557602002820191906000526020600020905b8160009054906101000a900473ffffffffffffffffffffffffffffffffffffffff1673ffffffffffffffffffffffffffffffffffffffff168152602001906001019080831161077b575b5050505050905090565b600181815481106107dc57fe5b906000526020600020016000915054906101000a900473ffffffffffffffffffffffffffffffffffffffff1681565b6001600381111561081857fe5b600560009054906101000a900460ff16600381111561083357fe5b1461083d57600080fd5b6000600360003373ffffffffffffffffffffffffffffffffffffffff1673ffffffffffffffffffffffffffffffffffffffff16815260200190815260200160002054141561088a57600080fd5b603c6006600101544203101561089f57600080fd5b6002600560006101000a81548160ff021916908360038111156108be57fe5b0217905550426006600201819055507f4c814836544403f119442f14c9c6a5e280086f71b0fbd8e77c39a5e97cfc64b860405180807f7265736574000000000000000000000000000000000000000000000000000000815250600501905060405180910390206040518082815260200191505060405180910390a1565b606060018054806020026020016040519081016040528092919081815260200182805480156109bf57602002820191906000526020600020905b8160009054906101000a900473ffffffffffffffffffffffffffffffffffffffff1673ffffffffffffffffffffffffffffffffffffffff1681526020019060010190808311610975575b5050505050905090565b600460205282600052604060002060205281600052604060002081815481106109ee57fe5b90600052602060002001600092509250509054906101000a900473ffffffffffffffffffffffffffffffffffffffff1681565b600560009054906101000a900460ff1681565b6000660210aa59fc4296905090565b60068060000154908060010154908060020154908060030154905084565b6000600360003373ffffffffffffffffffffffffffffffffffffffff1673ffffffffffffffffffffffffffffffffffffffff168152602001908152602001600020541415610aae57600080fd5b60026003811115610abb57fe5b600560009054906101000a900460ff166003811115610ad657fe5b14610ae057600080fd5b610258600660020154420310610af557600080fd5b6060610b1a610b0384610ed1565b610b0c33610f71565b610b1585610ed1565b611055565b905060008180519060200120905080600360003373ffffffffffffffffffffffffffffffffffffffff1673ffffffffffffffffffffffffffffffffffffffff1681526020019081526020016000205414610b7357600080fd5b600460008560ff1660ff16815260200190815260200160002060008460ff1660ff1681526020019081526020016000203390806001815401808255809150509060018203906000526020600020016000909192909190916101000a81548173ffffffffffffffffffffffffffffffffffffffff021916908373ffffffffffffffffffffffffffffffffffffffff1602179055505050505050565b600080600360003373ffffffffffffffffffffffffffffffffffffffff1673ffffffffffffffffffffffffffffffffffffffff1681526020019081526020016000205414610cc3576040517f08c379a00000000000000000000000000000000000000000000000000000000081526004018080602001828103825260118152602001807f416c726561647920636f6d6d697474656400000000000000000000000000000081525060200191505060405180910390fd5b660210aa59fc42963414610cd657600080fd5b60006003811115610ce357fe5b600560009054906101000a900460ff166003811115610cfe57fe5b1480610d2f575060016003811115610d1257fe5b600560009054906101000a900460ff166003811115610d2d57fe5b145b610d3857600080fd5b60016003811115610d4557fe5b600560009054906101000a900460ff166003811115610d6057fe5b1415610d7b57603c600660010154420310610d7a57600080fd5b5b81600360003373ffffffffffffffffffffffffffffffffffffffff1673ffffffffffffffffffffffffffffffffffffffff16815260200190815260200160002081905550600060013390806001815401808255809150509060018203906000526020600020016000909192909190916101000a81548173ffffffffffffffffffffffffffffffffffffffff021916908373ffffffffffffffffffffffffffffffffffffffff160217905550905060006003811115610e3557fe5b600560009054906101000a900460ff166003811115610e5057fe5b148015610e5d5750600181145b15610e91576001600560006101000a81548160ff02191690836003811115610e8157fe5b0217905550426006600101819055505b7f4c814836544403f119442f14c9c6a5e280086f71b0fbd8e77c39a5e97cfc64b8836040518082815260200191505060405180910390a182915050919050565b606060016040519080825280601f01601f191660200182016040528015610f075781602001600182028038833980820191505090505b509050817f01000000000000000000000000000000000000000000000000000000000000000281600081518110610f3a57fe5b60200101907effffffffffffffffffffffffffffffffffffffffffffffffffffffffffffff1916908160001a905350809050919050565b606060146040519080825280601f01601f191660200182016040528015610fa75781602001600182028038833980820191505090505b50905060008090505b601481101561104c578060130360080260020a8373ffffffffffffffffffffffffffffffffffffffff1681610fe157fe5b047f01000000000000000000000000000000000000000000000000000000000000000282828151811061101057fe5b60200101907effffffffffffffffffffffffffffffffffffffffffffffffffffffffffffff1916908160001a9053508080600101915050610fb0565b50809050919050565b60608082518451865101016040519080825280601f01601f1916602001820160405280156110925781602001600182028038833980820191505090505b509050600080905060008090505b865181101561114f578681815181106110b557fe5b60200101517f010000000000000000000000000000000000000000000000000000000000000090047f01000000000000000000000000000000000000000000000000000000000000000283838151811061110b57fe5b60200101907effffffffffffffffffffffffffffffffffffffffffffffffffffffffffffff1916908160001a905350818060010192505080806001019150506110a0565b5060008090505b85518110156112055785818151811061116b57fe5b60200101517f010000000000000000000000000000000000000000000000000000000000000090047f0100000000000000000000000000000000000000000000000000000000000000028383815181106111c157fe5b60200101907effffffffffffffffffffffffffffffffffffffffffffffffffffffffffffff1916908160001a90535081806001019250508080600101915050611156565b5060008090505b84518110156112bb5784818151811061122157fe5b60200101517f010000000000000000000000000000000000000000000000000000000000000090047f01000000000000000000000000000000000000000000000000000000000000000283838151811061127757fe5b60200101907effffffffffffffffffffffffffffffffffffffffffffffffffffffffffffff1916908160001a9053508180600101925050808060010191505061120c565b5081925050509392505050565b50805460008255906000526020600020908101906112e691906112e9565b50565b61130b91905b808211156113075760008160009055506001016112ef565b5090565b9056fea165627a7a72305820678ec0f4d4152a4082308d27012803b7f97031972e6787f7dc0f498d66c4e5fc0029",
  "source": "pragma solidity ^0.5.7;\n\ncontract DLottery {\n    \n    uint256 constant ENTRY_FEE = 581273793610390;\n    \n    address owner;\n    \n    address[] public committed;\n    address[] public revealed;\n    mapping(address => bytes32) private adresses_to_committed_numbers;\n    mapping(uint8 => mapping(uint8 => address[])) public revealed_numbers_to_addresses;\n    \n    uint256 constant TIME_LEFT_COMMIT_AND_REVEAL = 60; // 30 seconds\n    uint256 constant TIME_TO_ABORT =  10 * 60; // 10 minutes\n    uint256 constant TIME_WAIT_TO_GO_TO_REVEAL_PHASE = 60; // 30 seconds\n    uint256 constant TIME_TO_REVEAL = 10 * 60; // 10 minutes\n    \n    uint256 constant NUMBER_OF_REQUIRED_PARTICIPANTS = 1;\n    \n    enum Phase { Commit, CommitAndReadyForReveal, Reveal, Payout }\n    Phase public current_phase;\n    \n    // time stamps of when the phases were entered\n    struct TimeStamps {\n        uint256 commit;\n        uint256 commit_and_ready_for_reveal;\n        uint256 reveal;\n        uint256 payout;\n    }\n    \n    TimeStamps public current_timestamps;\n    \n    constructor() public {\n        owner = msg.sender;\n        current_phase = Phase.Commit;\n        current_timestamps = TimeStamps(now, 0, 0, 0);\n        current_timestamps.commit = now;\n    }\n    \n    function getCommitted() public view returns (address[] memory) {\n        return committed;\n    }\n    \n    function getRevealed() public view returns (address[] memory) {\n        return revealed;\n    }\n    \n    function getFee() pure public returns (uint256) {\n        return ENTRY_FEE;\n    }\n\n    function getTimers() public view returns (uint256 LEFT_COMMIT_AND_REVEAL, uint256 TO_ABORT, uint256 WAIT_TO_GO_TO_REVEAL_PHASE, uint256 TO_REVEAL){\n        return (TIME_LEFT_COMMIT_AND_REVEAL,TIME_TO_ABORT,TIME_WAIT_TO_GO_TO_REVEAL_PHASE,TIME_TO_REVEAL);\n    }\n    \n    event NewCommit(\n       bytes32 commitHash\n    );\n    \n    function commit(bytes32 hash) payable public returns (bytes32) {\n        require(adresses_to_committed_numbers[msg.sender] == '', 'Already committed');\n        require(msg.value == ENTRY_FEE);\n        require(current_phase == Phase.Commit || current_phase == Phase.CommitAndReadyForReveal);\n        if (current_phase == Phase.CommitAndReadyForReveal) {\n            require((now - current_timestamps.commit_and_ready_for_reveal) < TIME_LEFT_COMMIT_AND_REVEAL);\n        }\n        adresses_to_committed_numbers[msg.sender] = hash;\n        uint256 new_number_of_participants = committed.push(msg.sender);\n        if (current_phase == Phase.Commit && new_number_of_participants == NUMBER_OF_REQUIRED_PARTICIPANTS) {\n            // Automatically go to commit and ready to reveal phase\n            current_phase = Phase.CommitAndReadyForReveal;\n            current_timestamps.commit_and_ready_for_reveal = now;\n        }\n        emit NewCommit(hash);\n        return hash;\n    }\n    \n    function abort() public {\n        current_phase = Phase.Commit;\n        for(uint i = 0; i < committed.length; i++) {\n            adresses_to_committed_numbers[committed[i]] = 0;\n        }\n        delete committed;\n        delete revealed;\n        for(uint8 i = 0; i < 16; i++) {\n            for(uint8 j = 0; i < 16; i++) {\n                delete revealed_numbers_to_addresses[i][j];\n            }\n        }\n        current_timestamps = TimeStamps(now, 0, 0, 0);\n        emit NewCommit(keccak256(\"reset\"));\n\n    }\n    \n    function goToRevealPhase() payable public {\n        require(current_phase == Phase.CommitAndReadyForReveal);\n        require(adresses_to_committed_numbers[msg.sender] != '');\n        require((now - current_timestamps.commit_and_ready_for_reveal) >= TIME_WAIT_TO_GO_TO_REVEAL_PHASE);\n        current_phase = Phase.Reveal;\n        current_timestamps.reveal = now;\n        emit NewCommit(keccak256(\"reset\"));\n\n    }\n    \n    function reveal(uint8 firstNumber, uint8 secondNumber) payable public {\n        require(adresses_to_committed_numbers[msg.sender] != '');\n        require(current_phase == Phase.Reveal);\n        require((now - current_timestamps.reveal) < TIME_TO_REVEAL);\n        bytes memory input = mergeBytes(toBytes(firstNumber), toBytes(msg.sender), toBytes(secondNumber));\n        bytes32 hash = keccak256(input);\n        require(adresses_to_committed_numbers[msg.sender] == hash);\n        revealed_numbers_to_addresses[firstNumber][secondNumber].push(msg.sender);\n    }\n    \n    function mergeBytes(bytes memory param1, bytes memory param2, bytes memory param3) private pure returns (bytes memory) {\n        bytes memory merged = new bytes(param1.length + param2.length + param3.length);\n    \n        uint k = 0;\n        for (uint i = 0; i < param1.length; i++) {\n            merged[k] = param1[i];\n            k++;\n        }\n    \n        for (uint i = 0; i < param2.length; i++) {\n            merged[k] = param2[i];\n            k++;\n        }\n        \n        for (uint i = 0; i < param3.length; i++) {\n            merged[k] = param3[i];\n            k++;\n        }\n        \n        return merged;\n    }\n    \n    function toBytes(uint8 x) private pure returns (bytes memory b) {\n        b = new bytes(1);\n        b[0] = byte(x);\n        return b;\n    }\n    \n    function toBytes(address x) private pure returns (bytes memory b) {\n        b = new bytes(20);\n        for (uint i = 0; i < 20; i++)\n            b[i] = byte(uint8(uint(x) / (2**(8*(19 - i)))));\n        return b;\n    }\n}\n    ",
  "sourcePath": "/Users/ilecipi/Workspace/bcoln-challenge-task/src/contracts/DLottery_2.0.1.sol",
  "compiler": {
    "name": "solc",
    "version": "0.5.7+commit.6da8b019.Emscripten.clang"
  },
  "schemaVersion": "3.0.6",
  "updatedAt": "2019-04-25T18:21:21.825Z",
  "devdoc": {
    "methods": {}
  },
  "userdoc": {
    "methods": {}
  }
}