{
  "contractName": "DLottery",
  "abi": [
    {
      "constant": true,
      "inputs": [
        {
          "name": "",
          "type": "uint256"
        }
      ],
      "name": "revealed",
      "outputs": [
        {
          "name": "",
          "type": "address"
        }
      ],
      "payable": false,
      "stateMutability": "view",
      "type": "function",
      "signature": "0x61a2bc01"
    },
    {
      "constant": true,
      "inputs": [
        {
          "name": "",
          "type": "uint256"
        }
      ],
      "name": "committed",
      "outputs": [
        {
          "name": "",
          "type": "address"
        }
      ],
      "payable": false,
      "stateMutability": "view",
      "type": "function",
      "signature": "0x99bd9267"
    },
    {
      "constant": true,
      "inputs": [
        {
          "name": "",
          "type": "uint8"
        },
        {
          "name": "",
          "type": "uint8"
        },
        {
          "name": "",
          "type": "uint256"
        }
      ],
      "name": "revealed_numbers_to_addresses",
      "outputs": [
        {
          "name": "",
          "type": "address"
        }
      ],
      "payable": false,
      "stateMutability": "view",
      "type": "function",
      "signature": "0xb834e700"
    },
    {
      "constant": true,
      "inputs": [],
      "name": "current_phase",
      "outputs": [
        {
          "name": "",
          "type": "uint8"
        }
      ],
      "payable": false,
      "stateMutability": "view",
      "type": "function",
      "signature": "0xbb9c9d77"
    },
    {
      "constant": true,
      "inputs": [],
      "name": "current_timestamps",
      "outputs": [
        {
          "name": "commit",
          "type": "uint256"
        },
        {
          "name": "commit_and_ready_for_reveal",
          "type": "uint256"
        },
        {
          "name": "reveal",
          "type": "uint256"
        },
        {
          "name": "payout",
          "type": "uint256"
        }
      ],
      "payable": false,
      "stateMutability": "view",
      "type": "function",
      "signature": "0xd2ecf7bf"
    },
    {
      "inputs": [],
      "payable": false,
      "stateMutability": "nonpayable",
      "type": "constructor",
      "signature": "constructor"
    },
    {
      "anonymous": false,
      "inputs": [
        {
          "indexed": false,
          "name": "commitHash",
          "type": "bytes32"
        }
      ],
      "name": "NewCommit",
      "type": "event",
      "signature": "0x4c814836544403f119442f14c9c6a5e280086f71b0fbd8e77c39a5e97cfc64b8"
    },
    {
      "constant": true,
      "inputs": [],
      "name": "getCommitted",
      "outputs": [
        {
          "name": "",
          "type": "address[]"
        }
      ],
      "payable": false,
      "stateMutability": "view",
      "type": "function",
      "signature": "0xb0a398ab"
    },
    {
      "constant": true,
      "inputs": [],
      "name": "getRevealed",
      "outputs": [
        {
          "name": "",
          "type": "address[]"
        }
      ],
      "payable": false,
      "stateMutability": "view",
      "type": "function",
      "signature": "0x94cc4140"
    },
    {
      "constant": true,
      "inputs": [],
      "name": "getFee",
      "outputs": [
        {
          "name": "",
          "type": "uint256"
        }
      ],
      "payable": false,
      "stateMutability": "pure",
      "type": "function",
      "signature": "0xced72f87"
    },
    {
      "constant": true,
      "inputs": [],
      "name": "getTimers",
      "outputs": [
        {
          "name": "LEFT_COMMIT_AND_REVEAL",
          "type": "uint256"
        },
        {
          "name": "TO_ABORT",
          "type": "uint256"
        },
        {
          "name": "WAIT_TO_GO_TO_REVEAL_PHASE",
          "type": "uint256"
        },
        {
          "name": "TO_REVEAL",
          "type": "uint256"
        }
      ],
      "payable": false,
      "stateMutability": "view",
      "type": "function",
      "signature": "0x66945574"
    },
    {
      "constant": false,
      "inputs": [],
      "name": "user_committed",
      "outputs": [
        {
          "name": "",
          "type": "bool"
        }
      ],
      "payable": false,
      "stateMutability": "nonpayable",
      "type": "function",
      "signature": "0x6a917cef"
    },
    {
      "constant": false,
      "inputs": [
        {
          "name": "hash",
          "type": "bytes32"
        }
      ],
      "name": "commit",
      "outputs": [
        {
          "name": "",
          "type": "bytes32"
        }
      ],
      "payable": true,
      "stateMutability": "payable",
      "type": "function",
      "signature": "0xf14fcbc8"
    },
    {
      "constant": false,
      "inputs": [],
      "name": "abort",
      "outputs": [],
      "payable": false,
      "stateMutability": "nonpayable",
      "type": "function",
      "signature": "0x35a063b4"
    },
    {
      "constant": false,
      "inputs": [],
      "name": "goToRevealPhase",
      "outputs": [],
      "payable": true,
      "stateMutability": "payable",
      "type": "function",
      "signature": "0xaf38ac1e"
    },
    {
      "constant": false,
      "inputs": [
        {
          "name": "firstNumber",
          "type": "uint8"
        },
        {
          "name": "secondNumber",
          "type": "uint8"
        }
      ],
      "name": "reveal",
      "outputs": [],
      "payable": true,
      "stateMutability": "payable",
      "type": "function",
      "signature": "0xdfd61558"
    }
  ],
  "bytecode": "0x608060405234801561001057600080fd5b50336000806101000a81548173ffffffffffffffffffffffffffffffffffffffff021916908373ffffffffffffffffffffffffffffffffffffffff1602179055506000600860006101000a81548160ff0219169083600381111561007057fe5b021790555060405180608001604052804281526020016000815260200160008152602001600081525060096000820151816000015560208201518160010155604082015181600201556060820151816003015590505042600960000181905550611124806100df6000396000f3fe6080604052600436106100fa576000357c010000000000000000000000000000000000000000000000000000000090048063b0a398ab1161009c578063ced72f8711610076578063ced72f871461042b578063d2ecf7bf14610456578063dfd6155814610496578063f14fcbc8146104d4576100fa565b8063b0a398ab146102f1578063b834e7001461035d578063bb9c9d77146103f2576100fa565b80636a917cef116100d85780636a917cef146101d157806394cc41401461020057806399bd92671461026c578063af38ac1e146102e7576100fa565b806335a063b4146100ff57806361a2bc01146101165780636694557414610191575b600080fd5b34801561010b57600080fd5b50610114610516565b005b34801561012257600080fd5b5061014f6004803603602081101561013957600080fd5b8101908080359060200190929190505050610731565b604051808273ffffffffffffffffffffffffffffffffffffffff1673ffffffffffffffffffffffffffffffffffffffff16815260200191505060405180910390f35b34801561019d57600080fd5b506101a661076d565b6040518085815260200184815260200183815260200182815260200194505050505060405180910390f35b3480156101dd57600080fd5b506101e661078b565b604051808215151515815260200191505060405180910390f35b34801561020c57600080fd5b506102156107d5565b6040518080602001828103825283818151815260200191508051906020019060200280838360005b8381101561025857808201518184015260208101905061023d565b505050509050019250505060405180910390f35b34801561027857600080fd5b506102a56004803603602081101561028f57600080fd5b8101908080359060200190929190505050610863565b604051808273ffffffffffffffffffffffffffffffffffffffff1673ffffffffffffffffffffffffffffffffffffffff16815260200191505060405180910390f35b6102ef61089f565b005b3480156102fd57600080fd5b506103066109cf565b6040518080602001828103825283818151815260200191508051906020019060200280838360005b8381101561034957808201518184015260208101905061032e565b505050509050019250505060405180910390f35b34801561036957600080fd5b506103b06004803603606081101561038057600080fd5b81019080803560ff169060200190929190803560ff16906020019092919080359060200190929190505050610a5d565b604051808273ffffffffffffffffffffffffffffffffffffffff1673ffffffffffffffffffffffffffffffffffffffff16815260200191505060405180910390f35b3480156103fe57600080fd5b50610407610ab5565b6040518082600381111561041757fe5b60ff16815260200191505060405180910390f35b34801561043757600080fd5b50610440610ac8565b6040518082815260200191505060405180910390f35b34801561046257600080fd5b5061046b610ad7565b6040518085815260200184815260200183815260200182815260200194505050505060405180910390f35b6104d2600480360360408110156104ac57600080fd5b81019080803560ff169060200190929190803560ff169060200190929190505050610af5565b005b610500600480360360208110156104ea57600080fd5b8101908080359060200190929190505050610d6a565b6040518082815260200191505060405180910390f35b6000600860006101000a81548160ff0219169083600381111561053557fe5b021790555060008090505b6001805490508110156105d9576000600102600360006001848154811061056357fe5b9060005260206000200160009054906101000a900473ffffffffffffffffffffffffffffffffffffffff1673ffffffffffffffffffffffffffffffffffffffff1673ffffffffffffffffffffffffffffffffffffffff168152602001908152602001600020819055508080600101915050610540565b50600160006105e891906110b2565b600260006105f691906110b2565b60008090505b60108160ff1610156106715760008090505b60108260ff16101561066357600460008360ff1660ff16815260200190815260200160002060008260ff1660ff168152602001908152602001600020600061065691906110b2565b818060010192505061060e565b5080806001019150506105fc565b506040518060800160405280428152602001600081526020016000815260200160008152506009600082015181600001556020820151816001015560408201518160020155606082015181600301559050507f4c814836544403f119442f14c9c6a5e280086f71b0fbd8e77c39a5e97cfc64b860405180807f7265736574000000000000000000000000000000000000000000000000000000815250600501905060405180910390206040518082815260200191505060405180910390a1565b6002818154811061073e57fe5b906000526020600020016000915054906101000a900473ffffffffffffffffffffffffffffffffffffffff1681565b600080600080603c610258600a610258935093509350935090919293565b600080600360003373ffffffffffffffffffffffffffffffffffffffff1673ffffffffffffffffffffffffffffffffffffffff168152602001908152602001600020541415905090565b6060600280548060200260200160405190810160405280929190818152602001828054801561085957602002820191906000526020600020905b8160009054906101000a900473ffffffffffffffffffffffffffffffffffffffff1673ffffffffffffffffffffffffffffffffffffffff168152602001906001019080831161080f575b5050505050905090565b6001818154811061087057fe5b906000526020600020016000915054906101000a900473ffffffffffffffffffffffffffffffffffffffff1681565b600160038111156108ac57fe5b600860009054906101000a900460ff1660038111156108c757fe5b146108d157600080fd5b6000600360003373ffffffffffffffffffffffffffffffffffffffff1673ffffffffffffffffffffffffffffffffffffffff16815260200190815260200160002054141561091e57600080fd5b600a6009600101544203101561093357600080fd5b6002600860006101000a81548160ff0219169083600381111561095257fe5b0217905550426009600201819055507f4c814836544403f119442f14c9c6a5e280086f71b0fbd8e77c39a5e97cfc64b860405180807f7265736574000000000000000000000000000000000000000000000000000000815250600501905060405180910390206040518082815260200191505060405180910390a1565b60606001805480602002602001604051908101604052809291908181526020018280548015610a5357602002820191906000526020600020905b8160009054906101000a900473ffffffffffffffffffffffffffffffffffffffff1673ffffffffffffffffffffffffffffffffffffffff1681526020019060010190808311610a09575b5050505050905090565b60046020528260005260406000206020528160005260406000208181548110610a8257fe5b90600052602060002001600092509250509054906101000a900473ffffffffffffffffffffffffffffffffffffffff1681565b600860009054906101000a900460ff1681565b6000660210aa59fc4296905090565b60098060000154908060010154908060020154908060030154905084565b6000600360003373ffffffffffffffffffffffffffffffffffffffff1673ffffffffffffffffffffffffffffffffffffffff168152602001908152602001600020541415610b4257600080fd5b60026003811115610b4f57fe5b600860009054906101000a900460ff166003811115610b6a57fe5b14610b7457600080fd5b610258600960020154420310610b8957600080fd5b6060823383604051602001808460ff1660ff1681526020018373ffffffffffffffffffffffffffffffffffffffff1673ffffffffffffffffffffffffffffffffffffffff1681526020018260ff1660ff1681526020019350505050604051602081830303815290604052905060008180519060200120905080600360003373ffffffffffffffffffffffffffffffffffffffff1673ffffffffffffffffffffffffffffffffffffffff1681526020019081526020016000205414610c4c57600080fd5b600460008560ff1660ff16815260200190815260200160002060008460ff1660ff1681526020019081526020016000203390806001815401808255809150509060018203906000526020600020016000909192909190916101000a81548173ffffffffffffffffffffffffffffffffffffffff021916908373ffffffffffffffffffffffffffffffffffffffff1602179055505060054290806001815401808255809150509060018203906000526020600020016000909192909190915055506006439080600181540180825580915050906001820390600052602060002001600090919290919091505550600744908060018154018082558091505090600182039060005260206000200160009091929091909150555050505050565b600080600360003373ffffffffffffffffffffffffffffffffffffffff1673ffffffffffffffffffffffffffffffffffffffff1681526020019081526020016000205414610e20576040517f08c379a00000000000000000000000000000000000000000000000000000000081526004018080602001828103825260118152602001807f416c726561647920636f6d6d697474656400000000000000000000000000000081525060200191505060405180910390fd5b660210aa59fc42963414610e3357600080fd5b60006003811115610e4057fe5b600860009054906101000a900460ff166003811115610e5b57fe5b1480610e8c575060016003811115610e6f57fe5b600860009054906101000a900460ff166003811115610e8a57fe5b145b610e9557600080fd5b60016003811115610ea257fe5b600860009054906101000a900460ff166003811115610ebd57fe5b1415610ed857603c600960010154420310610ed757600080fd5b5b81600360003373ffffffffffffffffffffffffffffffffffffffff1673ffffffffffffffffffffffffffffffffffffffff16815260200190815260200160002081905550600060013390806001815401808255809150509060018203906000526020600020016000909192909190916101000a81548173ffffffffffffffffffffffffffffffffffffffff021916908373ffffffffffffffffffffffffffffffffffffffff160217905550905060006003811115610f9257fe5b600860009054906101000a900460ff166003811115610fad57fe5b148015610fba5750600181145b15610fee576001600860006101000a81548160ff02191690836003811115610fde57fe5b0217905550426009600101819055505b7f4c814836544403f119442f14c9c6a5e280086f71b0fbd8e77c39a5e97cfc64b8836040518082815260200191505060405180910390a160054290806001815401808255809150509060018203906000526020600020016000909192909190915055506006439080600181540180825580915050906001820390600052602060002001600090919290919091505550600744908060018154018082558091505090600182039060005260206000200160009091929091909150555082915050919050565b50805460008255906000526020600020908101906110d091906110d3565b50565b6110f591905b808211156110f15760008160009055506001016110d9565b5090565b9056fea165627a7a723058202390b42fb9c3ef512bb5a4e43dc52409c1224984aef7bf96158fb0dd0188ea410029",
  "source": "pragma solidity ^0.5.7;\n\ncontract DLottery {\n    \n    uint256 constant ENTRY_FEE = 581273793610390;\n    \n    address owner;\n    \n    address[] public committed;\n    address[] public revealed;\n    mapping(address => bytes32) private adresses_to_committed_numbers;\n    mapping(uint8 => mapping(uint8 => address[])) public revealed_numbers_to_addresses;\n    \n    uint256 constant TIME_LEFT_COMMIT_AND_REVEAL = 60; // 30 seconds\n    uint256 constant TIME_TO_ABORT =  10 * 60; // 10 minutes\n    uint256 constant TIME_WAIT_TO_GO_TO_REVEAL_PHASE = 10; // 30 seconds\n    uint256 constant TIME_TO_REVEAL = 10 * 60; // 10 minutes\n    \n    uint256 constant NUMBER_OF_REQUIRED_PARTICIPANTS = 1;\n    \n    uint256[] private time_stamps;\n    uint256[] private block_numbers;\n    uint256[] block_difficulties;\n    \n    enum Phase { Commit, CommitAndReadyForReveal, Reveal, Payout }\n    Phase public current_phase;\n    \n    // time stamps of when the phases were entered\n    struct TimeStamps {\n        uint256 commit;\n        uint256 commit_and_ready_for_reveal;\n        uint256 reveal;\n        uint256 payout;\n    }\n    \n    TimeStamps public current_timestamps;\n    \n    constructor() public {\n        owner = msg.sender;\n        current_phase = Phase.Commit;\n        current_timestamps = TimeStamps(now, 0, 0, 0);\n        current_timestamps.commit = now;\n    }\n    \n    function getCommitted() public view returns (address[] memory) {\n        return committed;\n    }\n    \n    function getRevealed() public view returns (address[] memory) {\n        return revealed;\n    }\n    \n    function getFee() pure public returns (uint256) {\n        return ENTRY_FEE;\n    }\n\n    function getTimers() public view returns (uint256 LEFT_COMMIT_AND_REVEAL, uint256 TO_ABORT, uint256 WAIT_TO_GO_TO_REVEAL_PHASE, uint256 TO_REVEAL) {\n        return (TIME_LEFT_COMMIT_AND_REVEAL,TIME_TO_ABORT,TIME_WAIT_TO_GO_TO_REVEAL_PHASE,TIME_TO_REVEAL);\n    }\n    \n    event NewCommit(\n       bytes32 commitHash\n    );\n    \n    function user_committed() public returns (bool) {\n        return !(adresses_to_committed_numbers[msg.sender] == '');\n    }\n    \n    function commit(bytes32 hash) payable public returns (bytes32) {\n        require(adresses_to_committed_numbers[msg.sender] == '', 'Already committed');\n        require(msg.value == ENTRY_FEE);\n        require(current_phase == Phase.Commit || current_phase == Phase.CommitAndReadyForReveal);\n        if (current_phase == Phase.CommitAndReadyForReveal) {\n            require((now - current_timestamps.commit_and_ready_for_reveal) < TIME_LEFT_COMMIT_AND_REVEAL);\n        }\n        adresses_to_committed_numbers[msg.sender] = hash;\n        uint256 new_number_of_participants = committed.push(msg.sender);\n        if (current_phase == Phase.Commit && new_number_of_participants == NUMBER_OF_REQUIRED_PARTICIPANTS) {\n            // Automatically go to commit and ready to reveal phase\n            current_phase = Phase.CommitAndReadyForReveal;\n            current_timestamps.commit_and_ready_for_reveal = now;\n        }\n        emit NewCommit(hash);\n        time_stamps.push(now);\n        block_numbers.push(block.number);\n        block_difficulties.push(block.difficulty);\n        return hash;\n    }\n    \n    function abort() public {\n        current_phase = Phase.Commit;\n        for(uint i = 0; i < committed.length; i++) {\n            adresses_to_committed_numbers[committed[i]] = 0;\n        }\n        delete committed;\n        delete revealed;\n        for(uint8 i = 0; i < 16; i++) {\n            for(uint8 j = 0; i < 16; i++) {\n                delete revealed_numbers_to_addresses[i][j];\n            }\n        }\n        current_timestamps = TimeStamps(now, 0, 0, 0);\n        emit NewCommit(keccak256(\"reset\"));\n\n    }\n    \n    function goToRevealPhase() payable public {\n        require(current_phase == Phase.CommitAndReadyForReveal);\n        require(adresses_to_committed_numbers[msg.sender] != '');\n        require((now - current_timestamps.commit_and_ready_for_reveal) >= TIME_WAIT_TO_GO_TO_REVEAL_PHASE);\n        current_phase = Phase.Reveal;\n        current_timestamps.reveal = now;\n        emit NewCommit(keccak256(\"reset\"));\n\n    }\n\n    function reveal(uint8 firstNumber, uint8 secondNumber) payable public {\n        require(adresses_to_committed_numbers[msg.sender] != '');\n        require(current_phase == Phase.Reveal);\n        require((now - current_timestamps.reveal) < TIME_TO_REVEAL);\n        bytes memory input = abi.encode(firstNumber, msg.sender, secondNumber);\n        bytes32 hashed = keccak256(input);\n        require(adresses_to_committed_numbers[msg.sender] == hashed);\n        revealed_numbers_to_addresses[firstNumber][secondNumber].push(msg.sender);\n        time_stamps.push(now);\n        block_numbers.push(block.number);\n        block_difficulties.push(block.difficulty);\n    }\n    \n    function mergeBytes(bytes memory param1, bytes memory param2, bytes memory param3) private pure returns (bytes memory) {\n        bytes memory merged = new bytes(param1.length + param2.length + param3.length);\n\n        uint k = 0;\n        for (uint i = 0; i < param1.length; i++) {\n            merged[k] = param1[i];\n            k++;\n        }\n    \n        for (uint i = 0; i < param2.length; i++) {\n            merged[k] = param2[i];\n            k++;\n        }\n        \n        for (uint i = 0; i < param3.length; i++) {\n            merged[k] = param3[i];\n            k++;\n        }\n        \n        return merged;\n    }\n    \n    function toBytes(uint8 x) private pure returns (bytes memory b) {\n        b = new bytes(1);\n        b[0] = byte(x);\n        return b;\n    }\n    \n    function toBytes(address x) private pure returns (bytes memory b) {\n        b = new bytes(20);\n        for (uint i = 0; i < 20; i++)\n            b[i] = byte(uint8(uint(x) / (2**(8*(19 - i)))));\n        return b;\n    }\n    \n    function toString(address x) private pure returns (string memory) {\n        bytes memory b = new bytes(20);\n        for (uint i = 0; i < 20; i++)\n            b[i] = byte(uint8(uint(x) / (2**(8*(19 - i)))));\n        return string(b);\n    }\n}\n    ",
  "sourcePath": "/home/tim/dev/uni/bcoln-challenge-task/src/contracts/DLottery_2.0.2.sol",
  "compiler": {
    "name": "solc",
    "version": "0.5.7+commit.6da8b019.Emscripten.clang"
  },
  "schemaVersion": "3.0.8",
  "updatedAt": "2019-04-28T14:24:55.639Z",
  "devdoc": {
    "methods": {}
  },
  "userdoc": {
    "methods": {}
  }
}