{
  "contractName": "DLottery",
  "abi": [
    {
      "constant": true,
      "inputs": [
        {
          "name": "",
          "type": "uint256"
        }
      ],
      "name": "revealed",
      "outputs": [
        {
          "name": "",
          "type": "address"
        }
      ],
      "payable": false,
      "stateMutability": "view",
      "type": "function",
      "signature": "0x61a2bc01"
    },
    {
      "constant": true,
      "inputs": [
        {
          "name": "",
          "type": "uint256"
        }
      ],
      "name": "committed",
      "outputs": [
        {
          "name": "",
          "type": "address"
        }
      ],
      "payable": false,
      "stateMutability": "view",
      "type": "function",
      "signature": "0x99bd9267"
    },
    {
      "constant": true,
      "inputs": [],
      "name": "current_phase",
      "outputs": [
        {
          "name": "",
          "type": "uint8"
        }
      ],
      "payable": false,
      "stateMutability": "view",
      "type": "function",
      "signature": "0xbb9c9d77"
    },
    {
      "constant": true,
      "inputs": [
        {
          "name": "",
          "type": "uint256"
        },
        {
          "name": "",
          "type": "uint256"
        },
        {
          "name": "",
          "type": "uint256"
        }
      ],
      "name": "revealed_numbers_to_addresses",
      "outputs": [
        {
          "name": "",
          "type": "address"
        }
      ],
      "payable": false,
      "stateMutability": "view",
      "type": "function",
      "signature": "0xcee1cb8a"
    },
    {
      "constant": true,
      "inputs": [],
      "name": "current_timestamps",
      "outputs": [
        {
          "name": "commit",
          "type": "uint256"
        },
        {
          "name": "commit_and_ready_for_reveal",
          "type": "uint256"
        },
        {
          "name": "reveal",
          "type": "uint256"
        },
        {
          "name": "payout",
          "type": "uint256"
        }
      ],
      "payable": false,
      "stateMutability": "view",
      "type": "function",
      "signature": "0xd2ecf7bf"
    },
    {
      "inputs": [],
      "payable": false,
      "stateMutability": "nonpayable",
      "type": "constructor",
      "signature": "constructor"
    },
    {
      "anonymous": false,
      "inputs": [
        {
          "indexed": false,
          "name": "sender",
          "type": "address"
        },
        {
          "indexed": false,
          "name": "commitHash",
          "type": "bytes32"
        }
      ],
      "name": "NewCommit",
      "type": "event",
      "signature": "0x0290e16ca163280238cff6bd42c77cb055d3ff42239fe48bc5b8ec6edf5065c9"
    },
    {
      "anonymous": false,
      "inputs": [
        {
          "indexed": false,
          "name": "sender",
          "type": "address"
        },
        {
          "indexed": false,
          "name": "first_number",
          "type": "uint8"
        },
        {
          "indexed": false,
          "name": "second_number",
          "type": "uint8"
        }
      ],
      "name": "NewReveal",
      "type": "event",
      "signature": "0x5537213d56fcd58df8e4fa27754f5d1835653bde9364c0ffa2cb0519bc128e83"
    },
    {
      "anonymous": false,
      "inputs": [
        {
          "indexed": false,
          "name": "sender",
          "type": "address"
        }
      ],
      "name": "Reset",
      "type": "event",
      "signature": "0x162f46783fcc741c289a7af5bd16474ace09d7e8a9d5fe1ac0d37b12afc0ccac"
    },
    {
      "anonymous": false,
      "inputs": [
        {
          "indexed": false,
          "name": "old_phase",
          "type": "uint8"
        },
        {
          "indexed": false,
          "name": "new_phase",
          "type": "uint8"
        }
      ],
      "name": "PhaseChange",
      "type": "event",
      "signature": "0x5e45bf0703fe855c9fa7c44122b9f47ad1075a0cc5dc8ae88903470067cba7e5"
    },
    {
      "anonymous": false,
      "inputs": [
        {
          "indexed": false,
          "name": "winners",
          "type": "address[]"
        }
      ],
      "name": "LotteryEnded",
      "type": "event",
      "signature": "0x1364a66c10650b51f40fbdd70a9c9553915721688179be49b98ae5979b861839"
    },
    {
      "anonymous": false,
      "inputs": [
        {
          "indexed": false,
          "name": "number",
          "type": "uint256"
        }
      ],
      "name": "Log",
      "type": "event",
      "signature": "0x909c57d5c6ac08245cf2a6de3900e2b868513fa59099b92b27d8db823d92df9c"
    },
    {
      "anonymous": false,
      "inputs": [
        {
          "indexed": false,
          "name": "b",
          "type": "bytes"
        }
      ],
      "name": "Log2",
      "type": "event",
      "signature": "0x915f48adfca02dd572ace21b9436e8a30fe2ad97a0f67bee6ca400db6c7564e5"
    },
    {
      "constant": true,
      "inputs": [],
      "name": "getCommitted",
      "outputs": [
        {
          "name": "",
          "type": "address[]"
        }
      ],
      "payable": false,
      "stateMutability": "view",
      "type": "function",
      "signature": "0xb0a398ab"
    },
    {
      "constant": true,
      "inputs": [],
      "name": "getRevealed",
      "outputs": [
        {
          "name": "",
          "type": "address[]"
        }
      ],
      "payable": false,
      "stateMutability": "view",
      "type": "function",
      "signature": "0x94cc4140"
    },
    {
      "constant": true,
      "inputs": [],
      "name": "getFee",
      "outputs": [
        {
          "name": "",
          "type": "uint256"
        }
      ],
      "payable": false,
      "stateMutability": "pure",
      "type": "function",
      "signature": "0xced72f87"
    },
    {
      "constant": true,
      "inputs": [],
      "name": "getBalance",
      "outputs": [
        {
          "name": "",
          "type": "uint256"
        }
      ],
      "payable": false,
      "stateMutability": "view",
      "type": "function",
      "signature": "0x12065fe0"
    },
    {
      "constant": true,
      "inputs": [],
      "name": "getTimers",
      "outputs": [
        {
          "name": "LEFT_COMMIT_AND_REVEAL",
          "type": "uint256"
        },
        {
          "name": "TO_ABORT",
          "type": "uint256"
        },
        {
          "name": "WAIT_TO_GO_TO_REVEAL_PHASE",
          "type": "uint256"
        },
        {
          "name": "TO_REVEAL",
          "type": "uint256"
        }
      ],
      "payable": false,
      "stateMutability": "pure",
      "type": "function",
      "signature": "0x66945574"
    },
    {
      "constant": true,
      "inputs": [],
      "name": "user_committed",
      "outputs": [
        {
          "name": "",
          "type": "bool"
        }
      ],
      "payable": false,
      "stateMutability": "view",
      "type": "function",
      "signature": "0x6a917cef"
    },
    {
      "constant": false,
      "inputs": [
        {
          "name": "hash",
          "type": "bytes32"
        }
      ],
      "name": "commit",
      "outputs": [],
      "payable": true,
      "stateMutability": "payable",
      "type": "function",
      "signature": "0xf14fcbc8"
    },
    {
      "constant": false,
      "inputs": [],
      "name": "reset",
      "outputs": [],
      "payable": false,
      "stateMutability": "nonpayable",
      "type": "function",
      "signature": "0xd826f88f"
    },
    {
      "constant": false,
      "inputs": [],
      "name": "goToRevealPhase",
      "outputs": [],
      "payable": true,
      "stateMutability": "payable",
      "type": "function",
      "signature": "0xaf38ac1e"
    },
    {
      "constant": false,
      "inputs": [
        {
          "name": "firstNumber",
          "type": "uint8"
        },
        {
          "name": "secondNumber",
          "type": "uint8"
        }
      ],
      "name": "reveal",
      "outputs": [],
      "payable": true,
      "stateMutability": "payable",
      "type": "function",
      "signature": "0xdfd61558"
    },
    {
      "constant": false,
      "inputs": [],
      "name": "payout",
      "outputs": [
        {
          "name": "",
          "type": "uint256"
        }
      ],
      "payable": false,
      "stateMutability": "nonpayable",
      "type": "function",
      "signature": "0x63bd1d4a"
    }
  ],
  "bytecode": "0x608060405234801561001057600080fd5b50336000806101000a81548173ffffffffffffffffffffffffffffffffffffffff021916908373ffffffffffffffffffffffffffffffffffffffff1602179055506000600960006101000a81548160ff0219169083600381111561007057fe5b021790555060405180608001604052806000815260200160008152602001600081526020016000815250600a6000820151816000015560208201518160010155604082015181600201556060820151816003015590505042600a60000181905550612219806100e06000396000f3fe608060405260043610610110576000357c010000000000000000000000000000000000000000000000000000000090048063b0a398ab116100a7578063d2ecf7bf11610076578063d2ecf7bf146104a5578063d826f88f146104e5578063dfd61558146104fc578063f14fcbc81461053a57610110565b8063b0a398ab14610346578063bb9c9d77146103b2578063ced72f87146103eb578063cee1cb8a1461041657610110565b80636a917cef116100e35780636a917cef1461022657806394cc41401461025557806399bd9267146102c1578063af38ac1e1461033c57610110565b806312065fe01461011557806361a2bc011461014057806363bd1d4a146101bb57806366945574146101e6575b600080fd5b34801561012157600080fd5b5061012a610568565b6040518082815260200191505060405180910390f35b34801561014c57600080fd5b506101796004803603602081101561016357600080fd5b8101908080359060200190929190505050610587565b604051808273ffffffffffffffffffffffffffffffffffffffff1673ffffffffffffffffffffffffffffffffffffffff16815260200191505060405180910390f35b3480156101c757600080fd5b506101d06105c3565b6040518082815260200191505060405180910390f35b3480156101f257600080fd5b506101fb610ac5565b6040518085815260200184815260200183815260200182815260200194505050505060405180910390f35b34801561023257600080fd5b5061023b610ae3565b604051808215151515815260200191505060405180910390f35b34801561026157600080fd5b5061026a610b2d565b6040518080602001828103825283818151815260200191508051906020019060200280838360005b838110156102ad578082015181840152602081019050610292565b505050509050019250505060405180910390f35b3480156102cd57600080fd5b506102fa600480360360208110156102e457600080fd5b8101908080359060200190929190505050610bbb565b604051808273ffffffffffffffffffffffffffffffffffffffff1673ffffffffffffffffffffffffffffffffffffffff16815260200191505060405180910390f35b610344610bf7565b005b34801561035257600080fd5b5061035b610e26565b6040518080602001828103825283818151815260200191508051906020019060200280838360005b8381101561039e578082015181840152602081019050610383565b505050509050019250505060405180910390f35b3480156103be57600080fd5b506103c7610eb4565b604051808260038111156103d757fe5b60ff16815260200191505060405180910390f35b3480156103f757600080fd5b50610400610ec7565b6040518082815260200191505060405180910390f35b34801561042257600080fd5b506104636004803603606081101561043957600080fd5b81019080803590602001909291908035906020019092919080359060200190929190505050610ed7565b604051808273ffffffffffffffffffffffffffffffffffffffff1673ffffffffffffffffffffffffffffffffffffffff16815260200191505060405180910390f35b3480156104b157600080fd5b506104ba610f2f565b6040518085815260200184815260200183815260200182815260200194505050505060405180910390f35b3480156104f157600080fd5b506104fa610f4d565b005b6105386004803603604081101561051257600080fd5b81019080803560ff169060200190929190803560ff16906020019092919050505061128d565b005b6105666004803603602081101561055057600080fd5b81019080803590602001909291905050506118ef565b005b60003073ffffffffffffffffffffffffffffffffffffffff1631905090565b6002818154811061059457fe5b906000526020600020016000915054906101000a900473ffffffffffffffffffffffffffffffffffffffff1681565b6000606060086007600660405160200180806020018060200180602001848103845287818154815260200191508054801561061d57602002820191906000526020600020905b815481526020019060010190808311610609575b5050848103835286818154815260200191508054801561065c57602002820191906000526020600020905b815481526020019060010190808311610648575b5050848103825285818154815260200191508054801561069b57602002820191906000526020600020905b815481526020019060010190808311610687575b505096505050505050506040516020818303038152906040528051906020012060405160200180828152602001915050604051602081830303815290604052905060606040518060400160405280601f81526020016000815250905060606107226107136000600186611db69092919063ffffffff16565b83611e4290919063ffffffff16565b9050606061074f6107406001600287611db69092919063ffffffff16565b84611e4290919063ffffffff16565b90506000610767600084611ecc90919063ffffffff16565b9050600061077f600084611ecc90919063ffffffff16565b9050600160108360ff168161079057fe5b06019150600160108260ff16816107a357fe5b060190508060ff168260ff1614156107d25760108160ff1614156107ca57600190506107d1565b6001810190505b5b60019150600290507f909c57d5c6ac08245cf2a6de3900e2b868513fa59099b92b27d8db823d92df9c82604051808260ff16815260200191505060405180910390a17f909c57d5c6ac08245cf2a6de3900e2b868513fa59099b92b27d8db823d92df9c81604051808260ff16815260200191505060405180910390a16060600460008460ff16815260200190815260200160002060008360ff1681526020019081526020016000208054806020026020016040519081016040528092919081815260200182805480156108fa57602002820191906000526020600020905b8160009054906101000a900473ffffffffffffffffffffffffffffffffffffffff1673ffffffffffffffffffffffffffffffffffffffff16815260200190600101908083116108b0575b505050505090506000815114610a3b5760003073ffffffffffffffffffffffffffffffffffffffff163190506000811161099c576040517f08c379a000000000000000000000000000000000000000000000000000000000815260040180806020018281038252601f8152602001807f436f6e7472616374206e6565647320746f20686176652062616c616e63652e0081525060200191505060405180910390fd5b6000600282816109a857fe5b0490506000835182816109b757fe5b04905060008090505b8451811015610a365760008582815181106109d757fe5b602002602001015190508073ffffffffffffffffffffffffffffffffffffffff166108fc849081150290604051600060405180830381858888f19350505050158015610a27573d6000803e3d6000fd5b505080806001019150506109c0565b505050505b7f1364a66c10650b51f40fbdd70a9c9553915721688179be49b98ae5979b861839816040518080602001828103825283818151815260200191508051906020019060200280838360005b83811015610aa0578082015181840152602081019050610a85565b505050509050019250505060405180910390a1610abb610f4d565b5050505050505090565b600080600080603c610258600a610258935093509350935090919293565b600080600360003373ffffffffffffffffffffffffffffffffffffffff1673ffffffffffffffffffffffffffffffffffffffff168152602001908152602001600020541415905090565b60606002805480602002602001604051908101604052809291908181526020018280548015610bb157602002820191906000526020600020905b8160009054906101000a900473ffffffffffffffffffffffffffffffffffffffff1673ffffffffffffffffffffffffffffffffffffffff1681526020019060010190808311610b67575b5050505050905090565b60018181548110610bc857fe5b906000526020600020016000915054906101000a900473ffffffffffffffffffffffffffffffffffffffff1681565b60016003811115610c0457fe5b600960009054906101000a900460ff166003811115610c1f57fe5b14610c75576040517f08c379a00000000000000000000000000000000000000000000000000000000081526004018080602001828103825260318152602001806121116031913960400191505060405180910390fd5b6000600360003373ffffffffffffffffffffffffffffffffffffffff1673ffffffffffffffffffffffffffffffffffffffff168152602001908152602001600020541415610d0e576040517f08c379a000000000000000000000000000000000000000000000000000000000815260040180806020018281038252603181526020018061204f6031913960400191505060405180910390fd5b600a806001015442031015610d8b576040517f08c379a000000000000000000000000000000000000000000000000000000000815260040180806020018281038252601e8152602001807f57616974696e672074696d65206e6565647320746f206265206f7665722e000081525060200191505060405180910390fd5b7f5e45bf0703fe855c9fa7c44122b9f47ad1075a0cc5dc8ae88903470067cba7e5600960009054906101000a900460ff16600260405180836003811115610dce57fe5b60ff168152602001826003811115610de257fe5b60ff1681526020019250505060405180910390a16002600960006101000a81548160ff02191690836003811115610e1557fe5b021790555042600a60020181905550565b60606001805480602002602001604051908101604052809291908181526020018280548015610eaa57602002820191906000526020600020905b8160009054906101000a900473ffffffffffffffffffffffffffffffffffffffff1673ffffffffffffffffffffffffffffffffffffffff1681526020019060010190808311610e60575b5050505050905090565b600960009054906101000a900460ff1681565b60006706f05b59d3b20000905090565b60046020528260005260406000206020528160005260406000208181548110610efc57fe5b90600052602060002001600092509250509054906101000a900473ffffffffffffffffffffffffffffffffffffffff1681565b600a8060000154908060010154908060020154908060030154905084565b7f5e45bf0703fe855c9fa7c44122b9f47ad1075a0cc5dc8ae88903470067cba7e5600960009054906101000a900460ff16600060405180836003811115610f9057fe5b60ff168152602001826003811115610fa457fe5b60ff1681526020019250505060405180910390a16000600960006101000a81548160ff02191690836003811115610fd757fe5b021790555060008090505b60018054905081101561107657600360006001838154811061100057fe5b9060005260206000200160009054906101000a900473ffffffffffffffffffffffffffffffffffffffff1673ffffffffffffffffffffffffffffffffffffffff1673ffffffffffffffffffffffffffffffffffffffff168152602001908152602001600020600090558080600101915050610fe2565b506000600890505b60028054905081101561111a57600560006002838154811061109c57fe5b9060005260206000200160009054906101000a900473ffffffffffffffffffffffffffffffffffffffff1673ffffffffffffffffffffffffffffffffffffffff1673ffffffffffffffffffffffffffffffffffffffff168152602001908152602001600020600061110d9190611ef4565b808060010191505061107e565b50600160006111299190611efb565b600260006111379190611efb565b60008090505b60108160ff1610156111ac5760008090505b60108260ff16101561119e57600460008360ff16815260200190815260200160002060008260ff16815260200190815260200160002060006111919190611efb565b818060010192505061114f565b50808060010191505061113d565b50600660006111bb9190611f1c565b600860006111c99190611f1c565b600760006111d79190611f1c565b604051806080016040528042815260200160008152602001600081526020016000815250600a600082015181600001556020820151816001015560408201518160020155606082015181600301559050507f162f46783fcc741c289a7af5bd16474ace09d7e8a9d5fe1ac0d37b12afc0ccac33604051808273ffffffffffffffffffffffffffffffffffffffff1673ffffffffffffffffffffffffffffffffffffffff16815260200191505060405180910390a1565b6000600360003373ffffffffffffffffffffffffffffffffffffffff1673ffffffffffffffffffffffffffffffffffffffff168152602001908152602001600020541415611326576040517f08c379a00000000000000000000000000000000000000000000000000000000081526004018080602001828103825260218152602001806121a26021913960400191505060405180910390fd5b6000600560003373ffffffffffffffffffffffffffffffffffffffff1673ffffffffffffffffffffffffffffffffffffffff16815260200190815260200160002050600214156113c1576040517f08c379a000000000000000000000000000000000000000000000000000000000815260040180806020018281038252602b8152602001806121c3602b913960400191505060405180910390fd5b600260038111156113ce57fe5b600960009054906101000a900460ff1660038111156113e957fe5b1461143f576040517f08c379a00000000000000000000000000000000000000000000000000000000081526004018080602001828103825260218152602001806121426021913960400191505060405180910390fd5b610258600a600201544203106114bd576040517f08c379a000000000000000000000000000000000000000000000000000000000815260040180806020018281038252601e8152602001807f4d7573742062652077697468696e2074696d6520746f2072657665616c2e000081525060200191505060405180910390fd5b6060823383604051602001808460ff1660ff1681526020018373ffffffffffffffffffffffffffffffffffffffff1673ffffffffffffffffffffffffffffffffffffffff1681526020018260ff1660ff1681526020019350505050604051602081830303815290604052905060008180519060200120905080600360003373ffffffffffffffffffffffffffffffffffffffff1673ffffffffffffffffffffffffffffffffffffffff16815260200190815260200160002054146115cc576040517f08c379a00000000000000000000000000000000000000000000000000000000081526004018080602001828103825260308152602001806120a56030913960400191505060405180910390fd5b600460008560ff16815260200190815260200160002060008460ff1681526020019081526020016000203390806001815401808255809150509060018203906000526020600020016000909192909190916101000a81548173ffffffffffffffffffffffffffffffffffffffff021916908373ffffffffffffffffffffffffffffffffffffffff16021790555050611662611f3d565b60405180604001604052808660ff1660ff1681526020018560ff1660ff16815250905080600560003373ffffffffffffffffffffffffffffffffffffffff1673ffffffffffffffffffffffffffffffffffffffff1681526020019081526020016000209060026116d3929190611f5f565b5060023390806001815401808255809150509060018203906000526020600020016000909192909190916101000a81548173ffffffffffffffffffffffffffffffffffffffff021916908373ffffffffffffffffffffffffffffffffffffffff160217905550507f5537213d56fcd58df8e4fa27754f5d1835653bde9364c0ffa2cb0519bc128e83338686604051808473ffffffffffffffffffffffffffffffffffffffff1673ffffffffffffffffffffffffffffffffffffffff1681526020018360ff1660ff1681526020018260ff1660ff168152602001935050505060405180910390a160064290806001815401808255809150509060018203906000526020600020016000909192909190915055506007439080600181540180825580915050906001820390600052602060002001600090919290919091505550600844908060018154018082558091505090600182039060005260206000200160009091929091909150555060028054905060018054905014156118e8577f5e45bf0703fe855c9fa7c44122b9f47ad1075a0cc5dc8ae88903470067cba7e5600960009054906101000a900460ff1660036040518083600381111561189257fe5b60ff1681526020018260038111156118a657fe5b60ff1681526020019250505060405180910390a16003600960006101000a81548160ff021916908360038111156118d957fe5b02179055506118e66105c3565b505b5050505050565b6000600360003373ffffffffffffffffffffffffffffffffffffffff1673ffffffffffffffffffffffffffffffffffffffff1681526020019081526020016000205414611987576040517f08c379a00000000000000000000000000000000000000000000000000000000081526004018080602001828103825260258152602001806120806025913960400191505060405180910390fd5b6706f05b59d3b200003410156119e8576040517f08c379a000000000000000000000000000000000000000000000000000000000815260040180806020018281038252603f815260200180612163603f913960400191505060405180910390fd5b600060038111156119f557fe5b600960009054906101000a900460ff166003811115611a1057fe5b1480611a41575060016003811115611a2457fe5b600960009054906101000a900460ff166003811115611a3f57fe5b145b611a96576040517f08c379a000000000000000000000000000000000000000000000000000000000815260040180806020018281038252603c8152602001806120d5603c913960400191505060405180910390fd5b60016003811115611aa357fe5b600960009054906101000a900460ff166003811115611abe57fe5b1415611b4257603c600a60010154420310611b41576040517f08c379a00000000000000000000000000000000000000000000000000000000081526004018080602001828103825260178152602001807f54696d6520746f20636f6d6d6974206973206f7665722e00000000000000000081525060200191505060405180910390fd5b5b80600360003373ffffffffffffffffffffffffffffffffffffffff1673ffffffffffffffffffffffffffffffffffffffff16815260200190815260200160002081905550600060013390806001815401808255809150509060018203906000526020600020016000909192909190916101000a81548173ffffffffffffffffffffffffffffffffffffffff021916908373ffffffffffffffffffffffffffffffffffffffff160217905550905060006003811115611bfc57fe5b600960009054906101000a900460ff166003811115611c1757fe5b148015611c245750600181145b15611cc3577f5e45bf0703fe855c9fa7c44122b9f47ad1075a0cc5dc8ae88903470067cba7e5600960009054906101000a900460ff16600160405180836003811115611c6c57fe5b60ff168152602001826003811115611c8057fe5b60ff1681526020019250505060405180910390a16001600960006101000a81548160ff02191690836003811115611cb357fe5b021790555042600a600101819055505b7f0290e16ca163280238cff6bd42c77cb055d3ff42239fe48bc5b8ec6edf5065c93383604051808373ffffffffffffffffffffffffffffffffffffffff1673ffffffffffffffffffffffffffffffffffffffff1681526020018281526020019250505060405180910390a16006429080600181540180825580915050906001820390600052602060002001600090919290919091505550600743908060018154018082558091505090600182039060005260206000200160009091929091909150555060084490806001815401808255809150509060018203906000526020600020016000909192909190915055505050565b606081830184511015611dc857600080fd5b6060821560008114611de557604051915060208201604052611e36565b6040519150601f8416801560200281840101858101878315602002848b0101015b81831015611e235780518352602083019250602081019050611e06565b50868552601f19601f8301166040525050505b50809150509392505050565b6060806040519050835180825260208201818101602087015b81831015611e785780518352602083019250602081019050611e5b565b50855192508351830184528091508282019050602086015b81831015611ead5780518352602083019250602081019050611e90565b50601f19601f8851850115830101166040525050508091505092915050565b60006020820183511015611edf57600080fd5b60008260208501015190508091505092915050565b5060009055565b5080546000825590600052602060002090810190611f199190611ff9565b50565b5080546000825590600052602060002090810190611f3a9190611ff9565b50565b6040518060400160405280600290602082028038833980820191505090505090565b826002601f01602090048101928215611fe85791602002820160005b83821115611fb957835183826101000a81548160ff021916908360ff1602179055509260200192600101602081600001049283019260010302611f7b565b8015611fe65782816101000a81549060ff0219169055600101602081600001049283019260010302611fb9565b505b509050611ff5919061201e565b5090565b61201b91905b80821115612017576000816000905550600101611fff565b5090565b90565b61204b91905b8082111561204757600081816101000a81549060ff021916905550600101612024565b5090565b9056fe53656e646572206f6620746865206d657373616765206d757374206861766520636f6d6d69746564206e756d626572732e55736572206d757374206e6f74206861766520616c726561647920636f6d6d69747465642e48617368206d757374206265207468652073616d6520617320746865206f6e6520746861742069732073746f7265642e43757272656e74207068617365206e6565647320746f20626520436f6d6d6974206f7220436f6d6d6974416e645265616479466f7252657665616c2e43757272656e74207068617365206e6565647320746f20626520436f6d6d6974416e645265616479466f7252657665616c43757272656e74207068617365206e6565647320746f2062652052657665616c2e4d6573736167652068617320746f20686176652065786163746c79207468652076616c756520666f7220656e747279696e6720746865206c6f74746572792e55736572206d757374206861766520636f6d6d6974746564206e756d626572732e55736572206d757374206e6f742068617665206172656164792072657665616c6564206e756d626572732ea165627a7a723058206f550336e85918959cf686053a878064bec51cd5fe08ee53c1c8cc37243b6d370029",
  "source": "pragma solidity ^0.5.7;\n\nimport \"solidity-bytes-utils/contracts/BytesLib.sol\";\n\ncontract DLottery {\n    using BytesLib for bytes;\n    //uint256 constant ENTRY_FEE = 581273793610390;\n    uint256 constant ENTRY_FEE = (1 ether)/2;\n    address owner;\n    address[] public committed;\n    address[] public revealed;\n    mapping(address => bytes32) addresses_to_committed_numbers;\n    mapping(uint256 => mapping(uint256 => address[])) public revealed_numbers_to_addresses;\n    mapping(address => uint8[2]) addresses_to_revealed_numbers;\n    uint256 constant TIME_LEFT_COMMIT_AND_REVEAL = 60; // 30 seconds\n    uint256 constant TIME_TO_ABORT =  10 * 60; // 10 minutes\n    uint256 constant TIME_WAIT_TO_GO_TO_REVEAL_PHASE = 10; // 30 seconds\n    uint256 constant TIME_TO_REVEAL = 10 * 60; // 10 minutes\n    uint256 constant NUMBER_OF_REQUIRED_PARTICIPANTS = 1;\n    uint256[] private time_stamps;\n    uint256[] private block_numbers;\n    uint256[] private block_difficulties;\n    enum Phase { Commit, CommitAndReadyForReveal, Reveal, Payout }\n    Phase public current_phase;\n    // time stamps of when the phases were entered\n    struct TimeStamps {\n        uint256 commit;\n        uint256 commit_and_ready_for_reveal;\n        uint256 reveal;\n        uint256 payout;\n    }\n    TimeStamps public current_timestamps;\n\n    event NewCommit(\n        address sender,\n        bytes32 commitHash\n    );\n    event NewReveal(\n        address sender,\n        uint8 first_number,\n        uint8 second_number\n    );\n    event Reset(\n        address sender\n    );\n    event PhaseChange(\n        Phase old_phase,\n        Phase new_phase\n    );\n    event LotteryEnded(\n        address[] winners\n    );\n    constructor() public {\n        owner = msg.sender;\n        current_phase = Phase.Commit;\n        current_timestamps = TimeStamps(0, 0, 0, 0);\n        current_timestamps.commit = block.timestamp;\n    }\n    function getCommitted() public view returns (address[] memory) {\n        return committed;\n    }\n    function getRevealed() public view returns (address[] memory) {\n        return revealed;\n    }\n    function getFee() public pure returns (uint256) {\n        return ENTRY_FEE;\n    }\n\n    function getBalance() public view returns (uint256) {\n            return address(this).balance;\n        }\n\n    function getTimers() public pure\n    returns (uint256 LEFT_COMMIT_AND_REVEAL, uint256 TO_ABORT, uint256 WAIT_TO_GO_TO_REVEAL_PHASE, uint256 TO_REVEAL) {\n        return (TIME_LEFT_COMMIT_AND_REVEAL,TIME_TO_ABORT,TIME_WAIT_TO_GO_TO_REVEAL_PHASE,TIME_TO_REVEAL);\n    }\n    function user_committed() public view returns (bool) {\n        return !(addresses_to_committed_numbers[msg.sender] == '');\n    }\n    function commit(bytes32 hash) public payable {\n        require(addresses_to_committed_numbers[msg.sender] == '', 'User must not have already committed.');\n        require(msg.value >= ENTRY_FEE, 'Message has to have exactly the value for entrying the lottery.');\n        require(current_phase == Phase.Commit || current_phase == Phase.CommitAndReadyForReveal,\n        'Current phase needs to be Commit or CommitAndReadyForReveal.');\n        if (current_phase == Phase.CommitAndReadyForReveal) {\n            require((block.timestamp - current_timestamps.commit_and_ready_for_reveal) < TIME_LEFT_COMMIT_AND_REVEAL, 'Time to commit is over.');\n        }\n        addresses_to_committed_numbers[msg.sender] = hash;\n        uint256 new_number_of_participants = committed.push(msg.sender);\n        if (current_phase == Phase.Commit && new_number_of_participants == NUMBER_OF_REQUIRED_PARTICIPANTS) {\n            // Automatically go to commit and ready to reveal phase\n            emit PhaseChange(current_phase, Phase.CommitAndReadyForReveal);\n            current_phase = Phase.CommitAndReadyForReveal;\n            current_timestamps.commit_and_ready_for_reveal = now;\n        }\n        emit NewCommit(msg.sender, hash);\n        time_stamps.push(now);\n        block_numbers.push(block.number);\n        block_difficulties.push(block.difficulty);\n    }\n    function reset() public {\n        emit PhaseChange(current_phase, Phase.Commit);\n        current_phase = Phase.Commit;\n        for(uint i = 0; i < committed.length; i++) {\n            delete addresses_to_committed_numbers[committed[i]];\n        }\n        for(uint i = 8; i < revealed.length; i++) {\n            delete addresses_to_revealed_numbers[revealed[i]];\n        }\n        delete committed;\n        delete revealed;\n        for(uint8 i = 0; i < 16; i++) {\n            for(uint8 j = 0; i < 16; i++) {\n                delete revealed_numbers_to_addresses[i][j];\n            }\n        }\n        delete time_stamps;\n        delete block_difficulties;\n        delete block_numbers;\n        current_timestamps = TimeStamps(now, 0, 0, 0);\n        emit Reset(msg.sender);\n    }\n    function goToRevealPhase() payable public {\n        require(current_phase == Phase.CommitAndReadyForReveal, 'Current phase needs to be CommitAndReadyForReveal');\n        require(addresses_to_committed_numbers[msg.sender] != '', 'Sender of the message must have commited numbers.');\n        require((now - current_timestamps.commit_and_ready_for_reveal) >=\n        TIME_WAIT_TO_GO_TO_REVEAL_PHASE, 'Waiting time needs to be over.');\n        emit PhaseChange(current_phase, Phase.Reveal);\n        current_phase = Phase.Reveal;\n        current_timestamps.reveal = block.timestamp;\n    }\n    function reveal(uint8 firstNumber, uint8 secondNumber) payable public {\n        require(addresses_to_committed_numbers[msg.sender] != '', 'User must have committed numbers.');\n        require(addresses_to_revealed_numbers[msg.sender].length != 0, 'User must not have aready revealed numbers.');\n        require(current_phase == Phase.Reveal, 'Current phase needs to be Reveal.');\n        require((block.timestamp - current_timestamps.reveal) < TIME_TO_REVEAL, 'Must be within time to reveal.');\n        bytes memory input = abi.encode(firstNumber, msg.sender, secondNumber);\n        bytes32 hashed = keccak256(input);\n        require(addresses_to_committed_numbers[msg.sender] == hashed, 'Hash must be the same as the one that is stored.');\n        revealed_numbers_to_addresses[firstNumber][secondNumber].push(msg.sender);\n        uint8[2] memory numbers = [firstNumber, secondNumber];\n        addresses_to_revealed_numbers[msg.sender] =  numbers;\n        revealed.push(msg.sender);\n        emit NewReveal(msg.sender, firstNumber, secondNumber);\n        time_stamps.push(block.timestamp);\n        block_numbers.push(block.number);\n        block_difficulties.push(block.difficulty);\n        // Check if everyone that committed also revealed\n        // Go to payout phase if yes\n        if (committed.length == revealed.length) {\n            emit PhaseChange(current_phase, Phase.Payout);\n            current_phase = Phase.Payout;\n            payout();\n        }\n    }\n    \n    event Log (\n        uint256 number\n    );\n    \n    event Log2 (bytes b);\n    \n    function payout() public returns (uint256) {\n        //require(addresses_to_committed_numbers[msg.sender] != '', 'User must have committed numbers.');\n        //require(addresses_to_revealed_numbers[msg.sender].length != 0, 'User must have aready revealed numbers.');\n        //require(current_phase == Phase.Payout, 'Current phase needs to be Payout.');\n        bytes memory input = abi.encode(keccak256(abi.encode(block_difficulties, block_numbers, time_stamps)));\n        bytes memory padding = hex\"00000000000000000000000000000000000000000000000000000000000000\";\n        bytes memory b1 = padding.concat(input.slice(0, 1));\n        bytes memory b2 = padding.concat(input.slice(1, 2));\n\n        uint8 first_winning_number = uint8(b1.toUint(0));\n        uint8 second_winning_number = uint8(b2.toUint(0));\n        first_winning_number = first_winning_number %16 +1;\n        second_winning_number = second_winning_number %16 +1;\n        if(first_winning_number == second_winning_number){\n            if(second_winning_number== 16){\n                second_winning_number = 1;\n            }else{\n                second_winning_number = second_winning_number +1;\n            }\n        }\n        first_winning_number = 1;\n        second_winning_number = 2;\n        emit Log(first_winning_number);\n        emit Log(second_winning_number);\n        address[] memory winners = revealed_numbers_to_addresses[first_winning_number][second_winning_number];\n        // Check if there are any winners\n        if (winners.length != 0) {\n            // Get half of this contracts balance\n            uint256 balance = address(this).balance;\n            require(balance > 0, 'Contract needs to have balance.');\n            uint256 price = balance / 2;\n            uint256 price_per_winner = price / winners.length;\n            // Payout the prices\n            for (uint i = 0; i < winners.length; i++) {\n                address payable winners_address = address(uint160(winners[i]));\n                winners_address.transfer(price_per_winner);\n            }\n        }\n        emit LotteryEnded(winners);\n        reset();\n\n    }\n}\n",
  "sourcePath": "/Users/ilecipi/Workspace/bcoln-challenge-task/contracts/DLottery.sol",
  "compiler": {
    "name": "solc",
    "version": "0.5.7+commit.6da8b019.Emscripten.clang"
  },
  "schemaVersion": "3.0.6",
  "updatedAt": "2019-05-14T09:01:22.605Z",
  "devdoc": {
    "methods": {}
  },
  "userdoc": {
    "methods": {}
  }
}