{
  "contractName": "DLottery",
  "abi": [
    {
      "constant": true,
      "inputs": [
        {
          "name": "",
          "type": "uint256"
        }
      ],
      "name": "revealed",
      "outputs": [
        {
          "name": "",
          "type": "address"
        }
      ],
      "payable": false,
      "stateMutability": "view",
      "type": "function",
      "signature": "0x61a2bc01"
    },
    {
      "constant": true,
      "inputs": [
        {
          "name": "",
          "type": "uint256"
        }
      ],
      "name": "committed",
      "outputs": [
        {
          "name": "",
          "type": "address"
        }
      ],
      "payable": false,
      "stateMutability": "view",
      "type": "function",
      "signature": "0x99bd9267"
    },
    {
      "constant": true,
      "inputs": [
        {
          "name": "",
          "type": "uint8"
        },
        {
          "name": "",
          "type": "uint8"
        },
        {
          "name": "",
          "type": "uint256"
        }
      ],
      "name": "revealed_numbers_to_addresses",
      "outputs": [
        {
          "name": "",
          "type": "address"
        }
      ],
      "payable": false,
      "stateMutability": "view",
      "type": "function",
      "signature": "0xb834e700"
    },
    {
      "constant": true,
      "inputs": [],
      "name": "current_phase",
      "outputs": [
        {
          "name": "",
          "type": "uint8"
        }
      ],
      "payable": false,
      "stateMutability": "view",
      "type": "function",
      "signature": "0xbb9c9d77"
    },
    {
      "constant": true,
      "inputs": [],
      "name": "current_timestamps",
      "outputs": [
        {
          "name": "commit",
          "type": "uint256"
        },
        {
          "name": "commit_and_ready_for_reveal",
          "type": "uint256"
        },
        {
          "name": "reveal",
          "type": "uint256"
        },
        {
          "name": "payout",
          "type": "uint256"
        }
      ],
      "payable": false,
      "stateMutability": "view",
      "type": "function",
      "signature": "0xd2ecf7bf"
    },
    {
      "inputs": [],
      "payable": false,
      "stateMutability": "nonpayable",
      "type": "constructor",
      "signature": "constructor"
    },
    {
      "anonymous": false,
      "inputs": [
        {
          "indexed": false,
          "name": "sender",
          "type": "address"
        },
        {
          "indexed": false,
          "name": "commitHash",
          "type": "bytes32"
        }
      ],
      "name": "NewCommit",
      "type": "event",
      "signature": "0x0290e16ca163280238cff6bd42c77cb055d3ff42239fe48bc5b8ec6edf5065c9"
    },
    {
      "anonymous": false,
      "inputs": [
        {
          "indexed": false,
          "name": "sender",
          "type": "address"
        },
        {
          "indexed": false,
          "name": "first_number",
          "type": "uint8"
        },
        {
          "indexed": false,
          "name": "second_number",
          "type": "uint8"
        }
      ],
      "name": "NewReveal",
      "type": "event",
      "signature": "0x5537213d56fcd58df8e4fa27754f5d1835653bde9364c0ffa2cb0519bc128e83"
    },
    {
      "anonymous": false,
      "inputs": [
        {
          "indexed": false,
          "name": "sender",
          "type": "address"
        }
      ],
      "name": "Reset",
      "type": "event",
      "signature": "0x162f46783fcc741c289a7af5bd16474ace09d7e8a9d5fe1ac0d37b12afc0ccac"
    },
    {
      "anonymous": false,
      "inputs": [
        {
          "indexed": false,
          "name": "old_phase",
          "type": "uint8"
        },
        {
          "indexed": false,
          "name": "new_phase",
          "type": "uint8"
        }
      ],
      "name": "PhaseChange",
      "type": "event",
      "signature": "0x5e45bf0703fe855c9fa7c44122b9f47ad1075a0cc5dc8ae88903470067cba7e5"
    },
    {
      "anonymous": false,
      "inputs": [
        {
          "indexed": false,
          "name": "winners",
          "type": "address[]"
        }
      ],
      "name": "LotteryEnded",
      "type": "event",
      "signature": "0x1364a66c10650b51f40fbdd70a9c9553915721688179be49b98ae5979b861839"
    },
    {
      "constant": true,
      "inputs": [],
      "name": "getCommitted",
      "outputs": [
        {
          "name": "",
          "type": "address[]"
        }
      ],
      "payable": false,
      "stateMutability": "view",
      "type": "function",
      "signature": "0xb0a398ab"
    },
    {
      "constant": true,
      "inputs": [],
      "name": "getRevealed",
      "outputs": [
        {
          "name": "",
          "type": "address[]"
        }
      ],
      "payable": false,
      "stateMutability": "view",
      "type": "function",
      "signature": "0x94cc4140"
    },
    {
      "constant": true,
      "inputs": [],
      "name": "getFee",
      "outputs": [
        {
          "name": "",
          "type": "uint256"
        }
      ],
      "payable": false,
      "stateMutability": "pure",
      "type": "function",
      "signature": "0xced72f87"
    },
    {
      "constant": true,
      "inputs": [],
      "name": "getTimers",
      "outputs": [
        {
          "name": "LEFT_COMMIT_AND_REVEAL",
          "type": "uint256"
        },
        {
          "name": "TO_ABORT",
          "type": "uint256"
        },
        {
          "name": "WAIT_TO_GO_TO_REVEAL_PHASE",
          "type": "uint256"
        },
        {
          "name": "TO_REVEAL",
          "type": "uint256"
        }
      ],
      "payable": false,
      "stateMutability": "view",
      "type": "function",
      "signature": "0x66945574"
    },
    {
      "constant": false,
      "inputs": [],
      "name": "user_committed",
      "outputs": [
        {
          "name": "",
          "type": "bool"
        }
      ],
      "payable": false,
      "stateMutability": "nonpayable",
      "type": "function",
      "signature": "0x6a917cef"
    },
    {
      "constant": false,
      "inputs": [
        {
          "name": "hash",
          "type": "bytes32"
        }
      ],
      "name": "commit",
      "outputs": [],
      "payable": true,
      "stateMutability": "payable",
      "type": "function",
      "signature": "0xf14fcbc8"
    },
    {
      "constant": false,
      "inputs": [],
      "name": "reset",
      "outputs": [],
      "payable": false,
      "stateMutability": "nonpayable",
      "type": "function",
      "signature": "0xd826f88f"
    },
    {
      "constant": false,
      "inputs": [],
      "name": "goToRevealPhase",
      "outputs": [],
      "payable": true,
      "stateMutability": "payable",
      "type": "function",
      "signature": "0xaf38ac1e"
    },
    {
      "constant": false,
      "inputs": [
        {
          "name": "firstNumber",
          "type": "uint8"
        },
        {
          "name": "secondNumber",
          "type": "uint8"
        }
      ],
      "name": "reveal",
      "outputs": [],
      "payable": true,
      "stateMutability": "payable",
      "type": "function",
      "signature": "0xdfd61558"
    }
  ],
  "bytecode": "0x608060405234801561001057600080fd5b50336000806101000a81548173ffffffffffffffffffffffffffffffffffffffff021916908373ffffffffffffffffffffffffffffffffffffffff1602179055506000600960006101000a81548160ff0219169083600381111561007057fe5b0217905550604051806080016040528042815260200160008152602001600081526020016000815250600a6000820151816000015560208201518160010155604082015181600201556060820151816003015590505042600a600001819055506117bc806100df6000396000f3fe6080604052600436106100fa576000357c010000000000000000000000000000000000000000000000000000000090048063b834e7001161009c578063d2ecf7bf11610076578063d2ecf7bf1461043f578063d826f88f1461047f578063dfd6155814610496578063f14fcbc8146104d4576100fa565b8063b834e70014610346578063bb9c9d77146103db578063ced72f8714610414576100fa565b806394cc4140116100d857806394cc4140146101e957806399bd926714610255578063af38ac1e146102d0578063b0a398ab146102da576100fa565b806361a2bc01146100ff578063669455741461017a5780636a917cef146101ba575b600080fd5b34801561010b57600080fd5b506101386004803603602081101561012257600080fd5b8101908080359060200190929190505050610502565b604051808273ffffffffffffffffffffffffffffffffffffffff1673ffffffffffffffffffffffffffffffffffffffff16815260200191505060405180910390f35b34801561018657600080fd5b5061018f61053e565b6040518085815260200184815260200183815260200182815260200194505050505060405180910390f35b3480156101c657600080fd5b506101cf61055c565b604051808215151515815260200191505060405180910390f35b3480156101f557600080fd5b506101fe6105a6565b6040518080602001828103825283818151815260200191508051906020019060200280838360005b83811015610241578082015181840152602081019050610226565b505050509050019250505060405180910390f35b34801561026157600080fd5b5061028e6004803603602081101561027857600080fd5b8101908080359060200190929190505050610634565b604051808273ffffffffffffffffffffffffffffffffffffffff1673ffffffffffffffffffffffffffffffffffffffff16815260200191505060405180910390f35b6102d8610670565b005b3480156102e657600080fd5b506102ef61079e565b6040518080602001828103825283818151815260200191508051906020019060200280838360005b83811015610332578082015181840152602081019050610317565b505050509050019250505060405180910390f35b34801561035257600080fd5b506103996004803603606081101561036957600080fd5b81019080803560ff169060200190929190803560ff1690602001909291908035906020019092919050505061082c565b604051808273ffffffffffffffffffffffffffffffffffffffff1673ffffffffffffffffffffffffffffffffffffffff16815260200191505060405180910390f35b3480156103e757600080fd5b506103f0610884565b6040518082600381111561040057fe5b60ff16815260200191505060405180910390f35b34801561042057600080fd5b50610429610897565b6040518082815260200191505060405180910390f35b34801561044b57600080fd5b506104546108a6565b6040518085815260200184815260200183815260200182815260200194505050505060405180910390f35b34801561048b57600080fd5b506104946108c4565b005b6104d2600480360360408110156104ac57600080fd5b81019080803560ff169060200190929190803560ff169060200190929190505050610c0a565b005b610500600480360360208110156104ea57600080fd5b8101908080359060200190929190505050610f2f565b005b6002818154811061050f57fe5b906000526020600020016000915054906101000a900473ffffffffffffffffffffffffffffffffffffffff1681565b600080600080603c610258600a610258935093509350935090919293565b600080600360003373ffffffffffffffffffffffffffffffffffffffff1673ffffffffffffffffffffffffffffffffffffffff168152602001908152602001600020541415905090565b6060600280548060200260200160405190810160405280929190818152602001828054801561062a57602002820191906000526020600020905b8160009054906101000a900473ffffffffffffffffffffffffffffffffffffffff1673ffffffffffffffffffffffffffffffffffffffff16815260200190600101908083116105e0575b5050505050905090565b6001818154811061064157fe5b906000526020600020016000915054906101000a900473ffffffffffffffffffffffffffffffffffffffff1681565b6001600381111561067d57fe5b600960009054906101000a900460ff16600381111561069857fe5b146106a257600080fd5b6000600360003373ffffffffffffffffffffffffffffffffffffffff1673ffffffffffffffffffffffffffffffffffffffff1681526020019081526020016000205414156106ef57600080fd5b600a80600101544203101561070357600080fd5b7f5e45bf0703fe855c9fa7c44122b9f47ad1075a0cc5dc8ae88903470067cba7e5600960009054906101000a900460ff1660026040518083600381111561074657fe5b60ff16815260200182600381111561075a57fe5b60ff1681526020019250505060405180910390a16002600960006101000a81548160ff0219169083600381111561078d57fe5b021790555042600a60020181905550565b6060600180548060200260200160405190810160405280929190818152602001828054801561082257602002820191906000526020600020905b8160009054906101000a900473ffffffffffffffffffffffffffffffffffffffff1673ffffffffffffffffffffffffffffffffffffffff16815260200190600101908083116107d8575b5050505050905090565b6004602052826000526040600020602052816000526040600020818154811061085157fe5b90600052602060002001600092509250509054906101000a900473ffffffffffffffffffffffffffffffffffffffff1681565b600960009054906101000a900460ff1681565b6000660210aa59fc4296905090565b600a8060000154908060010154908060020154908060030154905084565b7f5e45bf0703fe855c9fa7c44122b9f47ad1075a0cc5dc8ae88903470067cba7e5600960009054906101000a900460ff1660006040518083600381111561090757fe5b60ff16815260200182600381111561091b57fe5b60ff1681526020019250505060405180910390a16000600960006101000a81548160ff0219169083600381111561094e57fe5b021790555060008090505b6001805490508110156109ed57600360006001838154811061097757fe5b9060005260206000200160009054906101000a900473ffffffffffffffffffffffffffffffffffffffff1673ffffffffffffffffffffffffffffffffffffffff1673ffffffffffffffffffffffffffffffffffffffff168152602001908152602001600020600090558080600101915050610959565b506000600890505b600280549050811015610a91576005600060028381548110610a1357fe5b9060005260206000200160009054906101000a900473ffffffffffffffffffffffffffffffffffffffff1673ffffffffffffffffffffffffffffffffffffffff1673ffffffffffffffffffffffffffffffffffffffff1681526020019081526020016000206000610a849190611701565b80806001019150506109f5565b5060016000610aa09190611729565b60026000610aae9190611729565b60008090505b60108160ff161015610b295760008090505b60108260ff161015610b1b57600460008360ff1660ff16815260200190815260200160002060008260ff1660ff1681526020019081526020016000206000610b0e9190611729565b8180600101925050610ac6565b508080600101915050610ab4565b5060066000610b38919061174a565b60086000610b46919061174a565b60076000610b54919061174a565b604051806080016040528042815260200160008152602001600081526020016000815250600a600082015181600001556020820151816001015560408201518160020155606082015181600301559050507f162f46783fcc741c289a7af5bd16474ace09d7e8a9d5fe1ac0d37b12afc0ccac33604051808273ffffffffffffffffffffffffffffffffffffffff1673ffffffffffffffffffffffffffffffffffffffff16815260200191505060405180910390a1565b6060823383604051602001808460ff1660ff1681526020018373ffffffffffffffffffffffffffffffffffffffff1673ffffffffffffffffffffffffffffffffffffffff1681526020018260ff1660ff16815260200193505050506040516020818303038152906040529050600081805190602001209050600460008560ff1660ff16815260200190815260200160002060008460ff1660ff1681526020019081526020016000203390806001815401808255809150509060018203906000526020600020016000909192909190916101000a81548173ffffffffffffffffffffffffffffffffffffffff021916908373ffffffffffffffffffffffffffffffffffffffff1602179055505060023390806001815401808255809150509060018203906000526020600020016000909192909190916101000a81548173ffffffffffffffffffffffffffffffffffffffff021916908373ffffffffffffffffffffffffffffffffffffffff160217905550507f5537213d56fcd58df8e4fa27754f5d1835653bde9364c0ffa2cb0519bc128e83338585604051808473ffffffffffffffffffffffffffffffffffffffff1673ffffffffffffffffffffffffffffffffffffffff1681526020018360ff1660ff1681526020018260ff1660ff168152602001935050505060405180910390a16006429080600181540180825580915050906001820390600052602060002001600090919290919091505550600743908060018154018082558091505090600182039060005260206000200160009091929091909150555060084490806001815401808255809150509060018203906000526020600020016000909192909190915055506002805490506001805490501415610f29577f5e45bf0703fe855c9fa7c44122b9f47ad1075a0cc5dc8ae88903470067cba7e5600960009054906101000a900460ff16600360405180836003811115610ed457fe5b60ff168152602001826003811115610ee857fe5b60ff1681526020019250505060405180910390a16003600960006101000a81548160ff02191690836003811115610f1b57fe5b0217905550610f28611310565b5b50505050565b6000600360003373ffffffffffffffffffffffffffffffffffffffff1673ffffffffffffffffffffffffffffffffffffffff1681526020019081526020016000205414610fe4576040517f08c379a00000000000000000000000000000000000000000000000000000000081526004018080602001828103825260118152602001807f416c726561647920636f6d6d697474656400000000000000000000000000000081525060200191505060405180910390fd5b660210aa59fc42963414610ff757600080fd5b6000600381111561100457fe5b600960009054906101000a900460ff16600381111561101f57fe5b148061105057506001600381111561103357fe5b600960009054906101000a900460ff16600381111561104e57fe5b145b61105957600080fd5b6001600381111561106657fe5b600960009054906101000a900460ff16600381111561108157fe5b141561109c57603c600a6001015442031061109b57600080fd5b5b80600360003373ffffffffffffffffffffffffffffffffffffffff1673ffffffffffffffffffffffffffffffffffffffff16815260200190815260200160002081905550600060013390806001815401808255809150509060018203906000526020600020016000909192909190916101000a81548173ffffffffffffffffffffffffffffffffffffffff021916908373ffffffffffffffffffffffffffffffffffffffff16021790555090506000600381111561115657fe5b600960009054906101000a900460ff16600381111561117157fe5b14801561117e5750600181145b1561121d577f5e45bf0703fe855c9fa7c44122b9f47ad1075a0cc5dc8ae88903470067cba7e5600960009054906101000a900460ff166001604051808360038111156111c657fe5b60ff1681526020018260038111156111da57fe5b60ff1681526020019250505060405180910390a16001600960006101000a81548160ff0219169083600381111561120d57fe5b021790555042600a600101819055505b7f0290e16ca163280238cff6bd42c77cb055d3ff42239fe48bc5b8ec6edf5065c93383604051808373ffffffffffffffffffffffffffffffffffffffff1673ffffffffffffffffffffffffffffffffffffffff1681526020018281526020019250505060405180910390a16006429080600181540180825580915050906001820390600052602060002001600090919290919091505550600743908060018154018082558091505090600182039060005260206000200160009091929091909150555060084490806001815401808255809150509060018203906000526020600020016000909192909190915055505050565b60038081111561131c57fe5b600960009054906101000a900460ff16600381111561133757fe5b1461134157600080fd5b606060066007600860405160200180806020018060200180602001848103845287818154815260200191508054801561139957602002820191906000526020600020905b815481526020019060010190808311611385575b505084810383528681815481526020019150805480156113d857602002820191906000526020600020905b8154815260200190600101908083116113c4575b5050848103825285818154815260200191508054801561141757602002820191906000526020600020905b815481526020019060010190808311611403575b505096505050505050506040516020818303038152906040529050600081805190602001209050600061144b82600061166d565b9050600061145a83601861166d565b90506060600460008460ff1660ff16815260200190815260200160002060008360ff1660ff16815260200190815260200160002080548060200260200160405190810160405280929190818152602001828054801561150e57602002820191906000526020600020905b8160009054906101000a900473ffffffffffffffffffffffffffffffffffffffff1673ffffffffffffffffffffffffffffffffffffffff16815260200190600101908083116114c4575b50505050509050600081511461165e5760003073ffffffffffffffffffffffffffffffffffffffff163190506000811161154757600080fd5b7f1364a66c10650b51f40fbdd70a9c9553915721688179be49b98ae5979b861839826040518080602001828103825283818151815260200191508051906020019060200280838360005b838110156115ac578082015181840152602081019050611591565b505050509050019250505060405180910390a16000600282816115cb57fe5b0490506000835182816115da57fe5b04905060008090505b84518110156116595760008582815181106115fa57fe5b602002602001015190508073ffffffffffffffffffffffffffffffffffffffff166108fc849081150290604051600060405180830381858888f1935050505015801561164a573d6000803e3d6000fd5b505080806001019150506115e3565b505050505b6116666108c4565b5050505050565b600060088201602060ff1610156116ec576040517f08c379a00000000000000000000000000000000000000000000000000000000081526004018080602001828103825260148152602001807f736c6963696e67206f7574206f662072616e676500000000000000000000000081525060200191505060405180910390fd5b60008260200184015190508091505092915050565b50805460008255601f016020900490600052602060002090810190611726919061176b565b50565b5080546000825590600052602060002090810190611747919061176b565b50565b5080546000825590600052602060002090810190611768919061176b565b50565b61178d91905b80821115611789576000816000905550600101611771565b5090565b9056fea165627a7a7230582061a2dabbdcf5cfafc0d8de06eaf641e038691c6f454c944c2ca70ef161aea8ff0029",
  "source": "pragma solidity ^0.5.7;\n\ncontract DLottery {\n    \n    uint256 constant ENTRY_FEE = 581273793610390;\n    \n    address owner;\n    \n    address[] public committed;\n    address[] public revealed;\n    mapping(address => bytes32) private addresses_to_committed_numbers;\n    mapping(uint8 => mapping(uint8 => address[])) public revealed_numbers_to_addresses;\n    mapping(address => uint8[]) addresses_to_revealed_numbers;\n    \n    uint256 constant TIME_LEFT_COMMIT_AND_REVEAL = 60; // 30 seconds\n    uint256 constant TIME_TO_ABORT =  10 * 60; // 10 minutes\n    uint256 constant TIME_WAIT_TO_GO_TO_REVEAL_PHASE = 10; // 30 seconds\n    uint256 constant TIME_TO_REVEAL = 10 * 60; // 10 minutes\n    \n    uint256 constant NUMBER_OF_REQUIRED_PARTICIPANTS = 1;\n    \n    uint256[] private time_stamps;\n    uint256[] private block_numbers;\n    uint256[] private block_difficulties;\n    \n    enum Phase { Commit, CommitAndReadyForReveal, Reveal, Payout }\n    Phase public current_phase;\n    \n    // time stamps of when the phases were entered\n    struct TimeStamps {\n        uint256 commit;\n        uint256 commit_and_ready_for_reveal;\n        uint256 reveal;\n        uint256 payout;\n    }\n    \n    TimeStamps public current_timestamps;\n\n    event NewCommit(\n        address sender,\n        bytes32 commitHash\n    );\n    \n    event NewReveal(\n        address sender,\n        uint8 first_number,\n        uint8 second_number\n    );\n    \n    event Reset(\n        address sender\n    );\n    \n    event PhaseChange(\n        Phase old_phase,\n        Phase new_phase\n    );\n    \n    event LotteryEnded(\n        address[] winners\n    );\n    \n    constructor() public {\n        owner = msg.sender;\n        current_phase = Phase.Commit;\n        current_timestamps = TimeStamps(now, 0, 0, 0);\n        current_timestamps.commit = now;\n    }\n    \n    function getCommitted() public view returns (address[] memory) {\n        return committed;\n    }\n    \n    function getRevealed() public view returns (address[] memory) {\n        return revealed;\n    }\n    \n    function getFee() pure public returns (uint256) {\n        return ENTRY_FEE;\n    }\n\n    function getTimers() public view returns (uint256 LEFT_COMMIT_AND_REVEAL, uint256 TO_ABORT, uint256 WAIT_TO_GO_TO_REVEAL_PHASE, uint256 TO_REVEAL) {\n        return (TIME_LEFT_COMMIT_AND_REVEAL,TIME_TO_ABORT,TIME_WAIT_TO_GO_TO_REVEAL_PHASE,TIME_TO_REVEAL);\n    }\n    \n    function user_committed() public returns (bool) {\n        return !(addresses_to_committed_numbers[msg.sender] == '');\n    }\n    \n    function commit(bytes32 hash) payable public {\n        require(addresses_to_committed_numbers[msg.sender] == '', 'Already committed');\n        require(msg.value == ENTRY_FEE);\n        require(current_phase == Phase.Commit || current_phase == Phase.CommitAndReadyForReveal);\n        if (current_phase == Phase.CommitAndReadyForReveal) {\n            require((now - current_timestamps.commit_and_ready_for_reveal) < TIME_LEFT_COMMIT_AND_REVEAL);\n        }\n        addresses_to_committed_numbers[msg.sender] = hash;\n        uint256 new_number_of_participants = committed.push(msg.sender);\n        if (current_phase == Phase.Commit && new_number_of_participants == NUMBER_OF_REQUIRED_PARTICIPANTS) {\n            // Automatically go to commit and ready to reveal phase\n            emit PhaseChange(current_phase, Phase.CommitAndReadyForReveal);\n            current_phase = Phase.CommitAndReadyForReveal;\n            current_timestamps.commit_and_ready_for_reveal = now;\n        }\n        emit NewCommit(msg.sender, hash);\n        time_stamps.push(now);\n        block_numbers.push(block.number);\n        block_difficulties.push(block.difficulty);\n    }\n    \n    function reset() public {\n        emit PhaseChange(current_phase, Phase.Commit);\n        current_phase = Phase.Commit;\n        for(uint i = 0; i < committed.length; i++) {\n            delete addresses_to_committed_numbers[committed[i]];\n        }\n        for(uint i = 8; i < revealed.length; i++) {\n            delete addresses_to_revealed_numbers[revealed[i]];\n        }\n        delete committed;\n        delete revealed;\n        for(uint8 i = 0; i < 16; i++) {\n            for(uint8 j = 0; i < 16; i++) {\n                delete revealed_numbers_to_addresses[i][j];\n            }\n        }\n        delete time_stamps;\n        delete block_difficulties;\n        delete block_numbers;\n        current_timestamps = TimeStamps(now, 0, 0, 0);\n        emit Reset(msg.sender);\n    }\n    \n    function goToRevealPhase() payable public {\n        require(current_phase == Phase.CommitAndReadyForReveal);\n        require(addresses_to_committed_numbers[msg.sender] != '');\n        require((now - current_timestamps.commit_and_ready_for_reveal) >= TIME_WAIT_TO_GO_TO_REVEAL_PHASE);\n        emit PhaseChange(current_phase, Phase.Reveal);\n        current_phase = Phase.Reveal;\n        current_timestamps.reveal = now;\n    }\n    \n    function reveal(uint8 firstNumber, uint8 secondNumber) payable public {\n        //require(addresses_to_committed_numbers[msg.sender] != '', 'User did not commit anything');\n        //require(addresses_to_revealed_numbers[msg.sender].length == 0, 'User already revealed numbers.');\n        //require(current_phase == Phase.Reveal);\n        //require((now - current_timestamps.reveal) < TIME_TO_REVEAL);\n        bytes memory input = abi.encode(firstNumber, msg.sender, secondNumber);\n        bytes32 hashed = keccak256(input);\n        //require(addresses_to_committed_numbers[msg.sender] == hashed);\n        revealed_numbers_to_addresses[firstNumber][secondNumber].push(msg.sender);\n        revealed.push(msg.sender);\n        emit NewReveal(msg.sender, firstNumber, secondNumber);\n        time_stamps.push(now);\n        block_numbers.push(block.number);\n        block_difficulties.push(block.difficulty);\n        \n        // Check if everyone that committed also revealed\n        // Go to payout phase if yes\n        if (committed.length == revealed.length) {\n            emit PhaseChange(current_phase, Phase.Payout);\n            current_phase = Phase.Payout;\n            payout();\n        }\n    }\n    \n    function payout() private {\n        require(current_phase == Phase.Payout);\n        bytes memory input = abi.encode(time_stamps, block_numbers, block_difficulties);\n        bytes32 hashed_information = keccak256(input);\n        uint8 first_winning_number = sliceUint8(hashed_information, 0);\n        uint8 second_winning_number = sliceUint8(hashed_information, 24);\n        address[] memory winners = revealed_numbers_to_addresses[first_winning_number][second_winning_number];\n        \n        // Check if there are any winners\n        if (winners.length != 0) {\n            // Get half of this contracts balance\n            uint256 balance = address(this).balance;\n            require(balance > 0);\n            emit LotteryEnded(winners);\n            uint256 price = balance / 2;\n            uint256 price_per_winner = price / winners.length;\n            // Payout the prices\n            for (uint i = 0; i < winners.length; i++) {\n                address payable winners_address = address(uint160(winners[i]));\n                winners_address.transfer(price_per_winner);\n            }\n        }\n        \n        // Start the lottery again;\n        reset();\n    }\n    \n    function sliceUint8(bytes32 bs, uint start)internal pure returns (uint8) {\n        require(bs.length >= start + 8, \"slicing out of range\");\n            uint8 x;\n            assembly {\n                x := mload(add(bs, add(0x20, start)))\n            }\n        return x;\n    }\n}\n",
  "sourcePath": "/home/tim/dev/uni/bcoln-challenge-task/contracts/DLottery_3.0.1.sol",
  "compiler": {
    "name": "solc",
    "version": "0.5.7+commit.6da8b019.Emscripten.clang"
  },
  "schemaVersion": "3.0.8",
  "updatedAt": "2019-04-30T13:57:04.326Z",
  "devdoc": {
    "methods": {}
  },
  "userdoc": {
    "methods": {}
  }
}