{
  "contractName": "DLottery",
  "abi": [
    {
      "constant": true,
      "inputs": [
        {
          "name": "",
          "type": "uint256"
        }
      ],
      "name": "revealed",
      "outputs": [
        {
          "name": "",
          "type": "address"
        }
      ],
      "payable": false,
      "stateMutability": "view",
      "type": "function",
      "signature": "0x61a2bc01"
    },
    {
      "constant": true,
      "inputs": [
        {
          "name": "",
          "type": "uint256"
        }
      ],
      "name": "committed",
      "outputs": [
        {
          "name": "",
          "type": "address"
        }
      ],
      "payable": false,
      "stateMutability": "view",
      "type": "function",
      "signature": "0x99bd9267"
    },
    {
      "constant": true,
      "inputs": [
        {
          "name": "",
          "type": "uint256"
        }
      ],
      "name": "current_phase",
      "outputs": [
        {
          "name": "",
          "type": "uint8"
        }
      ],
      "payable": false,
      "stateMutability": "view",
      "type": "function",
      "signature": "0xa73ce9ef"
    },
    {
      "constant": true,
      "inputs": [
        {
          "name": "",
          "type": "uint256"
        },
        {
          "name": "",
          "type": "uint256"
        },
        {
          "name": "",
          "type": "uint256"
        }
      ],
      "name": "revealed_numbers_to_addresses",
      "outputs": [
        {
          "name": "",
          "type": "address"
        }
      ],
      "payable": false,
      "stateMutability": "view",
      "type": "function",
      "signature": "0xbb9c9d77"
    },
    {
      "constant": true,
      "inputs": [
        {
          "name": "",
          "type": "uint256"
        },
        {
          "name": "",
          "type": "uint256"
        },
        {
          "name": "",
          "type": "uint256"
        }
      ],
      "name": "current_timestamps",
      "outputs": [
        {
          "name": "commit",
          "type": "uint256"
        },
        {
          "name": "commit_and_ready_for_reveal",
          "type": "uint256"
        },
        {
          "name": "reveal",
          "type": "uint256"
        },
        {
          "name": "payout",
          "type": "uint256"
        }
      ],
      "payable": false,
      "stateMutability": "view",
      "type": "function",
      "signature": "0xcee1cb8a"
    },
    {
      "constant": true,
      "inputs": [],
      "name": "current_timestamps",
      "outputs": [
        {
          "name": "commit",
          "type": "uint256"
        },
        {
          "name": "commit_and_ready_for_reveal",
          "type": "uint256"
        },
        {
          "name": "reveal",
          "type": "uint256"
        },
        {
          "name": "payout",
          "type": "uint256"
        }
      ],
      "payable": false,
      "stateMutability": "nonpayable",
      "type": "constructor",
      "signature": "0xd2ecf7bf"
    },
    {
      "inputs": [
        {
          "indexed": false,
          "name": "sender",
          "type": "address"
        },
        {
          "indexed": false,
          "name": "commitHash",
          "type": "bytes32"
        }
      ],
      "payable": false,
      "stateMutability": "nonpayable",
      "type": "event",
      "signature": "constructor",
      "anonymous": false,
      "name": "NewCommit"
    },
    {
      "anonymous": false,
      "inputs": [
        {
          "indexed": false,
          "name": "sender",
          "type": "address"
        },
        {
          "indexed": false,
          "name": "first_number",
          "type": "uint8"
        },
        {
          "indexed": false,
          "name": "second_number",
          "type": "uint8"
        }
      ],
      "name": "NewReveal",
      "type": "event",
      "signature": "0x0290e16ca163280238cff6bd42c77cb055d3ff42239fe48bc5b8ec6edf5065c9"
    },
    {
      "anonymous": false,
      "inputs": [
        {
          "indexed": false,
          "name": "sender",
          "type": "address"
        },
        {
          "indexed": false,
          "name": "first_number",
          "type": "uint8"
        },
        {
          "indexed": false,
          "name": "second_number",
          "type": "uint8"
        }
      ],
      "name": "Reset",
      "type": "event",
      "signature": "0x5537213d56fcd58df8e4fa27754f5d1835653bde9364c0ffa2cb0519bc128e83"
    },
    {
      "anonymous": false,
      "inputs": [
        {
          "indexed": false,
          "name": "old_phase",
          "type": "uint8"
        },
        {
          "indexed": false,
          "name": "new_phase",
          "type": "uint8"
        }
      ],
      "name": "PhaseChange",
      "type": "event",
      "signature": "0x162f46783fcc741c289a7af5bd16474ace09d7e8a9d5fe1ac0d37b12afc0ccac"
    },
    {
      "anonymous": false,
      "inputs": [
        {
          "indexed": false,
          "name": "winners",
          "type": "address[]"
        },
        {
          "indexed": false,
          "name": "new_phase",
          "type": "uint8"
        }
      ],
      "name": "LotteryEnded",
      "type": "event",
      "signature": "0x5e45bf0703fe855c9fa7c44122b9f47ad1075a0cc5dc8ae88903470067cba7e5"
    },
    {
      "anonymous": false,
      "inputs": [
        {
          "indexed": false,
          "name": "number",
          "type": "uint256"
        }
      ],
      "name": "Log",
      "type": "event",
      "signature": "0x1364a66c10650b51f40fbdd70a9c9553915721688179be49b98ae5979b861839"
    },
    {
      "constant": true,
      "inputs": [
        {
          "indexed": false,
          "name": "b",
          "type": "bytes"
        }
      ],
      "name": "Log2",
      "outputs": [
        {
          "name": "",
          "type": "address[]"
        }
      ],
      "payable": false,
      "stateMutability": "view",
      "type": "event",
      "signature": "0xb0a398ab",
      "anonymous": false
    },
    {
      "constant": true,
      "inputs": [],
      "name": "getCommitted",
      "outputs": [
        {
          "name": "",
          "type": "address[]"
        }
      ],
      "payable": false,
      "stateMutability": "view",
      "type": "function",
      "signature": "0x94cc4140"
    },
    {
      "constant": true,
      "inputs": [],
      "name": "getRevealed",
      "outputs": [
        {
          "name": "",
          "type": "address[]"
        }
      ],
      "payable": false,
      "stateMutability": "view",
      "type": "function",
      "signature": "0xced72f87"
    },
    {
      "constant": true,
      "inputs": [],
      "name": "getFee",
      "outputs": [
        {
          "name": "",
          "type": "uint256"
        },
        {
          "name": "TO_ABORT",
          "type": "uint256"
        },
        {
          "name": "WAIT_TO_GO_TO_REVEAL_PHASE",
          "type": "uint256"
        },
        {
          "name": "TO_REVEAL",
          "type": "uint256"
        }
      ],
      "payable": false,
      "stateMutability": "pure",
      "type": "function",
      "signature": "0x66945574"
    },
    {
      "constant": true,
      "inputs": [],
      "name": "getTimers",
      "outputs": [
        {
          "name": "LEFT_COMMIT_AND_REVEAL",
          "type": "uint256"
        },
        {
          "name": "TO_ABORT",
          "type": "uint256"
        },
        {
          "name": "WAIT_TO_GO_TO_REVEAL_PHASE",
          "type": "uint256"
        },
        {
          "name": "TO_REVEAL",
          "type": "uint256"
        }
      ],
      "payable": false,
      "stateMutability": "pure",
      "type": "function",
      "signature": "0x6a917cef"
    },
    {
      "constant": true,
      "inputs": [
        {
          "name": "hash",
          "type": "bytes32"
        }
      ],
      "name": "user_committed",
      "outputs": [
        {
          "name": "",
          "type": "bool"
        }
      ],
      "payable": false,
      "stateMutability": "view",
      "type": "function",
      "signature": "0xf14fcbc8"
    },
    {
      "constant": false,
      "inputs": [
        {
          "name": "hash",
          "type": "bytes32"
        }
      ],
      "name": "commit",
      "outputs": [],
      "payable": true,
      "stateMutability": "payable",
      "type": "function",
      "signature": "0xd826f88f"
    },
    {
      "constant": false,
      "inputs": [],
      "name": "reset",
      "outputs": [],
      "payable": false,
      "stateMutability": "nonpayable",
      "type": "function",
      "signature": "0xaf38ac1e"
    },
    {
      "constant": false,
      "inputs": [
        {
          "name": "firstNumber",
          "type": "uint8"
        },
        {
          "name": "secondNumber",
          "type": "uint8"
        }
      ],
      "name": "goToRevealPhase",
      "outputs": [],
      "payable": true,
      "stateMutability": "payable",
      "type": "function",
      "signature": "0xdfd61558"
    },
    {
      "constant": false,
      "inputs": [
        {
          "name": "firstNumber",
          "type": "uint8"
        },
        {
          "name": "secondNumber",
          "type": "uint8"
        }
      ],
      "name": "reveal",
      "outputs": [
        {
          "name": "",
          "type": "uint256"
        }
      ],
      "payable": true,
      "stateMutability": "payable",
      "type": "function",
      "signature": "0x63bd1d4a"
    },
    {
      "constant": false,
      "inputs": [],
      "name": "payout",
      "outputs": [
        {
          "name": "",
          "type": "uint256"
        }
      ],
      "payable": false,
      "stateMutability": "nonpayable",
      "type": "function"
    }
  ],
  "bytecode": "0x608060405234801561001057600080fd5b50336000806101000a81548173ffffffffffffffffffffffffffffffffffffffff021916908373ffffffffffffffffffffffffffffffffffffffff1602179055506000600960006101000a81548160ff0219169083600381111561007057fe5b021790555060405180608001604052806000815260200160008152602001600081526020016000815250600a6000820151816000015560208201518160010155604082015181600201556060820151816003015590505042600a6000018190555061214b806100e06000396000f3fe608060405260043610610105576000357c010000000000000000000000000000000000000000000000000000000090048063b0a398ab116100a7578063d2ecf7bf11610076578063d2ecf7bf1461046f578063d826f88f146104af578063dfd61558146104c6578063f14fcbc81461050457610105565b8063b0a398ab14610310578063bb9c9d771461037c578063ced72f87146103b5578063cee1cb8a146103e057610105565b80636a917cef116100e35780636a917cef146101f057806394cc41401461021f57806399bd92671461028b578063af38ac1e1461030657610105565b806361a2bc011461010a57806363bd1d4a1461018557806366945574146101b0575b600080fd5b34801561011657600080fd5b506101436004803603602081101561012d57600080fd5b8101908080359060200190929190505050610532565b604051808273ffffffffffffffffffffffffffffffffffffffff1673ffffffffffffffffffffffffffffffffffffffff16815260200191505060405180910390f35b34801561019157600080fd5b5061019a61056e565b6040518082815260200191505060405180910390f35b3480156101bc57600080fd5b506101c5610a03565b6040518085815260200184815260200183815260200182815260200194505050505060405180910390f35b3480156101fc57600080fd5b50610205610a21565b604051808215151515815260200191505060405180910390f35b34801561022b57600080fd5b50610234610a6b565b6040518080602001828103825283818151815260200191508051906020019060200280838360005b8381101561027757808201518184015260208101905061025c565b505050509050019250505060405180910390f35b34801561029757600080fd5b506102c4600480360360208110156102ae57600080fd5b8101908080359060200190929190505050610af9565b604051808273ffffffffffffffffffffffffffffffffffffffff1673ffffffffffffffffffffffffffffffffffffffff16815260200191505060405180910390f35b61030e610b35565b005b34801561031c57600080fd5b50610325610d64565b6040518080602001828103825283818151815260200191508051906020019060200280838360005b8381101561036857808201518184015260208101905061034d565b505050509050019250505060405180910390f35b34801561038857600080fd5b50610391610df2565b604051808260038111156103a157fe5b60ff16815260200191505060405180910390f35b3480156103c157600080fd5b506103ca610e05565b6040518082815260200191505060405180910390f35b3480156103ec57600080fd5b5061042d6004803603606081101561040357600080fd5b81019080803590602001909291908035906020019092919080359060200190929190505050610e14565b604051808273ffffffffffffffffffffffffffffffffffffffff1673ffffffffffffffffffffffffffffffffffffffff16815260200191505060405180910390f35b34801561047b57600080fd5b50610484610e6c565b6040518085815260200184815260200183815260200182815260200194505050505060405180910390f35b3480156104bb57600080fd5b506104c4610e8a565b005b610502600480360360408110156104dc57600080fd5b81019080803560ff169060200190929190803560ff1690602001909291905050506111ca565b005b6105306004803603602081101561051a57600080fd5b8101908080359060200190929190505050611823565b005b6002818154811061053f57fe5b906000526020600020016000915054906101000a900473ffffffffffffffffffffffffffffffffffffffff1681565b600060606008600760066040516020018080602001806020018060200184810384528781815481526020019150805480156105c857602002820191906000526020600020905b8154815260200190600101908083116105b4575b5050848103835286818154815260200191508054801561060757602002820191906000526020600020905b8154815260200190600101908083116105f3575b5050848103825285818154815260200191508054801561064657602002820191906000526020600020905b815481526020019060010190808311610632575b505096505050505050506040516020818303038152906040528051906020012060405160200180828152602001915050604051602081830303815290604052905060606040518060400160405280601f81526020016000815250905060606106cd6106be6000600186611ce89092919063ffffffff16565b83611d7490919063ffffffff16565b905060606106fa6106eb6001600287611ce89092919063ffffffff16565b84611d7490919063ffffffff16565b90506000610712600084611dfe90919063ffffffff16565b9050600061072a600084611dfe90919063ffffffff16565b90507f909c57d5c6ac08245cf2a6de3900e2b868513fa59099b92b27d8db823d92df9c826040518082815260200191505060405180910390a17f909c57d5c6ac08245cf2a6de3900e2b868513fa59099b92b27d8db823d92df9c816040518082815260200191505060405180910390a1606060046000848152602001908152602001600020600083815260200190815260200160002080548060200260200160405190810160405280929190818152602001828054801561084057602002820191906000526020600020905b8160009054906101000a900473ffffffffffffffffffffffffffffffffffffffff1673ffffffffffffffffffffffffffffffffffffffff16815260200190600101908083116107f6575b5050505050905060008151146109f95760003073ffffffffffffffffffffffffffffffffffffffff16319050600081116108e2576040517f08c379a000000000000000000000000000000000000000000000000000000000815260040180806020018281038252601f8152602001807f436f6e7472616374206e6565647320746f20686176652062616c616e63652e0081525060200191505060405180910390fd5b7f1364a66c10650b51f40fbdd70a9c9553915721688179be49b98ae5979b861839826040518080602001828103825283818151815260200191508051906020019060200280838360005b8381101561094757808201518184015260208101905061092c565b505050509050019250505060405180910390a160006002828161096657fe5b04905060008351828161097557fe5b04905060008090505b84518110156109f457600085828151811061099557fe5b602002602001015190508073ffffffffffffffffffffffffffffffffffffffff166108fc849081150290604051600060405180830381858888f193505050501580156109e5573d6000803e3d6000fd5b5050808060010191505061097e565b505050505b5050505050505090565b600080600080603c610258600a610258935093509350935090919293565b600080600360003373ffffffffffffffffffffffffffffffffffffffff1673ffffffffffffffffffffffffffffffffffffffff168152602001908152602001600020541415905090565b60606002805480602002602001604051908101604052809291908181526020018280548015610aef57602002820191906000526020600020905b8160009054906101000a900473ffffffffffffffffffffffffffffffffffffffff1673ffffffffffffffffffffffffffffffffffffffff1681526020019060010190808311610aa5575b5050505050905090565b60018181548110610b0657fe5b906000526020600020016000915054906101000a900473ffffffffffffffffffffffffffffffffffffffff1681565b60016003811115610b4257fe5b600960009054906101000a900460ff166003811115610b5d57fe5b14610bb3576040517f08c379a00000000000000000000000000000000000000000000000000000000081526004018080602001828103825260318152602001806120436031913960400191505060405180910390fd5b6000600360003373ffffffffffffffffffffffffffffffffffffffff1673ffffffffffffffffffffffffffffffffffffffff168152602001908152602001600020541415610c4c576040517f08c379a0000000000000000000000000000000000000000000000000000000008152600401808060200182810382526031815260200180611f816031913960400191505060405180910390fd5b600a806001015442031015610cc9576040517f08c379a000000000000000000000000000000000000000000000000000000000815260040180806020018281038252601e8152602001807f57616974696e672074696d65206e6565647320746f206265206f7665722e000081525060200191505060405180910390fd5b7f5e45bf0703fe855c9fa7c44122b9f47ad1075a0cc5dc8ae88903470067cba7e5600960009054906101000a900460ff16600260405180836003811115610d0c57fe5b60ff168152602001826003811115610d2057fe5b60ff1681526020019250505060405180910390a16002600960006101000a81548160ff02191690836003811115610d5357fe5b021790555042600a60020181905550565b60606001805480602002602001604051908101604052809291908181526020018280548015610de857602002820191906000526020600020905b8160009054906101000a900473ffffffffffffffffffffffffffffffffffffffff1673ffffffffffffffffffffffffffffffffffffffff1681526020019060010190808311610d9e575b5050505050905090565b600960009054906101000a900460ff1681565b6000660210aa59fc4296905090565b60046020528260005260406000206020528160005260406000208181548110610e3957fe5b90600052602060002001600092509250509054906101000a900473ffffffffffffffffffffffffffffffffffffffff1681565b600a8060000154908060010154908060020154908060030154905084565b7f5e45bf0703fe855c9fa7c44122b9f47ad1075a0cc5dc8ae88903470067cba7e5600960009054906101000a900460ff16600060405180836003811115610ecd57fe5b60ff168152602001826003811115610ee157fe5b60ff1681526020019250505060405180910390a16000600960006101000a81548160ff02191690836003811115610f1457fe5b021790555060008090505b600180549050811015610fb3576003600060018381548110610f3d57fe5b9060005260206000200160009054906101000a900473ffffffffffffffffffffffffffffffffffffffff1673ffffffffffffffffffffffffffffffffffffffff1673ffffffffffffffffffffffffffffffffffffffff168152602001908152602001600020600090558080600101915050610f1f565b506000600890505b600280549050811015611057576005600060028381548110610fd957fe5b9060005260206000200160009054906101000a900473ffffffffffffffffffffffffffffffffffffffff1673ffffffffffffffffffffffffffffffffffffffff1673ffffffffffffffffffffffffffffffffffffffff168152602001908152602001600020600061104a9190611e26565b8080600101915050610fbb565b50600160006110669190611e2d565b600260006110749190611e2d565b60008090505b60108160ff1610156110e95760008090505b60108260ff1610156110db57600460008360ff16815260200190815260200160002060008260ff16815260200190815260200160002060006110ce9190611e2d565b818060010192505061108c565b50808060010191505061107a565b50600660006110f89190611e4e565b600860006111069190611e4e565b600760006111149190611e4e565b604051806080016040528042815260200160008152602001600081526020016000815250600a600082015181600001556020820151816001015560408201518160020155606082015181600301559050507f162f46783fcc741c289a7af5bd16474ace09d7e8a9d5fe1ac0d37b12afc0ccac33604051808273ffffffffffffffffffffffffffffffffffffffff1673ffffffffffffffffffffffffffffffffffffffff16815260200191505060405180910390a1565b6000600360003373ffffffffffffffffffffffffffffffffffffffff1673ffffffffffffffffffffffffffffffffffffffff168152602001908152602001600020541415611263576040517f08c379a00000000000000000000000000000000000000000000000000000000081526004018080602001828103825260218152602001806120d46021913960400191505060405180910390fd5b6000600560003373ffffffffffffffffffffffffffffffffffffffff1673ffffffffffffffffffffffffffffffffffffffff16815260200190815260200160002050600214156112fe576040517f08c379a000000000000000000000000000000000000000000000000000000000815260040180806020018281038252602b8152602001806120f5602b913960400191505060405180910390fd5b6002600381111561130b57fe5b600960009054906101000a900460ff16600381111561132657fe5b1461137c576040517f08c379a00000000000000000000000000000000000000000000000000000000081526004018080602001828103825260218152602001806120746021913960400191505060405180910390fd5b610258600a600201544203106113fa576040517f08c379a000000000000000000000000000000000000000000000000000000000815260040180806020018281038252601e8152602001807f4d7573742062652077697468696e2074696d6520746f2072657665616c2e000081525060200191505060405180910390fd5b6060823383604051602001808460ff1660ff1681526020018373ffffffffffffffffffffffffffffffffffffffff1673ffffffffffffffffffffffffffffffffffffffff1681526020018260ff1660ff1681526020019350505050604051602081830303815290604052905060008180519060200120905080600360003373ffffffffffffffffffffffffffffffffffffffff1673ffffffffffffffffffffffffffffffffffffffff1681526020019081526020016000205414611509576040517f08c379a0000000000000000000000000000000000000000000000000000000008152600401808060200182810382526030815260200180611fd76030913960400191505060405180910390fd5b600460008560ff16815260200190815260200160002060008460ff1681526020019081526020016000203390806001815401808255809150509060018203906000526020600020016000909192909190916101000a81548173ffffffffffffffffffffffffffffffffffffffff021916908373ffffffffffffffffffffffffffffffffffffffff1602179055505061159f611e6f565b60405180604001604052808660ff1660ff1681526020018560ff1660ff16815250905080600560003373ffffffffffffffffffffffffffffffffffffffff1673ffffffffffffffffffffffffffffffffffffffff168152602001908152602001600020906002611610929190611e91565b5060023390806001815401808255809150509060018203906000526020600020016000909192909190916101000a81548173ffffffffffffffffffffffffffffffffffffffff021916908373ffffffffffffffffffffffffffffffffffffffff160217905550507f5537213d56fcd58df8e4fa27754f5d1835653bde9364c0ffa2cb0519bc128e83338686604051808473ffffffffffffffffffffffffffffffffffffffff1673ffffffffffffffffffffffffffffffffffffffff1681526020018360ff1660ff1681526020018260ff1660ff168152602001935050505060405180910390a1600642908060018154018082558091505090600182039060005260206000200160009091929091909150555060074390806001815401808255809150509060018203906000526020600020016000909192909190915055506008449080600181540180825580915050906001820390600052602060002001600090919290919091505550600280549050600180549050141561181c577f5e45bf0703fe855c9fa7c44122b9f47ad1075a0cc5dc8ae88903470067cba7e5600960009054906101000a900460ff166003604051808360038111156117cf57fe5b60ff1681526020018260038111156117e357fe5b60ff1681526020019250505060405180910390a16003600960006101000a81548160ff0219169083600381111561181657fe5b02179055505b5050505050565b6000600360003373ffffffffffffffffffffffffffffffffffffffff1673ffffffffffffffffffffffffffffffffffffffff16815260200190815260200160002054146118bb576040517f08c379a0000000000000000000000000000000000000000000000000000000008152600401808060200182810382526025815260200180611fb26025913960400191505060405180910390fd5b660210aa59fc4296341461191a576040517f08c379a000000000000000000000000000000000000000000000000000000000815260040180806020018281038252603f815260200180612095603f913960400191505060405180910390fd5b6000600381111561192757fe5b600960009054906101000a900460ff16600381111561194257fe5b148061197357506001600381111561195657fe5b600960009054906101000a900460ff16600381111561197157fe5b145b6119c8576040517f08c379a000000000000000000000000000000000000000000000000000000000815260040180806020018281038252603c815260200180612007603c913960400191505060405180910390fd5b600160038111156119d557fe5b600960009054906101000a900460ff1660038111156119f057fe5b1415611a7457603c600a60010154420310611a73576040517f08c379a00000000000000000000000000000000000000000000000000000000081526004018080602001828103825260178152602001807f54696d6520746f20636f6d6d6974206973206f7665722e00000000000000000081525060200191505060405180910390fd5b5b80600360003373ffffffffffffffffffffffffffffffffffffffff1673ffffffffffffffffffffffffffffffffffffffff16815260200190815260200160002081905550600060013390806001815401808255809150509060018203906000526020600020016000909192909190916101000a81548173ffffffffffffffffffffffffffffffffffffffff021916908373ffffffffffffffffffffffffffffffffffffffff160217905550905060006003811115611b2e57fe5b600960009054906101000a900460ff166003811115611b4957fe5b148015611b565750600181145b15611bf5577f5e45bf0703fe855c9fa7c44122b9f47ad1075a0cc5dc8ae88903470067cba7e5600960009054906101000a900460ff16600160405180836003811115611b9e57fe5b60ff168152602001826003811115611bb257fe5b60ff1681526020019250505060405180910390a16001600960006101000a81548160ff02191690836003811115611be557fe5b021790555042600a600101819055505b7f0290e16ca163280238cff6bd42c77cb055d3ff42239fe48bc5b8ec6edf5065c93383604051808373ffffffffffffffffffffffffffffffffffffffff1673ffffffffffffffffffffffffffffffffffffffff1681526020018281526020019250505060405180910390a16006429080600181540180825580915050906001820390600052602060002001600090919290919091505550600743908060018154018082558091505090600182039060005260206000200160009091929091909150555060084490806001815401808255809150509060018203906000526020600020016000909192909190915055505050565b606081830184511015611cfa57600080fd5b6060821560008114611d1757604051915060208201604052611d68565b6040519150601f8416801560200281840101858101878315602002848b0101015b81831015611d555780518352602083019250602081019050611d38565b50868552601f19601f8301166040525050505b50809150509392505050565b6060806040519050835180825260208201818101602087015b81831015611daa5780518352602083019250602081019050611d8d565b50855192508351830184528091508282019050602086015b81831015611ddf5780518352602083019250602081019050611dc2565b50601f19601f8851850115830101166040525050508091505092915050565b60006020820183511015611e1157600080fd5b60008260208501015190508091505092915050565b5060009055565b5080546000825590600052602060002090810190611e4b9190611f2b565b50565b5080546000825590600052602060002090810190611e6c9190611f2b565b50565b6040518060400160405280600290602082028038833980820191505090505090565b826002601f01602090048101928215611f1a5791602002820160005b83821115611eeb57835183826101000a81548160ff021916908360ff1602179055509260200192600101602081600001049283019260010302611ead565b8015611f185782816101000a81549060ff0219169055600101602081600001049283019260010302611eeb565b505b509050611f279190611f50565b5090565b611f4d91905b80821115611f49576000816000905550600101611f31565b5090565b90565b611f7d91905b80821115611f7957600081816101000a81549060ff021916905550600101611f56565b5090565b9056fe53656e646572206f6620746865206d657373616765206d757374206861766520636f6d6d69746564206e756d626572732e55736572206d757374206e6f74206861766520616c726561647920636f6d6d69747465642e48617368206d757374206265207468652073616d6520617320746865206f6e6520746861742069732073746f7265642e43757272656e74207068617365206e6565647320746f20626520436f6d6d6974206f7220436f6d6d6974416e645265616479466f7252657665616c2e43757272656e74207068617365206e6565647320746f20626520436f6d6d6974416e645265616479466f7252657665616c43757272656e74207068617365206e6565647320746f2062652052657665616c2e4d6573736167652068617320746f20686176652065786163746c79207468652076616c756520666f7220656e747279696e6720746865206c6f74746572792e55736572206d757374206861766520636f6d6d6974746564206e756d626572732e55736572206d757374206e6f742068617665206172656164792072657665616c6564206e756d626572732ea165627a7a7230582040e710c214024d63c258045b1f5c58b7ded028a822b47d773d99f9cf0b937fac0029",
  "source": "pragma solidity ^0.5.7;\n\nimport \"solidity-bytes-utils/contracts/BytesLib.sol\";\n\ncontract DLottery {\n    using BytesLib for bytes;\n    uint256 constant ENTRY_FEE = 581273793610390;\n    address owner;\n    address[] public committed;\n    address[] public revealed;\n    mapping(address => bytes32) addresses_to_committed_numbers;\n    mapping(uint256 => mapping(uint256 => address[])) public revealed_numbers_to_addresses;\n    mapping(address => uint8[2]) addresses_to_revealed_numbers;\n    uint256 constant TIME_LEFT_COMMIT_AND_REVEAL = 60; // 30 seconds\n    uint256 constant TIME_TO_ABORT =  10 * 60; // 10 minutes\n    uint256 constant TIME_WAIT_TO_GO_TO_REVEAL_PHASE = 10; // 30 seconds\n    uint256 constant TIME_TO_REVEAL = 10 * 60; // 10 minutes\n    uint256 constant NUMBER_OF_REQUIRED_PARTICIPANTS = 1;\n    uint256[] private time_stamps;\n    uint256[] private block_numbers;\n    uint256[] private block_difficulties;\n    enum Phase { Commit, CommitAndReadyForReveal, Reveal, Payout }\n    Phase public current_phase;\n    // time stamps of when the phases were entered\n    struct TimeStamps {\n        uint256 commit;\n        uint256 commit_and_ready_for_reveal;\n        uint256 reveal;\n        uint256 payout;\n    }\n    TimeStamps public current_timestamps;\n\n    event NewCommit(\n        address sender,\n        bytes32 commitHash\n    );\n    event NewReveal(\n        address sender,\n        uint8 first_number,\n        uint8 second_number\n    );\n    event Reset(\n        address sender\n    );\n    event PhaseChange(\n        Phase old_phase,\n        Phase new_phase\n    );\n    event LotteryEnded(\n        address[] winners\n    );\n    constructor() public {\n        owner = msg.sender;\n        current_phase = Phase.Commit;\n        current_timestamps = TimeStamps(0, 0, 0, 0);\n        current_timestamps.commit = block.timestamp;\n    }\n    function getCommitted() public view returns (address[] memory) {\n        return committed;\n    }\n    function getRevealed() public view returns (address[] memory) {\n        return revealed;\n    }\n    function getFee() public pure returns (uint256) {\n        return ENTRY_FEE;\n    }\n    function getTimers() public pure\n    returns (uint256 LEFT_COMMIT_AND_REVEAL, uint256 TO_ABORT, uint256 WAIT_TO_GO_TO_REVEAL_PHASE, uint256 TO_REVEAL) {\n        return (TIME_LEFT_COMMIT_AND_REVEAL,TIME_TO_ABORT,TIME_WAIT_TO_GO_TO_REVEAL_PHASE,TIME_TO_REVEAL);\n    }\n    function user_committed() public view returns (bool) {\n        return !(addresses_to_committed_numbers[msg.sender] == '');\n    }\n    function commit(bytes32 hash) public payable {\n        require(addresses_to_committed_numbers[msg.sender] == '', 'User must not have already committed.');\n        require(msg.value == ENTRY_FEE, 'Message has to have exactly the value for entrying the lottery.');\n        require(current_phase == Phase.Commit || current_phase == Phase.CommitAndReadyForReveal,\n        'Current phase needs to be Commit or CommitAndReadyForReveal.');\n        if (current_phase == Phase.CommitAndReadyForReveal) {\n            require((block.timestamp - current_timestamps.commit_and_ready_for_reveal) < TIME_LEFT_COMMIT_AND_REVEAL, 'Time to commit is over.');\n        }\n        addresses_to_committed_numbers[msg.sender] = hash;\n        uint256 new_number_of_participants = committed.push(msg.sender);\n        if (current_phase == Phase.Commit && new_number_of_participants == NUMBER_OF_REQUIRED_PARTICIPANTS) {\n            // Automatically go to commit and ready to reveal phase\n            emit PhaseChange(current_phase, Phase.CommitAndReadyForReveal);\n            current_phase = Phase.CommitAndReadyForReveal;\n            current_timestamps.commit_and_ready_for_reveal = now;\n        }\n        emit NewCommit(msg.sender, hash);\n        time_stamps.push(now);\n        block_numbers.push(block.number);\n        block_difficulties.push(block.difficulty);\n    }\n    function reset() public {\n        emit PhaseChange(current_phase, Phase.Commit);\n        current_phase = Phase.Commit;\n        for(uint i = 0; i < committed.length; i++) {\n            delete addresses_to_committed_numbers[committed[i]];\n        }\n        for(uint i = 8; i < revealed.length; i++) {\n            delete addresses_to_revealed_numbers[revealed[i]];\n        }\n        delete committed;\n        delete revealed;\n        for(uint8 i = 0; i < 16; i++) {\n            for(uint8 j = 0; i < 16; i++) {\n                delete revealed_numbers_to_addresses[i][j];\n            }\n        }\n        delete time_stamps;\n        delete block_difficulties;\n        delete block_numbers;\n        current_timestamps = TimeStamps(now, 0, 0, 0);\n        emit Reset(msg.sender);\n    }\n    function goToRevealPhase() payable public {\n        require(current_phase == Phase.CommitAndReadyForReveal, 'Current phase needs to be CommitAndReadyForReveal');\n        require(addresses_to_committed_numbers[msg.sender] != '', 'Sender of the message must have commited numbers.');\n        require((now - current_timestamps.commit_and_ready_for_reveal) >=\n        TIME_WAIT_TO_GO_TO_REVEAL_PHASE, 'Waiting time needs to be over.');\n        emit PhaseChange(current_phase, Phase.Reveal);\n        current_phase = Phase.Reveal;\n        current_timestamps.reveal = block.timestamp;\n    }\n    function reveal(uint8 firstNumber, uint8 secondNumber) payable public {\n        require(addresses_to_committed_numbers[msg.sender] != '', 'User must have committed numbers.');\n        require(addresses_to_revealed_numbers[msg.sender].length != 0, 'User must not have aready revealed numbers.');\n        require(current_phase == Phase.Reveal, 'Current phase needs to be Reveal.');\n        require((block.timestamp - current_timestamps.reveal) < TIME_TO_REVEAL, 'Must be within time to reveal.');\n        bytes memory input = abi.encode(firstNumber, msg.sender, secondNumber);\n        bytes32 hashed = keccak256(input);\n        require(addresses_to_committed_numbers[msg.sender] == hashed, 'Hash must be the same as the one that is stored.');\n        revealed_numbers_to_addresses[firstNumber][secondNumber].push(msg.sender);\n        uint8[2] memory numbers = [firstNumber, secondNumber];\n        addresses_to_revealed_numbers[msg.sender] =  numbers;\n        revealed.push(msg.sender);\n        emit NewReveal(msg.sender, firstNumber, secondNumber);\n        time_stamps.push(block.timestamp);\n        block_numbers.push(block.number);\n        block_difficulties.push(block.difficulty);\n        // Check if everyone that committed also revealed\n        // Go to payout phase if yes\n        if (committed.length == revealed.length) {\n            emit PhaseChange(current_phase, Phase.Payout);\n            current_phase = Phase.Payout;\n        }\n    }\n    \n    event Log (\n        uint256 number\n    );\n    \n    event Log2 (bytes b);\n    \n    function payout() public returns (uint256) {\n        //require(addresses_to_committed_numbers[msg.sender] != '', 'User must have committed numbers.');\n        //require(addresses_to_revealed_numbers[msg.sender].length != 0, 'User must have aready revealed numbers.');\n        //require(current_phase == Phase.Payout, 'Current phase needs to be Payout.');\n        bytes memory input = abi.encode(keccak256(abi.encode(block_difficulties, block_numbers, time_stamps)));\n        bytes memory padding = hex\"00000000000000000000000000000000000000000000000000000000000000\";\n        bytes memory b1 = padding.concat(input.slice(0, 1));\n        bytes memory b2 = padding.concat(input.slice(1, 2));\n        uint256 first_winning_number = b1.toUint(0);\n        uint256 second_winning_number = b2.toUint(0);\n        emit Log(first_winning_number);\n        emit Log(second_winning_number);\n        address[] memory winners = revealed_numbers_to_addresses[first_winning_number][second_winning_number];\n        // Check if there are any winners\n        if (winners.length != 0) {\n            // Get half of this contracts balance\n            uint256 balance = address(this).balance;\n            require(balance > 0, 'Contract needs to have balance.');\n            emit LotteryEnded(winners);\n            uint256 price = balance / 2;\n            uint256 price_per_winner = price / winners.length;\n            // Payout the prices\n            for (uint i = 0; i < winners.length; i++) {\n                address payable winners_address = address(uint160(winners[i]));\n                winners_address.transfer(price_per_winner);\n            }\n        }\n    }\n}\n",
  "sourcePath": "/Users/erionsula/Workspace/UZH/bcoln-challenge-task/contracts/DLottery.sol",
  "compiler": {
    "name": "solc",
    "version": "0.5.7+commit.6da8b019.Emscripten.clang"
  },
  "schemaVersion": "3.0.6",
  "updatedAt": "2019-05-14T09:23:09.651Z",
  "devdoc": {
    "methods": {}
  },
  "userdoc": {
    "methods": {}
  }
}